{
  "_format": "hh-sol-artifact-1",
  "contractName": "AgentRegistry",
  "sourceName": "contracts/AgentRegistry.sol",
  "abi": [
    {
      "inputs": [
        {
          "internalType": "address",
          "name": "initialOwner",
          "type": "address"
        }
      ],
      "stateMutability": "nonpayable",
      "type": "constructor"
    },
    {
      "inputs": [
        {
          "internalType": "address",
          "name": "owner",
          "type": "address"
        }
      ],
      "name": "OwnableInvalidOwner",
      "type": "error"
    },
    {
      "inputs": [
        {
          "internalType": "address",
          "name": "account",
          "type": "address"
        }
      ],
      "name": "OwnableUnauthorizedAccount",
      "type": "error"
    },
    {
      "anonymous": false,
      "inputs": [
        {
          "indexed": true,
          "internalType": "address",
          "name": "agent",
          "type": "address"
        },
        {
          "indexed": true,
          "internalType": "address",
          "name": "developer",
          "type": "address"
        },
        {
          "indexed": false,
          "internalType": "string",
          "name": "name",
          "type": "string"
        },
        {
          "indexed": false,
          "internalType": "string",
          "name": "metadataURI",
          "type": "string"
        }
      ],
      "name": "AgentRegistered",
      "type": "event"
    },
    {
      "anonymous": false,
      "inputs": [
        {
          "indexed": true,
          "internalType": "address",
          "name": "agent",
          "type": "address"
        },
        {
          "indexed": false,
          "internalType": "enum AgentRegistry.Status",
          "name": "status",
          "type": "uint8"
        }
      ],
      "name": "AgentUpdated",
      "type": "event"
    },
    {
      "anonymous": false,
      "inputs": [
        {
          "indexed": true,
          "internalType": "address",
          "name": "previousOwner",
          "type": "address"
        },
        {
          "indexed": true,
          "internalType": "address",
          "name": "newOwner",
          "type": "address"
        }
      ],
      "name": "OwnershipTransferred",
      "type": "event"
    },
    {
      "anonymous": false,
      "inputs": [
        {
          "indexed": true,
          "internalType": "address",
          "name": "oracle",
          "type": "address"
        }
      ],
      "name": "ReputationOracleUpdated",
      "type": "event"
    },
    {
      "anonymous": false,
      "inputs": [
        {
          "indexed": true,
          "internalType": "address",
          "name": "wallet",
          "type": "address"
        },
        {
          "indexed": false,
          "internalType": "uint256",
          "name": "reputation",
          "type": "uint256"
        }
      ],
      "name": "ReputationSynced",
      "type": "event"
    },
    {
      "inputs": [
        {
          "internalType": "address",
          "name": "agent",
          "type": "address"
        },
        {
          "internalType": "address",
          "name": "newDeveloper",
          "type": "address"
        }
      ],
      "name": "adminSetDeveloper",
      "outputs": [],
      "stateMutability": "nonpayable",
      "type": "function"
    },
    {
      "inputs": [
        {
          "internalType": "address",
          "name": "agent",
          "type": "address"
        },
        {
          "internalType": "enum AgentRegistry.Status",
          "name": "status",
          "type": "uint8"
        }
      ],
      "name": "adminUpdateStatus",
      "outputs": [],
      "stateMutability": "nonpayable",
      "type": "function"
    },
    {
      "inputs": [],
      "name": "agentCount",
      "outputs": [
        {
          "internalType": "uint256",
          "name": "",
          "type": "uint256"
        }
      ],
      "stateMutability": "view",
      "type": "function"
    },
    {
      "inputs": [
        {
          "internalType": "address",
          "name": "wallet",
          "type": "address"
        }
      ],
      "name": "getAgent",
      "outputs": [
        {
          "components": [
            {
              "internalType": "address",
              "name": "developer",
              "type": "address"
            },
            {
              "internalType": "string",
              "name": "name",
              "type": "string"
            },
            {
              "internalType": "string",
              "name": "metadataURI",
              "type": "string"
            },
            {
              "internalType": "string[]",
              "name": "capabilities",
              "type": "string[]"
            },
            {
              "internalType": "uint256",
              "name": "reputation",
              "type": "uint256"
            },
            {
              "internalType": "enum AgentRegistry.Status",
              "name": "status",
              "type": "uint8"
            },
            {
              "internalType": "uint256",
              "name": "createdAt",
              "type": "uint256"
            },
            {
              "internalType": "uint256",
              "name": "updatedAt",
              "type": "uint256"
            }
          ],
          "internalType": "struct AgentRegistry.Agent",
          "name": "",
          "type": "tuple"
        }
      ],
      "stateMutability": "view",
      "type": "function"
    },
    {
      "inputs": [
        {
          "internalType": "uint256",
          "name": "offset",
          "type": "uint256"
        },
        {
          "internalType": "uint256",
          "name": "limit",
          "type": "uint256"
        }
      ],
      "name": "getAgents",
      "outputs": [
        {
          "components": [
            {
              "internalType": "address",
              "name": "developer",
              "type": "address"
            },
            {
              "internalType": "string",
              "name": "name",
              "type": "string"
            },
            {
              "internalType": "string",
              "name": "metadataURI",
              "type": "string"
            },
            {
              "internalType": "string[]",
              "name": "capabilities",
              "type": "string[]"
            },
            {
              "internalType": "uint256",
              "name": "reputation",
              "type": "uint256"
            },
            {
              "internalType": "enum AgentRegistry.Status",
              "name": "status",
              "type": "uint8"
            },
            {
              "internalType": "uint256",
              "name": "createdAt",
              "type": "uint256"
            },
            {
              "internalType": "uint256",
              "name": "updatedAt",
              "type": "uint256"
            }
          ],
          "internalType": "struct AgentRegistry.Agent[]",
          "name": "list",
          "type": "tuple[]"
        },
        {
          "internalType": "uint256",
          "name": "total",
          "type": "uint256"
        }
      ],
      "stateMutability": "view",
      "type": "function"
    },
    {
      "inputs": [],
      "name": "getAllAgents",
      "outputs": [
        {
          "components": [
            {
              "internalType": "address",
              "name": "developer",
              "type": "address"
            },
            {
              "internalType": "string",
              "name": "name",
              "type": "string"
            },
            {
              "internalType": "string",
              "name": "metadataURI",
              "type": "string"
            },
            {
              "internalType": "string[]",
              "name": "capabilities",
              "type": "string[]"
            },
            {
              "internalType": "uint256",
              "name": "reputation",
              "type": "uint256"
            },
            {
              "internalType": "enum AgentRegistry.Status",
              "name": "status",
              "type": "uint8"
            },
            {
              "internalType": "uint256",
              "name": "createdAt",
              "type": "uint256"
            },
            {
              "internalType": "uint256",
              "name": "updatedAt",
              "type": "uint256"
            }
          ],
          "internalType": "struct AgentRegistry.Agent[]",
          "name": "list",
          "type": "tuple[]"
        }
      ],
      "stateMutability": "view",
      "type": "function"
    },
    {
      "inputs": [
        {
          "internalType": "address",
          "name": "agent",
          "type": "address"
        }
      ],
      "name": "getDeveloper",
      "outputs": [
        {
          "internalType": "address",
          "name": "",
          "type": "address"
        }
      ],
      "stateMutability": "view",
      "type": "function"
    },
    {
      "inputs": [
        {
          "internalType": "address",
          "name": "wallet",
          "type": "address"
        }
      ],
      "name": "isAgentActive",
      "outputs": [
        {
          "internalType": "bool",
          "name": "",
          "type": "bool"
        }
      ],
      "stateMutability": "view",
      "type": "function"
    },
    {
      "inputs": [],
      "name": "owner",
      "outputs": [
        {
          "internalType": "address",
          "name": "",
          "type": "address"
        }
      ],
      "stateMutability": "view",
      "type": "function"
    },
    {
      "inputs": [
        {
          "internalType": "address",
          "name": "agentAddress",
          "type": "address"
        },
        {
          "internalType": "string",
          "name": "name",
          "type": "string"
        },
        {
          "internalType": "string",
          "name": "metadataURI",
          "type": "string"
        },
        {
          "internalType": "string[]",
          "name": "capabilities",
          "type": "string[]"
        }
      ],
      "name": "registerAgent",
      "outputs": [],
      "stateMutability": "nonpayable",
      "type": "function"
    },
    {
      "inputs": [],
      "name": "renounceOwnership",
      "outputs": [],
      "stateMutability": "nonpayable",
      "type": "function"
    },
    {
      "inputs": [],
      "name": "reputationOracle",
      "outputs": [
        {
          "internalType": "address",
          "name": "",
          "type": "address"
        }
      ],
      "stateMutability": "view",
      "type": "function"
    },
    {
      "inputs": [
        {
          "internalType": "address",
          "name": "oracle",
          "type": "address"
        }
      ],
      "name": "setReputationOracle",
      "outputs": [],
      "stateMutability": "nonpayable",
      "type": "function"
    },
    {
      "inputs": [
        {
          "internalType": "address",
          "name": "agent",
          "type": "address"
        },
        {
          "internalType": "uint256",
          "name": "reputation",
          "type": "uint256"
        }
      ],
      "name": "syncReputation",
      "outputs": [],
      "stateMutability": "nonpayable",
      "type": "function"
    },
    {
      "inputs": [
        {
          "internalType": "address",
          "name": "newOwner",
          "type": "address"
        }
      ],
      "name": "transferOwnership",
      "outputs": [],
      "stateMutability": "nonpayable",
      "type": "function"
    },
    {
      "inputs": [
        {
          "internalType": "address",
          "name": "agentAddress",
          "type": "address"
        },
        {
          "internalType": "string",
          "name": "name",
          "type": "string"
        },
        {
          "internalType": "string",
          "name": "metadataURI",
          "type": "string"
        },
        {
          "internalType": "string[]",
          "name": "capabilities",
          "type": "string[]"
        },
        {
          "internalType": "enum AgentRegistry.Status",
          "name": "status",
          "type": "uint8"
        }
      ],
      "name": "updateAgent",
      "outputs": [],
      "stateMutability": "nonpayable",
      "type": "function"
    }
  ],
  "bytecode": "0x60806040523480156200001157600080fd5b5060405162001d3f38038062001d3f8339810160408190526200003491620000e6565b806001600160a01b0381166200006457604051631e4fbdf760e01b81526000600482015260240160405180910390fd5b6200006f8162000096565b50600480546001600160a01b0319166001600160a01b039290921691909117905562000118565b600080546001600160a01b038381166001600160a01b0319831681178455604051919092169283917f8be0079c531659141344cd1fd0a4f28419497f9722a3daafe3b4186f6b6457e09190a35050565b600060208284031215620000f957600080fd5b81516001600160a01b03811681146200011157600080fd5b9392505050565b611c1780620001286000396000f3fe608060405234801561001057600080fd5b50600436106101005760003560e01c80638da5cb5b11610097578063d19cfdac11610066578063d19cfdac14610232578063f2fde38b14610245578063fad844c114610258578063fb3551ff1461026b57600080fd5b80638da5cb5b146101dc578063b7dc1284146101ed578063be5d5d9b146101fe578063c6738c751461021f57600080fd5b806369f8d3cb116100d357806369f8d3cb14610199578063715018a6146101ac578063860e4ac6146101b45780638ad47bb4146101c957600080fd5b806331e028e414610105578063554c4f4b1461011a5780635582961f1461014257806367e13ee014610155575b600080fd5b610118610113366004611472565b61028b565b005b61012d61012836600461149c565b610396565b60405190151581526020015b60405180910390f35b610118610150366004611554565b6103d1565b61018161016336600461149c565b6001600160a01b039081166000908152600160205260409020541690565b6040516001600160a01b039091168152602001610139565b6101186101a736600461160f565b61057f565b61011861073e565b6101bc610752565b6040516101399190611879565b6101186101d736600461188c565b610a88565b6000546001600160a01b0316610181565b600254604051908152602001610139565b61021161020c3660046118bf565b610b46565b6040516101399291906118e1565b61011861022d366004611903565b610eeb565b61011861024036600461149c565b610f6a565b61011861025336600461149c565b610fbc565b600454610181906001600160a01b031681565b61027e61027936600461149c565b610ffa565b604051610139919061192d565b6004546001600160a01b031633146102f65760405162461bcd60e51b8152602060048201526024808201527f4167656e7452656769737472793a206e6f742072657075746174696f6e206f7260448201526361636c6560e01b60648201526084015b60405180910390fd5b6001600160a01b038216600090815260016020526040812090600582015460ff1660038111156103285761032861175a565b036103455760405162461bcd60e51b81526004016102ed90611940565b600481018290554260078201556040518281526001600160a01b038416907f380e6155523f21466811d0adbaf83ab2e36d2a13cb3564fbb22b503254adb128906020015b60405180910390a2505050565b600060016001600160a01b03831660009081526001602052604090206005015460ff1660038111156103ca576103ca61175a565b1492915050565b6001600160a01b038816600090815260016020526040812090600582015460ff1660038111156104035761040361175a565b036104205760405162461bcd60e51b81526004016102ed90611940565b80546001600160a01b031633146104795760405162461bcd60e51b815260206004820152601c60248201527f4167656e7452656769737472793a206e6f7420646576656c6f7065720000000060448201526064016102ed565b600082600381111561048d5761048d61175a565b036104da5760405162461bcd60e51b815260206004820152601d60248201527f4167656e7452656769737472793a20696e76616c69642073746174757300000060448201526064016102ed565b600181016104e9888a83611a18565b50600281016104f9868883611a18565b50610505818585611289565b60058101805483919060ff191660018360038111156105265761052661175a565b02179055504260078201556040516001600160a01b038a16907fadb8da1eee9237e1a6cee070d1cb72c529e052983e9e07b2afedc6e00bb826d59061056c908590611ad9565b60405180910390a2505050505050505050565b6001600160a01b038716600090815260016020526040812090600582015460ff1660038111156105b1576105b161175a565b146106085760405162461bcd60e51b815260206004820152602160248201527f4167656e7452656769737472793a20616c7265616479207265676973746572656044820152601960fa1b60648201526084016102ed565b80546001600160a01b0319163317815560018101610627878983611a18565b5060028101610637858783611a18565b50610643818484611289565b60058101805460ff19166001179055426006820181905560078201556001600160a01b03881660009081526003602052604090205460ff166106e3576002805460018082019092557f405787fa12a823e0f2b7631cc41b3ba8828b3321ca811111fa75cd3aa3bb5ace0180546001600160a01b0319166001600160a01b038b169081179091556000908152600360205260409020805460ff191690911790555b336001600160a01b0316886001600160a01b03167f2a562efb52e7cec209321f57200606311256da6d2a1b19d44db7837a3209de288989898960405161072c9493929190611b16565b60405180910390a35050505050505050565b6107466112f9565b6107506000611326565b565b60025460609067ffffffffffffffff81111561077057610770611977565b6040519080825280602002602001820160405280156107a957816020015b610796611376565b81526020019060019003908161078e5790505b50905060005b600254811015610a845760016000600283815481106107d0576107d0611b48565b60009182526020808320909101546001600160a01b0390811684528382019490945260409283019091208251610100810190935280549093168252600183018054929392918401916108219061198d565b80601f016020809104026020016040519081016040528092919081815260200182805461084d9061198d565b801561089a5780601f1061086f5761010080835404028352916020019161089a565b820191906000526020600020905b81548152906001019060200180831161087d57829003601f168201915b505050505081526020016002820180546108b39061198d565b80601f01602080910402602001604051908101604052809291908181526020018280546108df9061198d565b801561092c5780601f106109015761010080835404028352916020019161092c565b820191906000526020600020905b81548152906001019060200180831161090f57829003601f168201915b5050505050815260200160038201805480602002602001604051908101604052809291908181526020016000905b82821015610a065783829060005260206000200180546109799061198d565b80601f01602080910402602001604051908101604052809291908181526020018280546109a59061198d565b80156109f25780601f106109c7576101008083540402835291602001916109f2565b820191906000526020600020905b8154815290600101906020018083116109d557829003601f168201915b50505050508152602001906001019061095a565b5050509082525060048201546020820152600582015460409091019060ff166003811115610a3657610a3661175a565b6003811115610a4757610a4761175a565b815260200160068201548152602001600782015481525050828281518110610a7157610a71611b48565b60209081029190910101526001016107af565b5090565b610a906112f9565b6001600160a01b038216600090815260016020526040812090600582015460ff166003811115610ac257610ac261175a565b03610adf5760405162461bcd60e51b81526004016102ed90611940565b60058101805483919060ff19166001836003811115610b0057610b0061175a565b02179055504260078201556040516001600160a01b038416907fadb8da1eee9237e1a6cee070d1cb72c529e052983e9e07b2afedc6e00bb826d590610389908590611ad9565b600254606090808410610b8c576040805160008082526020820190925290610b84565b610b71611376565b815260200190600190039081610b695790505b509150610ee4565b6000610b988486611b74565b905081811115610ba55750805b610baf8582611b87565b67ffffffffffffffff811115610bc757610bc7611977565b604051908082528060200260200182016040528015610c0057816020015b610bed611376565b815260200190600190039081610be55790505b509250845b81811015610ee1576001600060028381548110610c2457610c24611b48565b60009182526020808320909101546001600160a01b039081168452838201949094526040928301909120825161010081019093528054909316825260018301805492939291840191610c759061198d565b80601f0160208091040260200160405190810160405280929190818152602001828054610ca19061198d565b8015610cee5780601f10610cc357610100808354040283529160200191610cee565b820191906000526020600020905b815481529060010190602001808311610cd157829003601f168201915b50505050508152602001600282018054610d079061198d565b80601f0160208091040260200160405190810160405280929190818152602001828054610d339061198d565b8015610d805780601f10610d5557610100808354040283529160200191610d80565b820191906000526020600020905b815481529060010190602001808311610d6357829003601f168201915b5050505050815260200160038201805480602002602001604051908101604052809291908181526020016000905b82821015610e5a578382906000526020600020018054610dcd9061198d565b80601f0160208091040260200160405190810160405280929190818152602001828054610df99061198d565b8015610e465780601f10610e1b57610100808354040283529160200191610e46565b820191906000526020600020905b815481529060010190602001808311610e2957829003601f168201915b505050505081526020019060010190610dae565b5050509082525060048201546020820152600582015460409091019060ff166003811115610e8a57610e8a61175a565b6003811115610e9b57610e9b61175a565b81526006820154602082015260079091015460409091015284610ebe8884611b87565b81518110610ece57610ece611b48565b6020908102919091010152600101610c05565b50505b9250929050565b610ef36112f9565b6001600160a01b038216600090815260016020526040812090600582015460ff166003811115610f2557610f2561175a565b03610f425760405162461bcd60e51b81526004016102ed90611940565b80546001600160a01b0319166001600160a01b03929092169190911781554260079091015550565b610f726112f9565b600480546001600160a01b0319166001600160a01b0383169081179091556040517fdee21eace0625c8ac40a78d0dea6f2217f387b3d4be5eb817e6c417cc82c0e2490600090a250565b610fc46112f9565b6001600160a01b038116610fee57604051631e4fbdf760e01b8152600060048201526024016102ed565b610ff781611326565b50565b611002611376565b6001600160a01b0380831660009081526001602081815260409283902083516101008101909452805490941683529083018054929392918401916110459061198d565b80601f01602080910402602001604051908101604052809291908181526020018280546110719061198d565b80156110be5780601f10611093576101008083540402835291602001916110be565b820191906000526020600020905b8154815290600101906020018083116110a157829003601f168201915b505050505081526020016002820180546110d79061198d565b80601f01602080910402602001604051908101604052809291908181526020018280546111039061198d565b80156111505780601f1061112557610100808354040283529160200191611150565b820191906000526020600020905b81548152906001019060200180831161113357829003601f168201915b5050505050815260200160038201805480602002602001604051908101604052809291908181526020016000905b8282101561122a57838290600052602060002001805461119d9061198d565b80601f01602080910402602001604051908101604052809291908181526020018280546111c99061198d565b80156112165780601f106111eb57610100808354040283529160200191611216565b820191906000526020600020905b8154815290600101906020018083116111f957829003601f168201915b50505050508152602001906001019061117e565b5050509082525060048201546020820152600582015460409091019060ff16600381111561125a5761125a61175a565b600381111561126b5761126b61175a565b81526006820154602082015260079091015460409091015292915050565b6112976003840160006113d5565b60005b818110156112f357836003018383838181106112b8576112b8611b48565b90506020028101906112ca9190611b9a565b825460018101845560009384526020909320909201916112ea9183611a18565b5060010161129a565b50505050565b6000546001600160a01b031633146107505760405163118cdaa760e01b81523360048201526024016102ed565b600080546001600160a01b038381166001600160a01b0319831681178455604051919092169283917f8be0079c531659141344cd1fd0a4f28419497f9722a3daafe3b4186f6b6457e09190a35050565b60405180610100016040528060006001600160a01b0316815260200160608152602001606081526020016060815260200160008152602001600060038111156113c1576113c161175a565b815260200160008152602001600081525090565b5080546000825590600052602060002090810190610ff791905b80821115610a84576000611403828261140c565b506001016113ef565b5080546114189061198d565b6000825580601f10611428575050565b601f016020900490600052602060002090810190610ff791905b80821115610a845760008155600101611442565b80356001600160a01b038116811461146d57600080fd5b919050565b6000806040838503121561148557600080fd5b61148e83611456565b946020939093013593505050565b6000602082840312156114ae57600080fd5b6114b782611456565b9392505050565b60008083601f8401126114d057600080fd5b50813567ffffffffffffffff8111156114e857600080fd5b602083019150836020828501011115610ee457600080fd5b60008083601f84011261151257600080fd5b50813567ffffffffffffffff81111561152a57600080fd5b6020830191508360208260051b8501011115610ee457600080fd5b80356004811061146d57600080fd5b60008060008060008060008060a0898b03121561157057600080fd5b61157989611456565b9750602089013567ffffffffffffffff8082111561159657600080fd5b6115a28c838d016114be565b909950975060408b01359150808211156115bb57600080fd5b6115c78c838d016114be565b909750955060608b01359150808211156115e057600080fd5b506115ed8b828c01611500565b9094509250611600905060808a01611545565b90509295985092959890939650565b60008060008060008060006080888a03121561162a57600080fd5b61163388611456565b9650602088013567ffffffffffffffff8082111561165057600080fd5b61165c8b838c016114be565b909850965060408a013591508082111561167557600080fd5b6116818b838c016114be565b909650945060608a013591508082111561169a57600080fd5b506116a78a828b01611500565b989b979a50959850939692959293505050565b6000815180845260005b818110156116e0576020818501810151868301820152016116c4565b506000602082860101526020601f19601f83011685010191505092915050565b60008282518085526020808601955060208260051b8401016020860160005b8481101561174d57601f1986840301895261173b8383516116ba565b9884019892509083019060010161171f565b5090979650505050505050565b634e487b7160e01b600052602160045260246000fd5b6004811061178e57634e487b7160e01b600052602160045260246000fd5b9052565b600061010060018060a01b03835116845260208301518160208601526117ba828601826116ba565b915050604083015184820360408601526117d482826116ba565b915050606083015184820360608601526117ee8282611700565b9150506080830151608085015260a083015161180d60a0860182611770565b5060c083015160c085015260e083015160e08501528091505092915050565b60008282518085526020808601955060208260051b8401016020860160005b8481101561174d57601f19868403018952611867838351611792565b9884019892509083019060010161184b565b6020815260006114b7602083018461182c565b6000806040838503121561189f57600080fd5b6118a883611456565b91506118b660208401611545565b90509250929050565b600080604083850312156118d257600080fd5b50508035926020909101359150565b6040815260006118f4604083018561182c565b90508260208301529392505050565b6000806040838503121561191657600080fd5b61191f83611456565b91506118b660208401611456565b6020815260006114b76020830184611792565b6020808252601d908201527f4167656e7452656769737472793a206e6f742072656769737465726564000000604082015260600190565b634e487b7160e01b600052604160045260246000fd5b600181811c908216806119a157607f821691505b6020821081036119c157634e487b7160e01b600052602260045260246000fd5b50919050565b601f821115611a13576000816000526020600020601f850160051c810160208610156119f05750805b601f850160051c820191505b81811015611a0f578281556001016119fc565b5050505b505050565b67ffffffffffffffff831115611a3057611a30611977565b611a4483611a3e835461198d565b836119c7565b6000601f841160018114611a785760008515611a605750838201355b600019600387901b1c1916600186901b178355611ad2565b600083815260209020601f19861690835b82811015611aa95786850135825560209485019460019092019101611a89565b5086821015611ac65760001960f88860031b161c19848701351681555b505060018560011b0183555b5050505050565b60208101611ae78284611770565b92915050565b81835281816020850137506000828201602090810191909152601f909101601f19169091010190565b604081526000611b2a604083018688611aed565b8281036020840152611b3d818587611aed565b979650505050505050565b634e487b7160e01b600052603260045260246000fd5b634e487b7160e01b600052601160045260246000fd5b80820180821115611ae757611ae7611b5e565b81810381811115611ae757611ae7611b5e565b6000808335601e19843603018112611bb157600080fd5b83018035915067ffffffffffffffff821115611bcc57600080fd5b602001915036819003821315610ee457600080fdfea26469706673582212208419c9307c763200973c553fe257207eae6366b2e837da18d03484cb5a40b8cd64736f6c63430008180033",
  "linkReferences": {},
  "deployedLinkReferences": {}
}