{
  "_format": "hh-sol-artifact-1",
  "contractName": "Escrow",
  "sourceName": "contracts/Escrow.sol",
  "abi": [
    {
      "inputs": [
        {
          "internalType": "address",
          "name": "initialOwner",
          "type": "address"
        },
        {
          "internalType": "address",
          "name": "usdcToken",
          "type": "address"
        },
        {
          "internalType": "address",
          "name": "feeCollector_",
          "type": "address"
        }
      ],
      "stateMutability": "nonpayable",
      "type": "constructor"
    },
    {
      "inputs": [
        {
          "internalType": "address",
          "name": "owner",
          "type": "address"
        }
      ],
      "name": "OwnableInvalidOwner",
      "type": "error"
    },
    {
      "inputs": [
        {
          "internalType": "address",
          "name": "account",
          "type": "address"
        }
      ],
      "name": "OwnableUnauthorizedAccount",
      "type": "error"
    },
    {
      "inputs": [],
      "name": "ReentrancyGuardReentrantCall",
      "type": "error"
    },
    {
      "inputs": [
        {
          "internalType": "address",
          "name": "token",
          "type": "address"
        }
      ],
      "name": "SafeERC20FailedOperation",
      "type": "error"
    },
    {
      "anonymous": false,
      "inputs": [
        {
          "indexed": true,
          "internalType": "uint256",
          "name": "jobId",
          "type": "uint256"
        }
      ],
      "name": "DeliveryConfirmed",
      "type": "event"
    },
    {
      "anonymous": false,
      "inputs": [
        {
          "indexed": true,
          "internalType": "uint256",
          "name": "jobId",
          "type": "uint256"
        },
        {
          "indexed": true,
          "internalType": "address",
          "name": "poster",
          "type": "address"
        },
        {
          "indexed": true,
          "internalType": "address",
          "name": "provider",
          "type": "address"
        },
        {
          "indexed": false,
          "internalType": "uint256",
          "name": "amount",
          "type": "uint256"
        }
      ],
      "name": "EscrowFunded",
      "type": "event"
    },
    {
      "anonymous": false,
      "inputs": [
        {
          "indexed": true,
          "internalType": "address",
          "name": "previousOwner",
          "type": "address"
        },
        {
          "indexed": true,
          "internalType": "address",
          "name": "newOwner",
          "type": "address"
        }
      ],
      "name": "OwnershipTransferred",
      "type": "event"
    },
    {
      "anonymous": false,
      "inputs": [
        {
          "indexed": true,
          "internalType": "uint256",
          "name": "jobId",
          "type": "uint256"
        },
        {
          "indexed": true,
          "internalType": "address",
          "name": "poster",
          "type": "address"
        },
        {
          "indexed": false,
          "internalType": "uint256",
          "name": "amount",
          "type": "uint256"
        }
      ],
      "name": "PaymentRefunded",
      "type": "event"
    },
    {
      "anonymous": false,
      "inputs": [
        {
          "indexed": true,
          "internalType": "uint256",
          "name": "jobId",
          "type": "uint256"
        },
        {
          "indexed": true,
          "internalType": "address",
          "name": "provider",
          "type": "address"
        },
        {
          "indexed": false,
          "internalType": "uint256",
          "name": "payout",
          "type": "uint256"
        },
        {
          "indexed": false,
          "internalType": "uint256",
          "name": "fee",
          "type": "uint256"
        }
      ],
      "name": "PaymentReleased",
      "type": "event"
    },
    {
      "inputs": [
        {
          "internalType": "uint256",
          "name": "jobId",
          "type": "uint256"
        }
      ],
      "name": "confirmDelivery",
      "outputs": [],
      "stateMutability": "nonpayable",
      "type": "function"
    },
    {
      "inputs": [
        {
          "internalType": "uint256",
          "name": "",
          "type": "uint256"
        }
      ],
      "name": "deliveryConfirmed",
      "outputs": [
        {
          "internalType": "bool",
          "name": "",
          "type": "bool"
        }
      ],
      "stateMutability": "view",
      "type": "function"
    },
    {
      "inputs": [
        {
          "internalType": "uint256",
          "name": "",
          "type": "uint256"
        }
      ],
      "name": "deposits",
      "outputs": [
        {
          "internalType": "address",
          "name": "poster",
          "type": "address"
        },
        {
          "internalType": "address",
          "name": "provider",
          "type": "address"
        },
        {
          "internalType": "uint256",
          "name": "amount",
          "type": "uint256"
        },
        {
          "internalType": "bool",
          "name": "funded",
          "type": "bool"
        },
        {
          "internalType": "bool",
          "name": "released",
          "type": "bool"
        },
        {
          "internalType": "bool",
          "name": "refunded",
          "type": "bool"
        }
      ],
      "stateMutability": "view",
      "type": "function"
    },
    {
      "inputs": [],
      "name": "feeCollector",
      "outputs": [
        {
          "internalType": "address",
          "name": "",
          "type": "address"
        }
      ],
      "stateMutability": "view",
      "type": "function"
    },
    {
      "inputs": [
        {
          "internalType": "uint256",
          "name": "jobId",
          "type": "uint256"
        },
        {
          "internalType": "address",
          "name": "provider",
          "type": "address"
        },
        {
          "internalType": "uint256",
          "name": "amount",
          "type": "uint256"
        }
      ],
      "name": "fundJob",
      "outputs": [],
      "stateMutability": "nonpayable",
      "type": "function"
    },
    {
      "inputs": [
        {
          "internalType": "uint256",
          "name": "jobId",
          "type": "uint256"
        }
      ],
      "name": "getDeposit",
      "outputs": [
        {
          "components": [
            {
              "internalType": "address",
              "name": "poster",
              "type": "address"
            },
            {
              "internalType": "address",
              "name": "provider",
              "type": "address"
            },
            {
              "internalType": "uint256",
              "name": "amount",
              "type": "uint256"
            },
            {
              "internalType": "bool",
              "name": "funded",
              "type": "bool"
            },
            {
              "internalType": "bool",
              "name": "released",
              "type": "bool"
            },
            {
              "internalType": "bool",
              "name": "refunded",
              "type": "bool"
            }
          ],
          "internalType": "struct Escrow.Deposit",
          "name": "",
          "type": "tuple"
        }
      ],
      "stateMutability": "view",
      "type": "function"
    },
    {
      "inputs": [
        {
          "internalType": "uint256",
          "name": "jobId",
          "type": "uint256"
        }
      ],
      "name": "isDeliveryConfirmed",
      "outputs": [
        {
          "internalType": "bool",
          "name": "",
          "type": "bool"
        }
      ],
      "stateMutability": "view",
      "type": "function"
    },
    {
      "inputs": [],
      "name": "orderBook",
      "outputs": [
        {
          "internalType": "contract IOrderBook",
          "name": "",
          "type": "address"
        }
      ],
      "stateMutability": "view",
      "type": "function"
    },
    {
      "inputs": [],
      "name": "owner",
      "outputs": [
        {
          "internalType": "address",
          "name": "",
          "type": "address"
        }
      ],
      "stateMutability": "view",
      "type": "function"
    },
    {
      "inputs": [],
      "name": "platformFeeBps",
      "outputs": [
        {
          "internalType": "uint96",
          "name": "",
          "type": "uint96"
        }
      ],
      "stateMutability": "view",
      "type": "function"
    },
    {
      "inputs": [
        {
          "internalType": "uint256",
          "name": "jobId",
          "type": "uint256"
        }
      ],
      "name": "refund",
      "outputs": [],
      "stateMutability": "nonpayable",
      "type": "function"
    },
    {
      "inputs": [
        {
          "internalType": "uint256",
          "name": "jobId",
          "type": "uint256"
        }
      ],
      "name": "releaseToProvider",
      "outputs": [],
      "stateMutability": "nonpayable",
      "type": "function"
    },
    {
      "inputs": [],
      "name": "renounceOwnership",
      "outputs": [],
      "stateMutability": "nonpayable",
      "type": "function"
    },
    {
      "inputs": [
        {
          "internalType": "address",
          "name": "collector",
          "type": "address"
        },
        {
          "internalType": "uint96",
          "name": "bps",
          "type": "uint96"
        }
      ],
      "name": "setFeeCollector",
      "outputs": [],
      "stateMutability": "nonpayable",
      "type": "function"
    },
    {
      "inputs": [
        {
          "internalType": "address",
          "name": "ob",
          "type": "address"
        }
      ],
      "name": "setOrderBook",
      "outputs": [],
      "stateMutability": "nonpayable",
      "type": "function"
    },
    {
      "inputs": [
        {
          "internalType": "address",
          "name": "newOwner",
          "type": "address"
        }
      ],
      "name": "transferOwnership",
      "outputs": [],
      "stateMutability": "nonpayable",
      "type": "function"
    },
    {
      "inputs": [],
      "name": "usdc",
      "outputs": [
        {
          "internalType": "contract IERC20",
          "name": "",
          "type": "address"
        }
      ],
      "stateMutability": "view",
      "type": "function"
    }
  ],
  "bytecode": "0x60a060405234801561001057600080fd5b5060405161108d38038061108d83398101604081905261002f916100f6565b826001600160a01b03811661005e57604051631e4fbdf760e01b81526000600482015260240160405180910390fd5b6100678161008a565b50600180556001600160a01b0391821660805216601960a31b1760055550610139565b600080546001600160a01b038381166001600160a01b0319831681178455604051919092169283917f8be0079c531659141344cd1fd0a4f28419497f9722a3daafe3b4186f6b6457e09190a35050565b80516001600160a01b03811681146100f157600080fd5b919050565b60008060006060848603121561010b57600080fd5b610114846100da565b9250610122602085016100da565b9150610130604085016100da565b90509250925092565b608051610f1d610170600039600081816101ba015281816106a5015281816106e10152818161088a0152610aff0152610f1d6000f3fe608060405234801561001057600080fd5b506004361061010b5760003560e01c8063776af5ba116100a2578063b02c43d011610071578063b02c43d014610363578063c415b95c146103fb578063f2fde38b1461040e578063f7fd0e4f14610421578063fd84cb971461043457600080fd5b8063776af5ba1461021f5780638da5cb5b146102325780639a1598c8146102435780639f9fb9681461025657600080fd5b806337433cf1116100de57806337433cf1146101825780633e413bee146101b5578063580788ad146101f4578063715018a61461021757600080fd5b80631c8add891461011057806322dcd13e14610125578063278ecde11461015c578063329dc1031461016f575b600080fd5b61012361011e366004610db0565b610447565b005b60055461013f90600160a01b90046001600160601b031681565b6040516001600160601b0390911681526020015b60405180910390f35b61012361016a366004610db0565b6107d3565b61012361017d366004610de5565b61090f565b6101a5610190366004610db0565b60009081526003602052604090205460ff1690565b6040519015158152602001610153565b6101dc7f000000000000000000000000000000000000000000000000000000000000000081565b6040516001600160a01b039091168152602001610153565b6101a5610202366004610db0565b60036020526000908152604090205460ff1681565b610123610989565b6004546101dc906001600160a01b031681565b6000546001600160a01b03166101dc565b610123610251366004610e28565b61099d565b610308610264366004610db0565b6040805160c081018252600080825260208201819052918101829052606081018290526080810182905260a081019190915250600090815260026020818152604092839020835160c08101855281546001600160a01b0390811682526001830154169281019290925291820154928101929092526003015460ff8082161515606084015261010082048116151560808401526201000090910416151560a082015290565b604051610153919081516001600160a01b039081168252602080840151909116908201526040808301519082015260608083015115159082015260808083015115159082015260a09182015115159181019190915260c00190565b6103bd610371366004610db0565b600260208190526000918252604090912080546001820154928201546003909201546001600160a01b0391821693909116919060ff808216916101008104821691620100009091041686565b604080516001600160a01b039788168152969095166020870152938501929092521515606084015215156080830152151560a082015260c001610153565b6005546101dc906001600160a01b031681565b61012361041c366004610e28565b6109c7565b61012361042f366004610e4a565b610a02565b610123610442366004610db0565b610baa565b61044f610bf5565b6000818152600260205260409020600381015460ff166104ab5760405162461bcd60e51b8152602060048201526012602482015271115cd8dc9bddce881b9bdd08199d5b99195960721b60448201526064015b60405180910390fd5b6003810154610100900460ff16156105055760405162461bcd60e51b815260206004820152601860248201527f457363726f773a20616c72656164792072656c6561736564000000000000000060448201526064016104a2565b600381015462010000900460ff16156105535760405162461bcd60e51b815260206004820152601060248201526f115cd8dc9bddce881c99599d5b99195960821b60448201526064016104a2565b60008281526003602052604090205460ff166105b15760405162461bcd60e51b815260206004820152601e60248201527f457363726f773a2064656c6976657279206e6f7420636f6e6669726d6564000060448201526064016104a2565b80546001600160a01b03163314806105d5575060018101546001600160a01b031633145b61061a5760405162461bcd60e51b8152602060048201526016602482015275115cd8dc9bddce881b9bdd08185d5d1a1bdc9a5cd95960521b60448201526064016104a2565b60038101805461ff001916610100179055600554600282015460009161271091610655916001600160601b03600160a01b9091041690610e95565b61065f9190610eb2565b905060008183600201546106739190610ed4565b905060008211801561068f57506005546001600160a01b031615155b156106ce576005546106ce906001600160a01b037f00000000000000000000000000000000000000000000000000000000000000008116911684610c1f565b600183015461070a906001600160a01b037f00000000000000000000000000000000000000000000000000000000000000008116911683610c1f565b6004546001600160a01b031615610778576004805460405163257c413b60e21b81529182018690526001600160a01b0316906395f104ec90602401600060405180830381600087803b15801561075f57600080fd5b505af1158015610773573d6000803e3d6000fd5b505050505b600183015460408051838152602081018590526001600160a01b039092169186917f8cdc8dc08e54a4e57f52077ecf1b4c508758513439cae2aa325dcc85b922fca8910160405180910390a35050506107d060018055565b50565b6107db610bf5565b6107e3610c83565b6000818152600260205260409020600381015460ff16801561080f57506003810154610100900460ff16155b80156108265750600381015462010000900460ff16155b61086a5760405162461bcd60e51b8152602060048201526015602482015274457363726f773a20696e76616c696420737461746560581b60448201526064016104a2565b60038101805462ff0000191662010000179055805460028201546108bd917f00000000000000000000000000000000000000000000000000000000000000006001600160a01b0390811692911690610c1f565b805460028201546040519081526001600160a01b039091169083907fe89ec1881a76229445bcd179b8c4b24f9edc7ddd87d07fb3b19c67ae9c6e27cc9060200160405180910390a3506107d060018055565b610917610c83565b6103e8816001600160601b031611156109695760405162461bcd60e51b815260206004820152601460248201527308ae6c6e4deee7440cccaca40e8dede40d0d2ced60631b60448201526064016104a2565b6001600160601b0316600160a01b026001600160a01b0390911617600555565b610991610c83565b61099b6000610cb0565b565b6109a5610c83565b600480546001600160a01b0319166001600160a01b0392909216919091179055565b6109cf610c83565b6001600160a01b0381166109f957604051631e4fbdf760e01b8152600060048201526024016104a2565b6107d081610cb0565b6000838152600260205260409020600381015460ff1615610a5e5760405162461bcd60e51b8152602060048201526016602482015275115cd8dc9bddce88185b1c9958591e48199d5b99195960521b60448201526064016104a2565b60008211610aa45760405162461bcd60e51b8152602060048201526013602482015272115cd8dc9bddce881e995c9bc8185b5bdd5b9d606a1b60448201526064016104a2565b6001600160a01b038316610af25760405162461bcd60e51b815260206004820152601560248201527422b9b1b937bb9d103d32b93790383937bb34b232b960591b60448201526064016104a2565b610b276001600160a01b037f000000000000000000000000000000000000000000000000000000000000000016333085610d00565b80546001600160a01b0319908116339081178355600180840180546001600160a01b0388169416841790556002840185905560038401805460ff1916909117905560405186907f1736617f8b9029b421ccc471ca8a99395f5d8a1cb348be9fcbfd64cceee7252f90610b9c9087815260200190565b60405180910390a450505050565b610bb2610c83565b600081815260036020526040808220805460ff191660011790555182917f375b4005eeae25d0e37d56e1b3841d3bb394b277efa2548de3293f5dcb7a349391a250565b600260015403610c1857604051633ee5aeb560e01b815260040160405180910390fd5b6002600155565b6040516001600160a01b03838116602483015260448201839052610c7e91859182169063a9059cbb906064015b604051602081830303815290604052915060e01b6020820180516001600160e01b038381831617835250505050610d3f565b505050565b6000546001600160a01b0316331461099b5760405163118cdaa760e01b81523360048201526024016104a2565b600080546001600160a01b038381166001600160a01b0319831681178455604051919092169283917f8be0079c531659141344cd1fd0a4f28419497f9722a3daafe3b4186f6b6457e09190a35050565b6040516001600160a01b038481166024830152838116604483015260648201839052610d399186918216906323b872dd90608401610c4c565b50505050565b600080602060008451602086016000885af180610d62576040513d6000823e3d81fd5b50506000513d91508115610d7a578060011415610d87565b6001600160a01b0384163b155b15610d3957604051635274afe760e01b81526001600160a01b03851660048201526024016104a2565b600060208284031215610dc257600080fd5b5035919050565b80356001600160a01b0381168114610de057600080fd5b919050565b60008060408385031215610df857600080fd5b610e0183610dc9565b915060208301356001600160601b0381168114610e1d57600080fd5b809150509250929050565b600060208284031215610e3a57600080fd5b610e4382610dc9565b9392505050565b600080600060608486031215610e5f57600080fd5b83359250610e6f60208501610dc9565b9150604084013590509250925092565b634e487b7160e01b600052601160045260246000fd5b8082028115828204841417610eac57610eac610e7f565b92915050565b600082610ecf57634e487b7160e01b600052601260045260246000fd5b500490565b81810381811115610eac57610eac610e7f56fea264697066735822122055bdec67197363044eca383c7fe9d364bbf355e260865f4bae864ff3f70c84c964736f6c63430008180033",
  "linkReferences": {},
  "deployedLinkReferences": {}
}