{"contracts/ReputationToken.sol":{"ReputationToken":{"abi":[{"inputs":[{"internalType":"address","name":"initialOwner","type":"address"}],"stateMutability":"nonpayable","type":"constructor"},{"inputs":[{"internalType":"address","name":"owner","type":"address"}],"name":"OwnableInvalidOwner","type":"error"},{"inputs":[{"internalType":"address","name":"account","type":"address"}],"name":"OwnableUnauthorizedAccount","type":"error"},{"anonymous":false,"inputs":[{"indexed":true,"internalType":"address","name":"registry","type":"address"}],"name":"AgentRegistryUpdated","type":"event"},{"anonymous":false,"inputs":[{"indexed":true,"internalType":"address","name":"escrow","type":"address"}],"name":"EscrowUpdated","type":"event"},{"anonymous":false,"inputs":[{"indexed":true,"internalType":"address","name":"previousOwner","type":"address"},{"indexed":true,"internalType":"address","name":"newOwner","type":"address"}],"name":"OwnershipTransferred","type":"event"},{"anonymous":false,"inputs":[{"indexed":true,"internalType":"address","name":"agent","type":"address"},{"indexed":false,"internalType":"uint256","name":"score","type":"uint256"},{"components":[{"internalType":"uint64","name":"jobsCompleted","type":"uint64"},{"internalType":"uint64","name":"jobsFailed","type":"uint64"},{"internalType":"uint128","name":"totalEarned","type":"uint128"},{"internalType":"uint64","name":"lastUpdated","type":"uint64"}],"indexed":false,"internalType":"struct ReputationToken.AgentStats","name":"stats","type":"tuple"}],"name":"ReputationUpdated","type":"event"},{"inputs":[],"name":"agentRegistry","outputs":[{"internalType":"address","name":"","type":"address"}],"stateMutability":"view","type":"function"},{"inputs":[],"name":"escrow","outputs":[{"internalType":"address","name":"","type":"address"}],"stateMutability":"view","type":"function"},{"inputs":[],"name":"owner","outputs":[{"internalType":"address","name":"","type":"address"}],"stateMutability":"view","type":"function"},{"inputs":[{"internalType":"address","name":"agent","type":"address"}],"name":"recordFailure","outputs":[],"stateMutability":"nonpayable","type":"function"},{"inputs":[{"internalType":"address","name":"agent","type":"address"},{"internalType":"uint256","name":"payoutAmount","type":"uint256"}],"name":"recordSuccess","outputs":[],"stateMutability":"nonpayable","type":"function"},{"inputs":[],"name":"renounceOwnership","outputs":[],"stateMutability":"nonpayable","type":"function"},{"inputs":[{"internalType":"address","name":"agent","type":"address"}],"name":"scoreOf","outputs":[{"internalType":"uint256","name":"","type":"uint256"}],"stateMutability":"view","type":"function"},{"inputs":[{"internalType":"address","name":"registry","type":"address"}],"name":"setAgentRegistry","outputs":[],"stateMutability":"nonpayable","type":"function"},{"inputs":[{"internalType":"address","name":"newEscrow","type":"address"}],"name":"setEscrow","outputs":[],"stateMutability":"nonpayable","type":"function"},{"inputs":[{"internalType":"address","name":"agent","type":"address"}],"name":"statsOf","outputs":[{"components":[{"internalType":"uint64","name":"jobsCompleted","type":"uint64"},{"internalType":"uint64","name":"jobsFailed","type":"uint64"},{"internalType":"uint128","name":"totalEarned","type":"uint128"},{"internalType":"uint64","name":"lastUpdated","type":"uint64"}],"internalType":"struct ReputationToken.AgentStats","name":"","type":"tuple"}],"stateMutability":"view","type":"function"},{"inputs":[{"internalType":"address","name":"newOwner","type":"address"}],"name":"transferOwnership","outputs":[],"stateMutability":"nonpayable","type":"function"}],"evm":{"bytecode":{"linkReferences":{},"object":"608060405234801561001057600080fd5b50604051610b92380380610b9283398101604081905261002f916100be565b806001600160a01b03811661005e57604051631e4fbdf760e01b81526000600482015260240160405180910390fd5b6100678161006e565b50506100ee565b600080546001600160a01b038381166001600160a01b0319831681178455604051919092169283917f8be0079c531659141344cd1fd0a4f28419497f9722a3daafe3b4186f6b6457e09190a35050565b6000602082840312156100d057600080fd5b81516001600160a01b03811681146100e757600080fd5b9392505050565b610a95806100fd6000396000f3fe608060405234801561001057600080fd5b50600436106100a95760003560e01c8063715018a611610071578063715018a6146102205780638da5cb5b14610228578063c10c354614610239578063e2fdcc171461024c578063e37457be1461025f578063f2fde38b1461027257600080fd5b80630d1cfcae146100ae578063133af456146100de57806315cfc4051461011557806328342ecf146101f85780632caafd3e1461020d575b600080fd5b6004546100c1906001600160a01b031681565b6040516001600160a01b0390911681526020015b60405180910390f35b6101076100ec366004610968565b6001600160a01b031660009081526001602052604090205490565b6040519081526020016100d5565b6101ae610123366004610968565b604080516080810182526000808252602082018190529181018290526060810191909152506001600160a01b0316600090815260026020908152604091829020825160808101845281546001600160401b038082168352600160401b8204811694830194909452600160801b90046001600160801b0316938101939093526001015416606082015290565b6040516100d5919081516001600160401b0390811682526020808401518216908301526040808401516001600160801b031690830152606092830151169181019190915260800190565b61020b610206366004610968565b610285565b005b61020b61021b366004610968565b6102d7565b61020b6104d3565b6000546001600160a01b03166100c1565b61020b610247366004610968565b6104e7565b6003546100c1906001600160a01b031681565b61020b61026d36600461098a565b610539565b61020b610280366004610968565b61080a565b61028d610848565b600480546001600160a01b0319166001600160a01b0383169081179091556040517f9439fd4044a7a9da5dc12ba69cff9b7e91dcbc73cd8f170d7cecb1339d59c55290600090a250565b6003546001600160a01b031633146103365760405162461bcd60e51b815260206004820181905260248201527f52657075746174696f6e3a2063616c6c6572206973206e6f7420657363726f7760448201526064015b60405180910390fd5b6001600160a01b038116600090815260026020526040902080546001908290600890610373908490600160401b90046001600160401b03166109ca565b92506101000a8154816001600160401b0302191690836001600160401b03160217905550428160010160006101000a8154816001600160401b0302191690836001600160401b03160217905550600560016000846001600160a01b03166001600160a01b03168152602001908152602001600020541115610422576001600160a01b03821660009081526001602052604081208054600592906104179084906109f1565b9091555061043c9050565b6001600160a01b0382166000908152600160205260408120555b61044582610875565b6001600160a01b038216600081815260016020526040908190205490517f5a94a7fc849b0343b33ab475562ffe76b196279b3587690acc4ebd292b111807916104c791859091825280546001600160401b038082166020850152604082811c821690850152608091821c60608501526001909201549091169082015260a00190565b60405180910390a25050565b6104db610848565b6104e560006108fc565b565b6104ef610848565b600380546001600160a01b0319166001600160a01b0383169081179091556040517f43ab431641dd45dd0661cad4b820e826d7c526af92e3121e1242d721f82ab3ad90600090a250565b6003546001600160a01b031633146105935760405162461bcd60e51b815260206004820181905260248201527f52657075746174696f6e3a2063616c6c6572206973206e6f7420657363726f77604482015260640161032d565b6001600160a01b0382166000908152600260205260408120805490916001918391906105c99084906001600160401b03166109ca565b92506101000a8154816001600160401b0302191690836001600160401b031602179055506001600160801b0380168211156106515760405162461bcd60e51b815260206004820152602260248201527f52657075746174696f6e3a207061796f757420657863656564732075696e7431604482015261064760f31b606482015260840161032d565b80546001600160801b0390610670908490600160801b90048316610a0a565b11156106be5760405162461bcd60e51b815260206004820181905260248201527f52657075746174696f6e3a20746f74616c4561726e6564206f766572666c6f77604482015260640161032d565b8054829082906010906106e2908490600160801b90046001600160801b0316610a1d565b82546101009290920a6001600160801b038181021990931691909216919091021790555060018101805467ffffffffffffffff1916426001600160401b03161790556000610733620f424084610a3d565b61073e90600a610a0a565b6001600160a01b03851660009081526001602052604081208054929350839290919061076b908490610a0a565b9091555061077a905084610875565b6001600160a01b038416600081815260016020526040908190205490517f5a94a7fc849b0343b33ab475562ffe76b196279b3587690acc4ebd292b111807916107fc91869091825280546001600160401b038082166020850152604082811c821690850152608091821c60608501526001909201549091169082015260a00190565b60405180910390a250505050565b610812610848565b6001600160a01b03811661083c57604051631e4fbdf760e01b81526000600482015260240161032d565b610845816108fc565b50565b6000546001600160a01b031633146104e55760405163118cdaa760e01b815233600482015260240161032d565b6004546001600160a01b03161561084557600480546001600160a01b0383811660008181526001602052604090819020549051630c780a3960e21b815294850191909152602484015216906331e028e490604401600060405180830381600087803b1580156108e357600080fd5b505af19250505080156108f4575060015b156108455750565b600080546001600160a01b038381166001600160a01b0319831681178455604051919092169283917f8be0079c531659141344cd1fd0a4f28419497f9722a3daafe3b4186f6b6457e09190a35050565b80356001600160a01b038116811461096357600080fd5b919050565b60006020828403121561097a57600080fd5b6109838261094c565b9392505050565b6000806040838503121561099d57600080fd5b6109a68361094c565b946020939093013593505050565b634e487b7160e01b600052601160045260246000fd5b6001600160401b038181168382160190808211156109ea576109ea6109b4565b5092915050565b81810381811115610a0457610a046109b4565b92915050565b80820180821115610a0457610a046109b4565b6001600160801b038181168382160190808211156109ea576109ea6109b4565b600082610a5a57634e487b7160e01b600052601260045260246000fd5b50049056fea2646970667358221220d7e083c6948c5e940a011f45be2f5e535db42b21b7c175f19fad7828fcc7f10064736f6c63430008180033","opcodes":"PUSH1 0x80 PUSH1 0x40 MSTORE CALLVALUE DUP1 ISZERO PUSH2 0x10 JUMPI PUSH1 0x0 DUP1 REVERT JUMPDEST POP PUSH1 0x40 MLOAD PUSH2 0xB92 CODESIZE SUB DUP1 PUSH2 0xB92 DUP4 CODECOPY DUP2 ADD PUSH1 0x40 DUP2 SWAP1 MSTORE PUSH2 0x2F SWAP2 PUSH2 0xBE JUMP JUMPDEST DUP1 PUSH1 0x1 PUSH1 0x1 PUSH1 0xA0 SHL SUB DUP2 AND PUSH2 0x5E JUMPI PUSH1 0x40 MLOAD PUSH4 0x1E4FBDF7 PUSH1 0xE0 SHL DUP2 MSTORE PUSH1 0x0 PUSH1 0x4 DUP3 ADD MSTORE PUSH1 0x24 ADD PUSH1 0x40 MLOAD DUP1 SWAP2 SUB SWAP1 REVERT JUMPDEST PUSH2 0x67 DUP2 PUSH2 0x6E JUMP JUMPDEST POP POP PUSH2 0xEE JUMP JUMPDEST PUSH1 0x0 DUP1 SLOAD PUSH1 0x1 PUSH1 0x1 PUSH1 0xA0 SHL SUB DUP4 DUP2 AND PUSH1 0x1 PUSH1 0x1 PUSH1 0xA0 SHL SUB NOT DUP4 AND DUP2 OR DUP5 SSTORE PUSH1 0x40 MLOAD SWAP2 SWAP1 SWAP3 AND SWAP3 DUP4 SWAP2 PUSH32 0x8BE0079C531659141344CD1FD0A4F28419497F9722A3DAAFE3B4186F6B6457E0 SWAP2 SWAP1 LOG3 POP POP JUMP JUMPDEST PUSH1 0x0 PUSH1 0x20 DUP3 DUP5 SUB SLT ISZERO PUSH2 0xD0 JUMPI PUSH1 0x0 DUP1 REVERT JUMPDEST DUP2 MLOAD PUSH1 0x1 PUSH1 0x1 PUSH1 0xA0 SHL SUB DUP2 AND DUP2 EQ PUSH2 0xE7 JUMPI PUSH1 0x0 DUP1 REVERT JUMPDEST SWAP4 SWAP3 POP POP POP JUMP JUMPDEST PUSH2 0xA95 DUP1 PUSH2 0xFD PUSH1 0x0 CODECOPY PUSH1 0x0 RETURN INVALID PUSH1 0x80 PUSH1 0x40 MSTORE CALLVALUE DUP1 ISZERO PUSH2 0x10 JUMPI PUSH1 0x0 DUP1 REVERT JUMPDEST POP PUSH1 0x4 CALLDATASIZE LT PUSH2 0xA9 JUMPI PUSH1 0x0 CALLDATALOAD PUSH1 0xE0 SHR DUP1 PUSH4 0x715018A6 GT PUSH2 0x71 JUMPI DUP1 PUSH4 0x715018A6 EQ PUSH2 0x220 JUMPI DUP1 PUSH4 0x8DA5CB5B EQ PUSH2 0x228 JUMPI DUP1 PUSH4 0xC10C3546 EQ PUSH2 0x239 JUMPI DUP1 PUSH4 0xE2FDCC17 EQ PUSH2 0x24C JUMPI DUP1 PUSH4 0xE37457BE EQ PUSH2 0x25F JUMPI DUP1 PUSH4 0xF2FDE38B EQ PUSH2 0x272 JUMPI PUSH1 0x0 DUP1 REVERT JUMPDEST DUP1 PUSH4 0xD1CFCAE EQ PUSH2 0xAE JUMPI DUP1 PUSH4 0x133AF456 EQ PUSH2 0xDE JUMPI DUP1 PUSH4 0x15CFC405 EQ PUSH2 0x115 JUMPI DUP1 PUSH4 0x28342ECF EQ PUSH2 0x1F8 JUMPI DUP1 PUSH4 0x2CAAFD3E EQ PUSH2 0x20D JUMPI JUMPDEST PUSH1 0x0 DUP1 REVERT JUMPDEST PUSH1 0x4 SLOAD PUSH2 0xC1 SWAP1 PUSH1 0x1 PUSH1 0x1 PUSH1 0xA0 SHL SUB AND DUP2 JUMP JUMPDEST PUSH1 0x40 MLOAD PUSH1 0x1 PUSH1 0x1 PUSH1 0xA0 SHL SUB SWAP1 SWAP2 AND DUP2 MSTORE PUSH1 0x20 ADD JUMPDEST PUSH1 0x40 MLOAD DUP1 SWAP2 SUB SWAP1 RETURN JUMPDEST PUSH2 0x107 PUSH2 0xEC CALLDATASIZE PUSH1 0x4 PUSH2 0x968 JUMP JUMPDEST PUSH1 0x1 PUSH1 0x1 PUSH1 0xA0 SHL SUB AND PUSH1 0x0 SWAP1 DUP2 MSTORE PUSH1 0x1 PUSH1 0x20 MSTORE PUSH1 0x40 SWAP1 KECCAK256 SLOAD SWAP1 JUMP JUMPDEST PUSH1 0x40 MLOAD SWAP1 DUP2 MSTORE PUSH1 0x20 ADD PUSH2 0xD5 JUMP JUMPDEST PUSH2 0x1AE PUSH2 0x123 CALLDATASIZE PUSH1 0x4 PUSH2 0x968 JUMP JUMPDEST PUSH1 0x40 DUP1 MLOAD PUSH1 0x80 DUP2 ADD DUP3 MSTORE PUSH1 0x0 DUP1 DUP3 MSTORE PUSH1 0x20 DUP3 ADD DUP2 SWAP1 MSTORE SWAP2 DUP2 ADD DUP3 SWAP1 MSTORE PUSH1 0x60 DUP2 ADD SWAP2 SWAP1 SWAP2 MSTORE POP PUSH1 0x1 PUSH1 0x1 PUSH1 0xA0 SHL SUB AND PUSH1 0x0 SWAP1 DUP2 MSTORE PUSH1 0x2 PUSH1 0x20 SWAP1 DUP2 MSTORE PUSH1 0x40 SWAP2 DUP3 SWAP1 KECCAK256 DUP3 MLOAD PUSH1 0x80 DUP2 ADD DUP5 MSTORE DUP2 SLOAD PUSH1 0x1 PUSH1 0x1 PUSH1 0x40 SHL SUB DUP1 DUP3 AND DUP4 MSTORE PUSH1 0x1 PUSH1 0x40 SHL DUP3 DIV DUP2 AND SWAP5 DUP4 ADD SWAP5 SWAP1 SWAP5 MSTORE PUSH1 0x1 PUSH1 0x80 SHL SWAP1 DIV PUSH1 0x1 PUSH1 0x1 PUSH1 0x80 SHL SUB AND SWAP4 DUP2 ADD SWAP4 SWAP1 SWAP4 MSTORE PUSH1 0x1 ADD SLOAD AND PUSH1 0x60 DUP3 ADD MSTORE SWAP1 JUMP JUMPDEST PUSH1 0x40 MLOAD PUSH2 0xD5 SWAP2 SWAP1 DUP2 MLOAD PUSH1 0x1 PUSH1 0x1 PUSH1 0x40 SHL SUB SWAP1 DUP2 AND DUP3 MSTORE PUSH1 0x20 DUP1 DUP5 ADD MLOAD DUP3 AND SWAP1 DUP4 ADD MSTORE PUSH1 0x40 DUP1 DUP5 ADD MLOAD PUSH1 0x1 PUSH1 0x1 PUSH1 0x80 SHL SUB AND SWAP1 DUP4 ADD MSTORE PUSH1 0x60 SWAP3 DUP4 ADD MLOAD AND SWAP2 DUP2 ADD SWAP2 SWAP1 SWAP2 MSTORE PUSH1 0x80 ADD SWAP1 JUMP JUMPDEST PUSH2 0x20B PUSH2 0x206 CALLDATASIZE PUSH1 0x4 PUSH2 0x968 JUMP JUMPDEST PUSH2 0x285 JUMP JUMPDEST STOP JUMPDEST PUSH2 0x20B PUSH2 0x21B CALLDATASIZE PUSH1 0x4 PUSH2 0x968 JUMP JUMPDEST PUSH2 0x2D7 JUMP JUMPDEST PUSH2 0x20B PUSH2 0x4D3 JUMP JUMPDEST PUSH1 0x0 SLOAD PUSH1 0x1 PUSH1 0x1 PUSH1 0xA0 SHL SUB AND PUSH2 0xC1 JUMP JUMPDEST PUSH2 0x20B PUSH2 0x247 CALLDATASIZE PUSH1 0x4 PUSH2 0x968 JUMP JUMPDEST PUSH2 0x4E7 JUMP JUMPDEST PUSH1 0x3 SLOAD PUSH2 0xC1 SWAP1 PUSH1 0x1 PUSH1 0x1 PUSH1 0xA0 SHL SUB AND DUP2 JUMP JUMPDEST PUSH2 0x20B PUSH2 0x26D CALLDATASIZE PUSH1 0x4 PUSH2 0x98A JUMP JUMPDEST PUSH2 0x539 JUMP JUMPDEST PUSH2 0x20B PUSH2 0x280 CALLDATASIZE PUSH1 0x4 PUSH2 0x968 JUMP JUMPDEST PUSH2 0x80A JUMP JUMPDEST PUSH2 0x28D PUSH2 0x848 JUMP JUMPDEST PUSH1 0x4 DUP1 SLOAD PUSH1 0x1 PUSH1 0x1 PUSH1 0xA0 SHL SUB NOT AND PUSH1 0x1 PUSH1 0x1 PUSH1 0xA0 SHL SUB DUP4 AND SWAP1 DUP2 OR SWAP1 SWAP2 SSTORE PUSH1 0x40 MLOAD PUSH32 0x9439FD4044A7A9DA5DC12BA69CFF9B7E91DCBC73CD8F170D7CECB1339D59C552 SWAP1 PUSH1 0x0 SWAP1 LOG2 POP JUMP JUMPDEST PUSH1 0x3 SLOAD PUSH1 0x1 PUSH1 0x1 PUSH1 0xA0 SHL SUB AND CALLER EQ PUSH2 0x336 JUMPI PUSH1 0x40 MLOAD PUSH3 0x461BCD PUSH1 0xE5 SHL DUP2 MSTORE PUSH1 0x20 PUSH1 0x4 DUP3 ADD DUP2 SWAP1 MSTORE PUSH1 0x24 DUP3 ADD MSTORE PUSH32 0x52657075746174696F6E3A2063616C6C6572206973206E6F7420657363726F77 PUSH1 0x44 DUP3 ADD MSTORE PUSH1 0x64 ADD JUMPDEST PUSH1 0x40 MLOAD DUP1 SWAP2 SUB SWAP1 REVERT JUMPDEST PUSH1 0x1 PUSH1 0x1 PUSH1 0xA0 SHL SUB DUP2 AND PUSH1 0x0 SWAP1 DUP2 MSTORE PUSH1 0x2 PUSH1 0x20 MSTORE PUSH1 0x40 SWAP1 KECCAK256 DUP1 SLOAD PUSH1 0x1 SWAP1 DUP3 SWAP1 PUSH1 0x8 SWAP1 PUSH2 0x373 SWAP1 DUP5 SWAP1 PUSH1 0x1 PUSH1 0x40 SHL SWAP1 DIV PUSH1 0x1 PUSH1 0x1 PUSH1 0x40 SHL SUB AND PUSH2 0x9CA JUMP JUMPDEST SWAP3 POP PUSH2 0x100 EXP DUP2 SLOAD DUP2 PUSH1 0x1 PUSH1 0x1 PUSH1 0x40 SHL SUB MUL NOT AND SWAP1 DUP4 PUSH1 0x1 PUSH1 0x1 PUSH1 0x40 SHL SUB AND MUL OR SWAP1 SSTORE POP TIMESTAMP DUP2 PUSH1 0x1 ADD PUSH1 0x0 PUSH2 0x100 EXP DUP2 SLOAD DUP2 PUSH1 0x1 PUSH1 0x1 PUSH1 0x40 SHL SUB MUL NOT AND SWAP1 DUP4 PUSH1 0x1 PUSH1 0x1 PUSH1 0x40 SHL SUB AND MUL OR SWAP1 SSTORE POP PUSH1 0x5 PUSH1 0x1 PUSH1 0x0 DUP5 PUSH1 0x1 PUSH1 0x1 PUSH1 0xA0 SHL SUB AND PUSH1 0x1 PUSH1 0x1 PUSH1 0xA0 SHL SUB AND DUP2 MSTORE PUSH1 0x20 ADD SWAP1 DUP2 MSTORE PUSH1 0x20 ADD PUSH1 0x0 KECCAK256 SLOAD GT ISZERO PUSH2 0x422 JUMPI PUSH1 0x1 PUSH1 0x1 PUSH1 0xA0 SHL SUB DUP3 AND PUSH1 0x0 SWAP1 DUP2 MSTORE PUSH1 0x1 PUSH1 0x20 MSTORE PUSH1 0x40 DUP2 KECCAK256 DUP1 SLOAD PUSH1 0x5 SWAP3 SWAP1 PUSH2 0x417 SWAP1 DUP5 SWAP1 PUSH2 0x9F1 JUMP JUMPDEST SWAP1 SWAP2 SSTORE POP PUSH2 0x43C SWAP1 POP JUMP JUMPDEST PUSH1 0x1 PUSH1 0x1 PUSH1 0xA0 SHL SUB DUP3 AND PUSH1 0x0 SWAP1 DUP2 MSTORE PUSH1 0x1 PUSH1 0x20 MSTORE PUSH1 0x40 DUP2 KECCAK256 SSTORE JUMPDEST PUSH2 0x445 DUP3 PUSH2 0x875 JUMP JUMPDEST PUSH1 0x1 PUSH1 0x1 PUSH1 0xA0 SHL SUB DUP3 AND PUSH1 0x0 DUP2 DUP2 MSTORE PUSH1 0x1 PUSH1 0x20 MSTORE PUSH1 0x40 SWAP1 DUP2 SWAP1 KECCAK256 SLOAD SWAP1 MLOAD PUSH32 0x5A94A7FC849B0343B33AB475562FFE76B196279B3587690ACC4EBD292B111807 SWAP2 PUSH2 0x4C7 SWAP2 DUP6 SWAP1 SWAP2 DUP3 MSTORE DUP1 SLOAD PUSH1 0x1 PUSH1 0x1 PUSH1 0x40 SHL SUB DUP1 DUP3 AND PUSH1 0x20 DUP6 ADD MSTORE PUSH1 0x40 DUP3 DUP2 SHR DUP3 AND SWAP1 DUP6 ADD MSTORE PUSH1 0x80 SWAP2 DUP3 SHR PUSH1 0x60 DUP6 ADD MSTORE PUSH1 0x1 SWAP1 SWAP3 ADD SLOAD SWAP1 SWAP2 AND SWAP1 DUP3 ADD MSTORE PUSH1 0xA0 ADD SWAP1 JUMP JUMPDEST PUSH1 0x40 MLOAD DUP1 SWAP2 SUB SWAP1 LOG2 POP POP JUMP JUMPDEST PUSH2 0x4DB PUSH2 0x848 JUMP JUMPDEST PUSH2 0x4E5 PUSH1 0x0 PUSH2 0x8FC JUMP JUMPDEST JUMP JUMPDEST PUSH2 0x4EF PUSH2 0x848 JUMP JUMPDEST PUSH1 0x3 DUP1 SLOAD PUSH1 0x1 PUSH1 0x1 PUSH1 0xA0 SHL SUB NOT AND PUSH1 0x1 PUSH1 0x1 PUSH1 0xA0 SHL SUB DUP4 AND SWAP1 DUP2 OR SWAP1 SWAP2 SSTORE PUSH1 0x40 MLOAD PUSH32 0x43AB431641DD45DD0661CAD4B820E826D7C526AF92E3121E1242D721F82AB3AD SWAP1 PUSH1 0x0 SWAP1 LOG2 POP JUMP JUMPDEST PUSH1 0x3 SLOAD PUSH1 0x1 PUSH1 0x1 PUSH1 0xA0 SHL SUB AND CALLER EQ PUSH2 0x593 JUMPI PUSH1 0x40 MLOAD PUSH3 0x461BCD PUSH1 0xE5 SHL DUP2 MSTORE PUSH1 0x20 PUSH1 0x4 DUP3 ADD DUP2 SWAP1 MSTORE PUSH1 0x24 DUP3 ADD MSTORE PUSH32 0x52657075746174696F6E3A2063616C6C6572206973206E6F7420657363726F77 PUSH1 0x44 DUP3 ADD MSTORE PUSH1 0x64 ADD PUSH2 0x32D JUMP JUMPDEST PUSH1 0x1 PUSH1 0x1 PUSH1 0xA0 SHL SUB DUP3 AND PUSH1 0x0 SWAP1 DUP2 MSTORE PUSH1 0x2 PUSH1 0x20 MSTORE PUSH1 0x40 DUP2 KECCAK256 DUP1 SLOAD SWAP1 SWAP2 PUSH1 0x1 SWAP2 DUP4 SWAP2 SWAP1 PUSH2 0x5C9 SWAP1 DUP5 SWAP1 PUSH1 0x1 PUSH1 0x1 PUSH1 0x40 SHL SUB AND PUSH2 0x9CA JUMP JUMPDEST SWAP3 POP PUSH2 0x100 EXP DUP2 SLOAD DUP2 PUSH1 0x1 PUSH1 0x1 PUSH1 0x40 SHL SUB MUL NOT AND SWAP1 DUP4 PUSH1 0x1 PUSH1 0x1 PUSH1 0x40 SHL SUB AND MUL OR SWAP1 SSTORE POP PUSH1 0x1 PUSH1 0x1 PUSH1 0x80 SHL SUB DUP1 AND DUP3 GT ISZERO PUSH2 0x651 JUMPI PUSH1 0x40 MLOAD PUSH3 0x461BCD PUSH1 0xE5 SHL DUP2 MSTORE PUSH1 0x20 PUSH1 0x4 DUP3 ADD MSTORE PUSH1 0x22 PUSH1 0x24 DUP3 ADD MSTORE PUSH32 0x52657075746174696F6E3A207061796F757420657863656564732075696E7431 PUSH1 0x44 DUP3 ADD MSTORE PUSH2 0x647 PUSH1 0xF3 SHL PUSH1 0x64 DUP3 ADD MSTORE PUSH1 0x84 ADD PUSH2 0x32D JUMP JUMPDEST DUP1 SLOAD PUSH1 0x1 PUSH1 0x1 PUSH1 0x80 SHL SUB SWAP1 PUSH2 0x670 SWAP1 DUP5 SWAP1 PUSH1 0x1 PUSH1 0x80 SHL SWAP1 DIV DUP4 AND PUSH2 0xA0A JUMP JUMPDEST GT ISZERO PUSH2 0x6BE JUMPI PUSH1 0x40 MLOAD PUSH3 0x461BCD PUSH1 0xE5 SHL DUP2 MSTORE PUSH1 0x20 PUSH1 0x4 DUP3 ADD DUP2 SWAP1 MSTORE PUSH1 0x24 DUP3 ADD MSTORE PUSH32 0x52657075746174696F6E3A20746F74616C4561726E6564206F766572666C6F77 PUSH1 0x44 DUP3 ADD MSTORE PUSH1 0x64 ADD PUSH2 0x32D JUMP JUMPDEST DUP1 SLOAD DUP3 SWAP1 DUP3 SWAP1 PUSH1 0x10 SWAP1 PUSH2 0x6E2 SWAP1 DUP5 SWAP1 PUSH1 0x1 PUSH1 0x80 SHL SWAP1 DIV PUSH1 0x1 PUSH1 0x1 PUSH1 0x80 SHL SUB AND PUSH2 0xA1D JUMP JUMPDEST DUP3 SLOAD PUSH2 0x100 SWAP3 SWAP1 SWAP3 EXP PUSH1 0x1 PUSH1 0x1 PUSH1 0x80 SHL SUB DUP2 DUP2 MUL NOT SWAP1 SWAP4 AND SWAP2 SWAP1 SWAP3 AND SWAP2 SWAP1 SWAP2 MUL OR SWAP1 SSTORE POP PUSH1 0x1 DUP2 ADD DUP1 SLOAD PUSH8 0xFFFFFFFFFFFFFFFF NOT AND TIMESTAMP PUSH1 0x1 PUSH1 0x1 PUSH1 0x40 SHL SUB AND OR SWAP1 SSTORE PUSH1 0x0 PUSH2 0x733 PUSH3 0xF4240 DUP5 PUSH2 0xA3D JUMP JUMPDEST PUSH2 0x73E SWAP1 PUSH1 0xA PUSH2 0xA0A JUMP JUMPDEST PUSH1 0x1 PUSH1 0x1 PUSH1 0xA0 SHL SUB DUP6 AND PUSH1 0x0 SWAP1 DUP2 MSTORE PUSH1 0x1 PUSH1 0x20 MSTORE PUSH1 0x40 DUP2 KECCAK256 DUP1 SLOAD SWAP3 SWAP4 POP DUP4 SWAP3 SWAP1 SWAP2 SWAP1 PUSH2 0x76B SWAP1 DUP5 SWAP1 PUSH2 0xA0A JUMP JUMPDEST SWAP1 SWAP2 SSTORE POP PUSH2 0x77A SWAP1 POP DUP5 PUSH2 0x875 JUMP JUMPDEST PUSH1 0x1 PUSH1 0x1 PUSH1 0xA0 SHL SUB DUP5 AND PUSH1 0x0 DUP2 DUP2 MSTORE PUSH1 0x1 PUSH1 0x20 MSTORE PUSH1 0x40 SWAP1 DUP2 SWAP1 KECCAK256 SLOAD SWAP1 MLOAD PUSH32 0x5A94A7FC849B0343B33AB475562FFE76B196279B3587690ACC4EBD292B111807 SWAP2 PUSH2 0x7FC SWAP2 DUP7 SWAP1 SWAP2 DUP3 MSTORE DUP1 SLOAD PUSH1 0x1 PUSH1 0x1 PUSH1 0x40 SHL SUB DUP1 DUP3 AND PUSH1 0x20 DUP6 ADD MSTORE PUSH1 0x40 DUP3 DUP2 SHR DUP3 AND SWAP1 DUP6 ADD MSTORE PUSH1 0x80 SWAP2 DUP3 SHR PUSH1 0x60 DUP6 ADD MSTORE PUSH1 0x1 SWAP1 SWAP3 ADD SLOAD SWAP1 SWAP2 AND SWAP1 DUP3 ADD MSTORE PUSH1 0xA0 ADD SWAP1 JUMP JUMPDEST PUSH1 0x40 MLOAD DUP1 SWAP2 SUB SWAP1 LOG2 POP POP POP POP JUMP JUMPDEST PUSH2 0x812 PUSH2 0x848 JUMP JUMPDEST PUSH1 0x1 PUSH1 0x1 PUSH1 0xA0 SHL SUB DUP2 AND PUSH2 0x83C JUMPI PUSH1 0x40 MLOAD PUSH4 0x1E4FBDF7 PUSH1 0xE0 SHL DUP2 MSTORE PUSH1 0x0 PUSH1 0x4 DUP3 ADD MSTORE PUSH1 0x24 ADD PUSH2 0x32D JUMP JUMPDEST PUSH2 0x845 DUP2 PUSH2 0x8FC JUMP JUMPDEST POP JUMP JUMPDEST PUSH1 0x0 SLOAD PUSH1 0x1 PUSH1 0x1 PUSH1 0xA0 SHL SUB AND CALLER EQ PUSH2 0x4E5 JUMPI PUSH1 0x40 MLOAD PUSH4 0x118CDAA7 PUSH1 0xE0 SHL DUP2 MSTORE CALLER PUSH1 0x4 DUP3 ADD MSTORE PUSH1 0x24 ADD PUSH2 0x32D JUMP JUMPDEST PUSH1 0x4 SLOAD PUSH1 0x1 PUSH1 0x1 PUSH1 0xA0 SHL SUB AND ISZERO PUSH2 0x845 JUMPI PUSH1 0x4 DUP1 SLOAD PUSH1 0x1 PUSH1 0x1 PUSH1 0xA0 SHL SUB DUP4 DUP2 AND PUSH1 0x0 DUP2 DUP2 MSTORE PUSH1 0x1 PUSH1 0x20 MSTORE PUSH1 0x40 SWAP1 DUP2 SWAP1 KECCAK256 SLOAD SWAP1 MLOAD PUSH4 0xC780A39 PUSH1 0xE2 SHL DUP2 MSTORE SWAP5 DUP6 ADD SWAP2 SWAP1 SWAP2 MSTORE PUSH1 0x24 DUP5 ADD MSTORE AND SWAP1 PUSH4 0x31E028E4 SWAP1 PUSH1 0x44 ADD PUSH1 0x0 PUSH1 0x40 MLOAD DUP1 DUP4 SUB DUP2 PUSH1 0x0 DUP8 DUP1 EXTCODESIZE ISZERO DUP1 ISZERO PUSH2 0x8E3 JUMPI PUSH1 0x0 DUP1 REVERT JUMPDEST POP GAS CALL SWAP3 POP POP POP DUP1 ISZERO PUSH2 0x8F4 JUMPI POP PUSH1 0x1 JUMPDEST ISZERO PUSH2 0x845 JUMPI POP JUMP JUMPDEST PUSH1 0x0 DUP1 SLOAD PUSH1 0x1 PUSH1 0x1 PUSH1 0xA0 SHL SUB DUP4 DUP2 AND PUSH1 0x1 PUSH1 0x1 PUSH1 0xA0 SHL SUB NOT DUP4 AND DUP2 OR DUP5 SSTORE PUSH1 0x40 MLOAD SWAP2 SWAP1 SWAP3 AND SWAP3 DUP4 SWAP2 PUSH32 0x8BE0079C531659141344CD1FD0A4F28419497F9722A3DAAFE3B4186F6B6457E0 SWAP2 SWAP1 LOG3 POP POP JUMP JUMPDEST DUP1 CALLDATALOAD PUSH1 0x1 PUSH1 0x1 PUSH1 0xA0 SHL SUB DUP2 AND DUP2 EQ PUSH2 0x963 JUMPI PUSH1 0x0 DUP1 REVERT JUMPDEST SWAP2 SWAP1 POP JUMP JUMPDEST PUSH1 0x0 PUSH1 0x20 DUP3 DUP5 SUB SLT ISZERO PUSH2 0x97A JUMPI PUSH1 0x0 DUP1 REVERT JUMPDEST PUSH2 0x983 DUP3 PUSH2 0x94C JUMP JUMPDEST SWAP4 SWAP3 POP POP POP JUMP JUMPDEST PUSH1 0x0 DUP1 PUSH1 0x40 DUP4 DUP6 SUB SLT ISZERO PUSH2 0x99D JUMPI PUSH1 0x0 DUP1 REVERT JUMPDEST PUSH2 0x9A6 DUP4 PUSH2 0x94C JUMP JUMPDEST SWAP5 PUSH1 0x20 SWAP4 SWAP1 SWAP4 ADD CALLDATALOAD SWAP4 POP POP POP JUMP JUMPDEST PUSH4 0x4E487B71 PUSH1 0xE0 SHL PUSH1 0x0 MSTORE PUSH1 0x11 PUSH1 0x4 MSTORE PUSH1 0x24 PUSH1 0x0 REVERT JUMPDEST PUSH1 0x1 PUSH1 0x1 PUSH1 0x40 SHL SUB DUP2 DUP2 AND DUP4 DUP3 AND ADD SWAP1 DUP1 DUP3 GT ISZERO PUSH2 0x9EA JUMPI PUSH2 0x9EA PUSH2 0x9B4 JUMP JUMPDEST POP SWAP3 SWAP2 POP POP JUMP JUMPDEST DUP2 DUP2 SUB DUP2 DUP2 GT ISZERO PUSH2 0xA04 JUMPI PUSH2 0xA04 PUSH2 0x9B4 JUMP JUMPDEST SWAP3 SWAP2 POP POP JUMP JUMPDEST DUP1 DUP3 ADD DUP1 DUP3 GT ISZERO PUSH2 0xA04 JUMPI PUSH2 0xA04 PUSH2 0x9B4 JUMP JUMPDEST PUSH1 0x1 PUSH1 0x1 PUSH1 0x80 SHL SUB DUP2 DUP2 AND DUP4 DUP3 AND ADD SWAP1 DUP1 DUP3 GT ISZERO PUSH2 0x9EA JUMPI PUSH2 0x9EA PUSH2 0x9B4 JUMP JUMPDEST PUSH1 0x0 DUP3 PUSH2 0xA5A JUMPI PUSH4 0x4E487B71 PUSH1 0xE0 SHL PUSH1 0x0 MSTORE PUSH1 0x12 PUSH1 0x4 MSTORE PUSH1 0x24 PUSH1 0x0 REVERT JUMPDEST POP DIV SWAP1 JUMP INVALID LOG2 PUSH5 0x6970667358 0x22 SLT KECCAK256 0xD7 0xE0 DUP4 0xC6 SWAP5 DUP13 MCOPY SWAP5 EXP ADD 0x1F GASLIMIT 0xBE 0x2F MCOPY MSTORE8 TSTORE 0xB4 0x2B 0x21 0xB7 0xC1 PUSH22 0xF19FAD7828FCC7F10064736F6C634300081800330000 "},"methodIdentifiers":{"agentRegistry()":"0d1cfcae","escrow()":"e2fdcc17","owner()":"8da5cb5b","recordFailure(address)":"2caafd3e","recordSuccess(address,uint256)":"e37457be","renounceOwnership()":"715018a6","scoreOf(address)":"133af456","setAgentRegistry(address)":"28342ecf","setEscrow(address)":"c10c3546","statsOf(address)":"15cfc405","transferOwnership(address)":"f2fde38b"}}}}}