{"contracts/Escrow.sol":{"Escrow":{"abi":[{"inputs":[{"internalType":"address","name":"initialOwner","type":"address"},{"internalType":"address","name":"usdcToken","type":"address"},{"internalType":"address","name":"feeCollector_","type":"address"}],"stateMutability":"nonpayable","type":"constructor"},{"inputs":[{"internalType":"address","name":"owner","type":"address"}],"name":"OwnableInvalidOwner","type":"error"},{"inputs":[{"internalType":"address","name":"account","type":"address"}],"name":"OwnableUnauthorizedAccount","type":"error"},{"inputs":[],"name":"ReentrancyGuardReentrantCall","type":"error"},{"inputs":[{"internalType":"address","name":"token","type":"address"}],"name":"SafeERC20FailedOperation","type":"error"},{"anonymous":false,"inputs":[{"indexed":true,"internalType":"uint256","name":"jobId","type":"uint256"}],"name":"DeliveryConfirmed","type":"event"},{"anonymous":false,"inputs":[{"indexed":true,"internalType":"uint256","name":"jobId","type":"uint256"},{"indexed":true,"internalType":"address","name":"poster","type":"address"},{"indexed":true,"internalType":"address","name":"provider","type":"address"},{"indexed":false,"internalType":"uint256","name":"amount","type":"uint256"}],"name":"EscrowFunded","type":"event"},{"anonymous":false,"inputs":[{"indexed":true,"internalType":"address","name":"previousOwner","type":"address"},{"indexed":true,"internalType":"address","name":"newOwner","type":"address"}],"name":"OwnershipTransferred","type":"event"},{"anonymous":false,"inputs":[{"indexed":true,"internalType":"uint256","name":"jobId","type":"uint256"},{"indexed":true,"internalType":"address","name":"poster","type":"address"},{"indexed":false,"internalType":"uint256","name":"amount","type":"uint256"}],"name":"PaymentRefunded","type":"event"},{"anonymous":false,"inputs":[{"indexed":true,"internalType":"uint256","name":"jobId","type":"uint256"},{"indexed":true,"internalType":"address","name":"provider","type":"address"},{"indexed":false,"internalType":"uint256","name":"payout","type":"uint256"},{"indexed":false,"internalType":"uint256","name":"fee","type":"uint256"}],"name":"PaymentReleased","type":"event"},{"inputs":[{"internalType":"uint256","name":"jobId","type":"uint256"}],"name":"confirmDelivery","outputs":[],"stateMutability":"nonpayable","type":"function"},{"inputs":[{"internalType":"uint256","name":"","type":"uint256"}],"name":"deliveryConfirmed","outputs":[{"internalType":"bool","name":"","type":"bool"}],"stateMutability":"view","type":"function"},{"inputs":[{"internalType":"uint256","name":"","type":"uint256"}],"name":"deposits","outputs":[{"internalType":"address","name":"poster","type":"address"},{"internalType":"address","name":"provider","type":"address"},{"internalType":"uint256","name":"amount","type":"uint256"},{"internalType":"bool","name":"funded","type":"bool"},{"internalType":"bool","name":"released","type":"bool"},{"internalType":"bool","name":"refunded","type":"bool"}],"stateMutability":"view","type":"function"},{"inputs":[],"name":"feeCollector","outputs":[{"internalType":"address","name":"","type":"address"}],"stateMutability":"view","type":"function"},{"inputs":[{"internalType":"uint256","name":"jobId","type":"uint256"},{"internalType":"address","name":"provider","type":"address"},{"internalType":"uint256","name":"amount","type":"uint256"}],"name":"fundJob","outputs":[],"stateMutability":"nonpayable","type":"function"},{"inputs":[{"internalType":"uint256","name":"jobId","type":"uint256"}],"name":"getDeposit","outputs":[{"components":[{"internalType":"address","name":"poster","type":"address"},{"internalType":"address","name":"provider","type":"address"},{"internalType":"uint256","name":"amount","type":"uint256"},{"internalType":"bool","name":"funded","type":"bool"},{"internalType":"bool","name":"released","type":"bool"},{"internalType":"bool","name":"refunded","type":"bool"}],"internalType":"struct Escrow.Deposit","name":"","type":"tuple"}],"stateMutability":"view","type":"function"},{"inputs":[{"internalType":"uint256","name":"jobId","type":"uint256"}],"name":"isDeliveryConfirmed","outputs":[{"internalType":"bool","name":"","type":"bool"}],"stateMutability":"view","type":"function"},{"inputs":[],"name":"orderBook","outputs":[{"internalType":"contract IOrderBook","name":"","type":"address"}],"stateMutability":"view","type":"function"},{"inputs":[],"name":"owner","outputs":[{"internalType":"address","name":"","type":"address"}],"stateMutability":"view","type":"function"},{"inputs":[],"name":"platformFeeBps","outputs":[{"internalType":"uint96","name":"","type":"uint96"}],"stateMutability":"view","type":"function"},{"inputs":[{"internalType":"uint256","name":"jobId","type":"uint256"}],"name":"refund","outputs":[],"stateMutability":"nonpayable","type":"function"},{"inputs":[{"internalType":"uint256","name":"jobId","type":"uint256"}],"name":"releaseToProvider","outputs":[],"stateMutability":"nonpayable","type":"function"},{"inputs":[],"name":"renounceOwnership","outputs":[],"stateMutability":"nonpayable","type":"function"},{"inputs":[{"internalType":"address","name":"collector","type":"address"},{"internalType":"uint96","name":"bps","type":"uint96"}],"name":"setFeeCollector","outputs":[],"stateMutability":"nonpayable","type":"function"},{"inputs":[{"internalType":"address","name":"ob","type":"address"}],"name":"setOrderBook","outputs":[],"stateMutability":"nonpayable","type":"function"},{"inputs":[{"internalType":"address","name":"newOwner","type":"address"}],"name":"transferOwnership","outputs":[],"stateMutability":"nonpayable","type":"function"},{"inputs":[],"name":"usdc","outputs":[{"internalType":"contract IERC20","name":"","type":"address"}],"stateMutability":"view","type":"function"}],"evm":{"bytecode":{"linkReferences":{},"object":"60a060405234801561001057600080fd5b5060405161108d38038061108d83398101604081905261002f916100f6565b826001600160a01b03811661005e57604051631e4fbdf760e01b81526000600482015260240160405180910390fd5b6100678161008a565b50600180556001600160a01b0391821660805216601960a31b1760055550610139565b600080546001600160a01b038381166001600160a01b0319831681178455604051919092169283917f8be0079c531659141344cd1fd0a4f28419497f9722a3daafe3b4186f6b6457e09190a35050565b80516001600160a01b03811681146100f157600080fd5b919050565b60008060006060848603121561010b57600080fd5b610114846100da565b9250610122602085016100da565b9150610130604085016100da565b90509250925092565b608051610f1d610170600039600081816101ba015281816106a5015281816106e10152818161088a0152610aff0152610f1d6000f3fe608060405234801561001057600080fd5b506004361061010b5760003560e01c8063776af5ba116100a2578063b02c43d011610071578063b02c43d014610363578063c415b95c146103fb578063f2fde38b1461040e578063f7fd0e4f14610421578063fd84cb971461043457600080fd5b8063776af5ba1461021f5780638da5cb5b146102325780639a1598c8146102435780639f9fb9681461025657600080fd5b806337433cf1116100de57806337433cf1146101825780633e413bee146101b5578063580788ad146101f4578063715018a61461021757600080fd5b80631c8add891461011057806322dcd13e14610125578063278ecde11461015c578063329dc1031461016f575b600080fd5b61012361011e366004610db0565b610447565b005b60055461013f90600160a01b90046001600160601b031681565b6040516001600160601b0390911681526020015b60405180910390f35b61012361016a366004610db0565b6107d3565b61012361017d366004610de5565b61090f565b6101a5610190366004610db0565b60009081526003602052604090205460ff1690565b6040519015158152602001610153565b6101dc7f000000000000000000000000000000000000000000000000000000000000000081565b6040516001600160a01b039091168152602001610153565b6101a5610202366004610db0565b60036020526000908152604090205460ff1681565b610123610989565b6004546101dc906001600160a01b031681565b6000546001600160a01b03166101dc565b610123610251366004610e28565b61099d565b610308610264366004610db0565b6040805160c081018252600080825260208201819052918101829052606081018290526080810182905260a081019190915250600090815260026020818152604092839020835160c08101855281546001600160a01b0390811682526001830154169281019290925291820154928101929092526003015460ff8082161515606084015261010082048116151560808401526201000090910416151560a082015290565b604051610153919081516001600160a01b039081168252602080840151909116908201526040808301519082015260608083015115159082015260808083015115159082015260a09182015115159181019190915260c00190565b6103bd610371366004610db0565b600260208190526000918252604090912080546001820154928201546003909201546001600160a01b0391821693909116919060ff808216916101008104821691620100009091041686565b604080516001600160a01b039788168152969095166020870152938501929092521515606084015215156080830152151560a082015260c001610153565b6005546101dc906001600160a01b031681565b61012361041c366004610e28565b6109c7565b61012361042f366004610e4a565b610a02565b610123610442366004610db0565b610baa565b61044f610bf5565b6000818152600260205260409020600381015460ff166104ab5760405162461bcd60e51b8152602060048201526012602482015271115cd8dc9bddce881b9bdd08199d5b99195960721b60448201526064015b60405180910390fd5b6003810154610100900460ff16156105055760405162461bcd60e51b815260206004820152601860248201527f457363726f773a20616c72656164792072656c6561736564000000000000000060448201526064016104a2565b600381015462010000900460ff16156105535760405162461bcd60e51b815260206004820152601060248201526f115cd8dc9bddce881c99599d5b99195960821b60448201526064016104a2565b60008281526003602052604090205460ff166105b15760405162461bcd60e51b815260206004820152601e60248201527f457363726f773a2064656c6976657279206e6f7420636f6e6669726d6564000060448201526064016104a2565b80546001600160a01b03163314806105d5575060018101546001600160a01b031633145b61061a5760405162461bcd60e51b8152602060048201526016602482015275115cd8dc9bddce881b9bdd08185d5d1a1bdc9a5cd95960521b60448201526064016104a2565b60038101805461ff001916610100179055600554600282015460009161271091610655916001600160601b03600160a01b9091041690610e95565b61065f9190610eb2565b905060008183600201546106739190610ed4565b905060008211801561068f57506005546001600160a01b031615155b156106ce576005546106ce906001600160a01b037f00000000000000000000000000000000000000000000000000000000000000008116911684610c1f565b600183015461070a906001600160a01b037f00000000000000000000000000000000000000000000000000000000000000008116911683610c1f565b6004546001600160a01b031615610778576004805460405163257c413b60e21b81529182018690526001600160a01b0316906395f104ec90602401600060405180830381600087803b15801561075f57600080fd5b505af1158015610773573d6000803e3d6000fd5b505050505b600183015460408051838152602081018590526001600160a01b039092169186917f8cdc8dc08e54a4e57f52077ecf1b4c508758513439cae2aa325dcc85b922fca8910160405180910390a35050506107d060018055565b50565b6107db610bf5565b6107e3610c83565b6000818152600260205260409020600381015460ff16801561080f57506003810154610100900460ff16155b80156108265750600381015462010000900460ff16155b61086a5760405162461bcd60e51b8152602060048201526015602482015274457363726f773a20696e76616c696420737461746560581b60448201526064016104a2565b60038101805462ff0000191662010000179055805460028201546108bd917f00000000000000000000000000000000000000000000000000000000000000006001600160a01b0390811692911690610c1f565b805460028201546040519081526001600160a01b039091169083907fe89ec1881a76229445bcd179b8c4b24f9edc7ddd87d07fb3b19c67ae9c6e27cc9060200160405180910390a3506107d060018055565b610917610c83565b6103e8816001600160601b031611156109695760405162461bcd60e51b815260206004820152601460248201527308ae6c6e4deee7440cccaca40e8dede40d0d2ced60631b60448201526064016104a2565b6001600160601b0316600160a01b026001600160a01b0390911617600555565b610991610c83565b61099b6000610cb0565b565b6109a5610c83565b600480546001600160a01b0319166001600160a01b0392909216919091179055565b6109cf610c83565b6001600160a01b0381166109f957604051631e4fbdf760e01b8152600060048201526024016104a2565b6107d081610cb0565b6000838152600260205260409020600381015460ff1615610a5e5760405162461bcd60e51b8152602060048201526016602482015275115cd8dc9bddce88185b1c9958591e48199d5b99195960521b60448201526064016104a2565b60008211610aa45760405162461bcd60e51b8152602060048201526013602482015272115cd8dc9bddce881e995c9bc8185b5bdd5b9d606a1b60448201526064016104a2565b6001600160a01b038316610af25760405162461bcd60e51b815260206004820152601560248201527422b9b1b937bb9d103d32b93790383937bb34b232b960591b60448201526064016104a2565b610b276001600160a01b037f000000000000000000000000000000000000000000000000000000000000000016333085610d00565b80546001600160a01b0319908116339081178355600180840180546001600160a01b0388169416841790556002840185905560038401805460ff1916909117905560405186907f1736617f8b9029b421ccc471ca8a99395f5d8a1cb348be9fcbfd64cceee7252f90610b9c9087815260200190565b60405180910390a450505050565b610bb2610c83565b600081815260036020526040808220805460ff191660011790555182917f375b4005eeae25d0e37d56e1b3841d3bb394b277efa2548de3293f5dcb7a349391a250565b600260015403610c1857604051633ee5aeb560e01b815260040160405180910390fd5b6002600155565b6040516001600160a01b03838116602483015260448201839052610c7e91859182169063a9059cbb906064015b604051602081830303815290604052915060e01b6020820180516001600160e01b038381831617835250505050610d3f565b505050565b6000546001600160a01b0316331461099b5760405163118cdaa760e01b81523360048201526024016104a2565b600080546001600160a01b038381166001600160a01b0319831681178455604051919092169283917f8be0079c531659141344cd1fd0a4f28419497f9722a3daafe3b4186f6b6457e09190a35050565b6040516001600160a01b038481166024830152838116604483015260648201839052610d399186918216906323b872dd90608401610c4c565b50505050565b600080602060008451602086016000885af180610d62576040513d6000823e3d81fd5b50506000513d91508115610d7a578060011415610d87565b6001600160a01b0384163b155b15610d3957604051635274afe760e01b81526001600160a01b03851660048201526024016104a2565b600060208284031215610dc257600080fd5b5035919050565b80356001600160a01b0381168114610de057600080fd5b919050565b60008060408385031215610df857600080fd5b610e0183610dc9565b915060208301356001600160601b0381168114610e1d57600080fd5b809150509250929050565b600060208284031215610e3a57600080fd5b610e4382610dc9565b9392505050565b600080600060608486031215610e5f57600080fd5b83359250610e6f60208501610dc9565b9150604084013590509250925092565b634e487b7160e01b600052601160045260246000fd5b8082028115828204841417610eac57610eac610e7f565b92915050565b600082610ecf57634e487b7160e01b600052601260045260246000fd5b500490565b81810381811115610eac57610eac610e7f56fea264697066735822122055bdec67197363044eca383c7fe9d364bbf355e260865f4bae864ff3f70c84c964736f6c63430008180033","opcodes":"PUSH1 0xA0 PUSH1 0x40 MSTORE CALLVALUE DUP1 ISZERO PUSH2 0x10 JUMPI PUSH1 0x0 DUP1 REVERT JUMPDEST POP PUSH1 0x40 MLOAD PUSH2 0x108D CODESIZE SUB DUP1 PUSH2 0x108D DUP4 CODECOPY DUP2 ADD PUSH1 0x40 DUP2 SWAP1 MSTORE PUSH2 0x2F SWAP2 PUSH2 0xF6 JUMP JUMPDEST DUP3 PUSH1 0x1 PUSH1 0x1 PUSH1 0xA0 SHL SUB DUP2 AND PUSH2 0x5E JUMPI PUSH1 0x40 MLOAD PUSH4 0x1E4FBDF7 PUSH1 0xE0 SHL DUP2 MSTORE PUSH1 0x0 PUSH1 0x4 DUP3 ADD MSTORE PUSH1 0x24 ADD PUSH1 0x40 MLOAD DUP1 SWAP2 SUB SWAP1 REVERT JUMPDEST PUSH2 0x67 DUP2 PUSH2 0x8A JUMP JUMPDEST POP PUSH1 0x1 DUP1 SSTORE PUSH1 0x1 PUSH1 0x1 PUSH1 0xA0 SHL SUB SWAP2 DUP3 AND PUSH1 0x80 MSTORE AND PUSH1 0x19 PUSH1 0xA3 SHL OR PUSH1 0x5 SSTORE POP PUSH2 0x139 JUMP JUMPDEST PUSH1 0x0 DUP1 SLOAD PUSH1 0x1 PUSH1 0x1 PUSH1 0xA0 SHL SUB DUP4 DUP2 AND PUSH1 0x1 PUSH1 0x1 PUSH1 0xA0 SHL SUB NOT DUP4 AND DUP2 OR DUP5 SSTORE PUSH1 0x40 MLOAD SWAP2 SWAP1 SWAP3 AND SWAP3 DUP4 SWAP2 PUSH32 0x8BE0079C531659141344CD1FD0A4F28419497F9722A3DAAFE3B4186F6B6457E0 SWAP2 SWAP1 LOG3 POP POP JUMP JUMPDEST DUP1 MLOAD PUSH1 0x1 PUSH1 0x1 PUSH1 0xA0 SHL SUB DUP2 AND DUP2 EQ PUSH2 0xF1 JUMPI PUSH1 0x0 DUP1 REVERT JUMPDEST SWAP2 SWAP1 POP JUMP JUMPDEST PUSH1 0x0 DUP1 PUSH1 0x0 PUSH1 0x60 DUP5 DUP7 SUB SLT ISZERO PUSH2 0x10B JUMPI PUSH1 0x0 DUP1 REVERT JUMPDEST PUSH2 0x114 DUP5 PUSH2 0xDA JUMP JUMPDEST SWAP3 POP PUSH2 0x122 PUSH1 0x20 DUP6 ADD PUSH2 0xDA JUMP JUMPDEST SWAP2 POP PUSH2 0x130 PUSH1 0x40 DUP6 ADD PUSH2 0xDA JUMP JUMPDEST SWAP1 POP SWAP3 POP SWAP3 POP SWAP3 JUMP JUMPDEST PUSH1 0x80 MLOAD PUSH2 0xF1D PUSH2 0x170 PUSH1 0x0 CODECOPY PUSH1 0x0 DUP2 DUP2 PUSH2 0x1BA ADD MSTORE DUP2 DUP2 PUSH2 0x6A5 ADD MSTORE DUP2 DUP2 PUSH2 0x6E1 ADD MSTORE DUP2 DUP2 PUSH2 0x88A ADD MSTORE PUSH2 0xAFF ADD MSTORE PUSH2 0xF1D PUSH1 0x0 RETURN INVALID PUSH1 0x80 PUSH1 0x40 MSTORE CALLVALUE DUP1 ISZERO PUSH2 0x10 JUMPI PUSH1 0x0 DUP1 REVERT JUMPDEST POP PUSH1 0x4 CALLDATASIZE LT PUSH2 0x10B JUMPI PUSH1 0x0 CALLDATALOAD PUSH1 0xE0 SHR DUP1 PUSH4 0x776AF5BA GT PUSH2 0xA2 JUMPI DUP1 PUSH4 0xB02C43D0 GT PUSH2 0x71 JUMPI DUP1 PUSH4 0xB02C43D0 EQ PUSH2 0x363 JUMPI DUP1 PUSH4 0xC415B95C EQ PUSH2 0x3FB JUMPI DUP1 PUSH4 0xF2FDE38B EQ PUSH2 0x40E JUMPI DUP1 PUSH4 0xF7FD0E4F EQ PUSH2 0x421 JUMPI DUP1 PUSH4 0xFD84CB97 EQ PUSH2 0x434 JUMPI PUSH1 0x0 DUP1 REVERT JUMPDEST DUP1 PUSH4 0x776AF5BA EQ PUSH2 0x21F JUMPI DUP1 PUSH4 0x8DA5CB5B EQ PUSH2 0x232 JUMPI DUP1 PUSH4 0x9A1598C8 EQ PUSH2 0x243 JUMPI DUP1 PUSH4 0x9F9FB968 EQ PUSH2 0x256 JUMPI PUSH1 0x0 DUP1 REVERT JUMPDEST DUP1 PUSH4 0x37433CF1 GT PUSH2 0xDE JUMPI DUP1 PUSH4 0x37433CF1 EQ PUSH2 0x182 JUMPI DUP1 PUSH4 0x3E413BEE EQ PUSH2 0x1B5 JUMPI DUP1 PUSH4 0x580788AD EQ PUSH2 0x1F4 JUMPI DUP1 PUSH4 0x715018A6 EQ PUSH2 0x217 JUMPI PUSH1 0x0 DUP1 REVERT JUMPDEST DUP1 PUSH4 0x1C8ADD89 EQ PUSH2 0x110 JUMPI DUP1 PUSH4 0x22DCD13E EQ PUSH2 0x125 JUMPI DUP1 PUSH4 0x278ECDE1 EQ PUSH2 0x15C JUMPI DUP1 PUSH4 0x329DC103 EQ PUSH2 0x16F JUMPI JUMPDEST PUSH1 0x0 DUP1 REVERT JUMPDEST PUSH2 0x123 PUSH2 0x11E CALLDATASIZE PUSH1 0x4 PUSH2 0xDB0 JUMP JUMPDEST PUSH2 0x447 JUMP JUMPDEST STOP JUMPDEST PUSH1 0x5 SLOAD PUSH2 0x13F SWAP1 PUSH1 0x1 PUSH1 0xA0 SHL SWAP1 DIV PUSH1 0x1 PUSH1 0x1 PUSH1 0x60 SHL SUB AND DUP2 JUMP JUMPDEST PUSH1 0x40 MLOAD PUSH1 0x1 PUSH1 0x1 PUSH1 0x60 SHL SUB SWAP1 SWAP2 AND DUP2 MSTORE PUSH1 0x20 ADD JUMPDEST PUSH1 0x40 MLOAD DUP1 SWAP2 SUB SWAP1 RETURN JUMPDEST PUSH2 0x123 PUSH2 0x16A CALLDATASIZE PUSH1 0x4 PUSH2 0xDB0 JUMP JUMPDEST PUSH2 0x7D3 JUMP JUMPDEST PUSH2 0x123 PUSH2 0x17D CALLDATASIZE PUSH1 0x4 PUSH2 0xDE5 JUMP JUMPDEST PUSH2 0x90F JUMP JUMPDEST PUSH2 0x1A5 PUSH2 0x190 CALLDATASIZE PUSH1 0x4 PUSH2 0xDB0 JUMP JUMPDEST PUSH1 0x0 SWAP1 DUP2 MSTORE PUSH1 0x3 PUSH1 0x20 MSTORE PUSH1 0x40 SWAP1 KECCAK256 SLOAD PUSH1 0xFF AND SWAP1 JUMP JUMPDEST PUSH1 0x40 MLOAD SWAP1 ISZERO ISZERO DUP2 MSTORE PUSH1 0x20 ADD PUSH2 0x153 JUMP JUMPDEST PUSH2 0x1DC PUSH32 0x0 DUP2 JUMP JUMPDEST PUSH1 0x40 MLOAD PUSH1 0x1 PUSH1 0x1 PUSH1 0xA0 SHL SUB SWAP1 SWAP2 AND DUP2 MSTORE PUSH1 0x20 ADD PUSH2 0x153 JUMP JUMPDEST PUSH2 0x1A5 PUSH2 0x202 CALLDATASIZE PUSH1 0x4 PUSH2 0xDB0 JUMP JUMPDEST PUSH1 0x3 PUSH1 0x20 MSTORE PUSH1 0x0 SWAP1 DUP2 MSTORE PUSH1 0x40 SWAP1 KECCAK256 SLOAD PUSH1 0xFF AND DUP2 JUMP JUMPDEST PUSH2 0x123 PUSH2 0x989 JUMP JUMPDEST PUSH1 0x4 SLOAD PUSH2 0x1DC SWAP1 PUSH1 0x1 PUSH1 0x1 PUSH1 0xA0 SHL SUB AND DUP2 JUMP JUMPDEST PUSH1 0x0 SLOAD PUSH1 0x1 PUSH1 0x1 PUSH1 0xA0 SHL SUB AND PUSH2 0x1DC JUMP JUMPDEST PUSH2 0x123 PUSH2 0x251 CALLDATASIZE PUSH1 0x4 PUSH2 0xE28 JUMP JUMPDEST PUSH2 0x99D JUMP JUMPDEST PUSH2 0x308 PUSH2 0x264 CALLDATASIZE PUSH1 0x4 PUSH2 0xDB0 JUMP JUMPDEST PUSH1 0x40 DUP1 MLOAD PUSH1 0xC0 DUP2 ADD DUP3 MSTORE PUSH1 0x0 DUP1 DUP3 MSTORE PUSH1 0x20 DUP3 ADD DUP2 SWAP1 MSTORE SWAP2 DUP2 ADD DUP3 SWAP1 MSTORE PUSH1 0x60 DUP2 ADD DUP3 SWAP1 MSTORE PUSH1 0x80 DUP2 ADD DUP3 SWAP1 MSTORE PUSH1 0xA0 DUP2 ADD SWAP2 SWAP1 SWAP2 MSTORE POP PUSH1 0x0 SWAP1 DUP2 MSTORE PUSH1 0x2 PUSH1 0x20 DUP2 DUP2 MSTORE PUSH1 0x40 SWAP3 DUP4 SWAP1 KECCAK256 DUP4 MLOAD PUSH1 0xC0 DUP2 ADD DUP6 MSTORE DUP2 SLOAD PUSH1 0x1 PUSH1 0x1 PUSH1 0xA0 SHL SUB SWAP1 DUP2 AND DUP3 MSTORE PUSH1 0x1 DUP4 ADD SLOAD AND SWAP3 DUP2 ADD SWAP3 SWAP1 SWAP3 MSTORE SWAP2 DUP3 ADD SLOAD SWAP3 DUP2 ADD SWAP3 SWAP1 SWAP3 MSTORE PUSH1 0x3 ADD SLOAD PUSH1 0xFF DUP1 DUP3 AND ISZERO ISZERO PUSH1 0x60 DUP5 ADD MSTORE PUSH2 0x100 DUP3 DIV DUP2 AND ISZERO ISZERO PUSH1 0x80 DUP5 ADD MSTORE PUSH3 0x10000 SWAP1 SWAP2 DIV AND ISZERO ISZERO PUSH1 0xA0 DUP3 ADD MSTORE SWAP1 JUMP JUMPDEST PUSH1 0x40 MLOAD PUSH2 0x153 SWAP2 SWAP1 DUP2 MLOAD PUSH1 0x1 PUSH1 0x1 PUSH1 0xA0 SHL SUB SWAP1 DUP2 AND DUP3 MSTORE PUSH1 0x20 DUP1 DUP5 ADD MLOAD SWAP1 SWAP2 AND SWAP1 DUP3 ADD MSTORE PUSH1 0x40 DUP1 DUP4 ADD MLOAD SWAP1 DUP3 ADD MSTORE PUSH1 0x60 DUP1 DUP4 ADD MLOAD ISZERO ISZERO SWAP1 DUP3 ADD MSTORE PUSH1 0x80 DUP1 DUP4 ADD MLOAD ISZERO ISZERO SWAP1 DUP3 ADD MSTORE PUSH1 0xA0 SWAP2 DUP3 ADD MLOAD ISZERO ISZERO SWAP2 DUP2 ADD SWAP2 SWAP1 SWAP2 MSTORE PUSH1 0xC0 ADD SWAP1 JUMP JUMPDEST PUSH2 0x3BD PUSH2 0x371 CALLDATASIZE PUSH1 0x4 PUSH2 0xDB0 JUMP JUMPDEST PUSH1 0x2 PUSH1 0x20 DUP2 SWAP1 MSTORE PUSH1 0x0 SWAP2 DUP3 MSTORE PUSH1 0x40 SWAP1 SWAP2 KECCAK256 DUP1 SLOAD PUSH1 0x1 DUP3 ADD SLOAD SWAP3 DUP3 ADD SLOAD PUSH1 0x3 SWAP1 SWAP3 ADD SLOAD PUSH1 0x1 PUSH1 0x1 PUSH1 0xA0 SHL SUB SWAP2 DUP3 AND SWAP4 SWAP1 SWAP2 AND SWAP2 SWAP1 PUSH1 0xFF DUP1 DUP3 AND SWAP2 PUSH2 0x100 DUP2 DIV DUP3 AND SWAP2 PUSH3 0x10000 SWAP1 SWAP2 DIV AND DUP7 JUMP JUMPDEST PUSH1 0x40 DUP1 MLOAD PUSH1 0x1 PUSH1 0x1 PUSH1 0xA0 SHL SUB SWAP8 DUP9 AND DUP2 MSTORE SWAP7 SWAP1 SWAP6 AND PUSH1 0x20 DUP8 ADD MSTORE SWAP4 DUP6 ADD SWAP3 SWAP1 SWAP3 MSTORE ISZERO ISZERO PUSH1 0x60 DUP5 ADD MSTORE ISZERO ISZERO PUSH1 0x80 DUP4 ADD MSTORE ISZERO ISZERO PUSH1 0xA0 DUP3 ADD MSTORE PUSH1 0xC0 ADD PUSH2 0x153 JUMP JUMPDEST PUSH1 0x5 SLOAD PUSH2 0x1DC SWAP1 PUSH1 0x1 PUSH1 0x1 PUSH1 0xA0 SHL SUB AND DUP2 JUMP JUMPDEST PUSH2 0x123 PUSH2 0x41C CALLDATASIZE PUSH1 0x4 PUSH2 0xE28 JUMP JUMPDEST PUSH2 0x9C7 JUMP JUMPDEST PUSH2 0x123 PUSH2 0x42F CALLDATASIZE PUSH1 0x4 PUSH2 0xE4A JUMP JUMPDEST PUSH2 0xA02 JUMP JUMPDEST PUSH2 0x123 PUSH2 0x442 CALLDATASIZE PUSH1 0x4 PUSH2 0xDB0 JUMP JUMPDEST PUSH2 0xBAA JUMP JUMPDEST PUSH2 0x44F PUSH2 0xBF5 JUMP JUMPDEST PUSH1 0x0 DUP2 DUP2 MSTORE PUSH1 0x2 PUSH1 0x20 MSTORE PUSH1 0x40 SWAP1 KECCAK256 PUSH1 0x3 DUP2 ADD SLOAD PUSH1 0xFF AND PUSH2 0x4AB JUMPI PUSH1 0x40 MLOAD PUSH3 0x461BCD PUSH1 0xE5 SHL DUP2 MSTORE PUSH1 0x20 PUSH1 0x4 DUP3 ADD MSTORE PUSH1 0x12 PUSH1 0x24 DUP3 ADD MSTORE PUSH18 0x115CD8DC9BDDCE881B9BDD08199D5B991959 PUSH1 0x72 SHL PUSH1 0x44 DUP3 ADD MSTORE PUSH1 0x64 ADD JUMPDEST PUSH1 0x40 MLOAD DUP1 SWAP2 SUB SWAP1 REVERT JUMPDEST PUSH1 0x3 DUP2 ADD SLOAD PUSH2 0x100 SWAP1 DIV PUSH1 0xFF AND ISZERO PUSH2 0x505 JUMPI PUSH1 0x40 MLOAD PUSH3 0x461BCD PUSH1 0xE5 SHL DUP2 MSTORE PUSH1 0x20 PUSH1 0x4 DUP3 ADD MSTORE PUSH1 0x18 PUSH1 0x24 DUP3 ADD MSTORE PUSH32 0x457363726F773A20616C72656164792072656C65617365640000000000000000 PUSH1 0x44 DUP3 ADD MSTORE PUSH1 0x64 ADD PUSH2 0x4A2 JUMP JUMPDEST PUSH1 0x3 DUP2 ADD SLOAD PUSH3 0x10000 SWAP1 DIV PUSH1 0xFF AND ISZERO PUSH2 0x553 JUMPI PUSH1 0x40 MLOAD PUSH3 0x461BCD PUSH1 0xE5 SHL DUP2 MSTORE PUSH1 0x20 PUSH1 0x4 DUP3 ADD MSTORE PUSH1 0x10 PUSH1 0x24 DUP3 ADD MSTORE PUSH16 0x115CD8DC9BDDCE881C99599D5B991959 PUSH1 0x82 SHL PUSH1 0x44 DUP3 ADD MSTORE PUSH1 0x64 ADD PUSH2 0x4A2 JUMP JUMPDEST PUSH1 0x0 DUP3 DUP2 MSTORE PUSH1 0x3 PUSH1 0x20 MSTORE PUSH1 0x40 SWAP1 KECCAK256 SLOAD PUSH1 0xFF AND PUSH2 0x5B1 JUMPI PUSH1 0x40 MLOAD PUSH3 0x461BCD PUSH1 0xE5 SHL DUP2 MSTORE PUSH1 0x20 PUSH1 0x4 DUP3 ADD MSTORE PUSH1 0x1E PUSH1 0x24 DUP3 ADD MSTORE PUSH32 0x457363726F773A2064656C6976657279206E6F7420636F6E6669726D65640000 PUSH1 0x44 DUP3 ADD MSTORE PUSH1 0x64 ADD PUSH2 0x4A2 JUMP JUMPDEST DUP1 SLOAD PUSH1 0x1 PUSH1 0x1 PUSH1 0xA0 SHL SUB AND CALLER EQ DUP1 PUSH2 0x5D5 JUMPI POP PUSH1 0x1 DUP2 ADD SLOAD PUSH1 0x1 PUSH1 0x1 PUSH1 0xA0 SHL SUB AND CALLER EQ JUMPDEST PUSH2 0x61A JUMPI PUSH1 0x40 MLOAD PUSH3 0x461BCD PUSH1 0xE5 SHL DUP2 MSTORE PUSH1 0x20 PUSH1 0x4 DUP3 ADD MSTORE PUSH1 0x16 PUSH1 0x24 DUP3 ADD MSTORE PUSH22 0x115CD8DC9BDDCE881B9BDD08185D5D1A1BDC9A5CD959 PUSH1 0x52 SHL PUSH1 0x44 DUP3 ADD MSTORE PUSH1 0x64 ADD PUSH2 0x4A2 JUMP JUMPDEST PUSH1 0x3 DUP2 ADD DUP1 SLOAD PUSH2 0xFF00 NOT AND PUSH2 0x100 OR SWAP1 SSTORE PUSH1 0x5 SLOAD PUSH1 0x2 DUP3 ADD SLOAD PUSH1 0x0 SWAP2 PUSH2 0x2710 SWAP2 PUSH2 0x655 SWAP2 PUSH1 0x1 PUSH1 0x1 PUSH1 0x60 SHL SUB PUSH1 0x1 PUSH1 0xA0 SHL SWAP1 SWAP2 DIV AND SWAP1 PUSH2 0xE95 JUMP JUMPDEST PUSH2 0x65F SWAP2 SWAP1 PUSH2 0xEB2 JUMP JUMPDEST SWAP1 POP PUSH1 0x0 DUP2 DUP4 PUSH1 0x2 ADD SLOAD PUSH2 0x673 SWAP2 SWAP1 PUSH2 0xED4 JUMP JUMPDEST SWAP1 POP PUSH1 0x0 DUP3 GT DUP1 ISZERO PUSH2 0x68F JUMPI POP PUSH1 0x5 SLOAD PUSH1 0x1 PUSH1 0x1 PUSH1 0xA0 SHL SUB AND ISZERO ISZERO JUMPDEST ISZERO PUSH2 0x6CE JUMPI PUSH1 0x5 SLOAD PUSH2 0x6CE SWAP1 PUSH1 0x1 PUSH1 0x1 PUSH1 0xA0 SHL SUB PUSH32 0x0 DUP2 AND SWAP2 AND DUP5 PUSH2 0xC1F JUMP JUMPDEST PUSH1 0x1 DUP4 ADD SLOAD PUSH2 0x70A SWAP1 PUSH1 0x1 PUSH1 0x1 PUSH1 0xA0 SHL SUB PUSH32 0x0 DUP2 AND SWAP2 AND DUP4 PUSH2 0xC1F JUMP JUMPDEST PUSH1 0x4 SLOAD PUSH1 0x1 PUSH1 0x1 PUSH1 0xA0 SHL SUB AND ISZERO PUSH2 0x778 JUMPI PUSH1 0x4 DUP1 SLOAD PUSH1 0x40 MLOAD PUSH4 0x257C413B PUSH1 0xE2 SHL DUP2 MSTORE SWAP2 DUP3 ADD DUP7 SWAP1 MSTORE PUSH1 0x1 PUSH1 0x1 PUSH1 0xA0 SHL SUB AND SWAP1 PUSH4 0x95F104EC SWAP1 PUSH1 0x24 ADD PUSH1 0x0 PUSH1 0x40 MLOAD DUP1 DUP4 SUB DUP2 PUSH1 0x0 DUP8 DUP1 EXTCODESIZE ISZERO DUP1 ISZERO PUSH2 0x75F JUMPI PUSH1 0x0 DUP1 REVERT JUMPDEST POP GAS CALL ISZERO DUP1 ISZERO PUSH2 0x773 JUMPI RETURNDATASIZE PUSH1 0x0 DUP1 RETURNDATACOPY RETURNDATASIZE PUSH1 0x0 REVERT JUMPDEST POP POP POP POP JUMPDEST PUSH1 0x1 DUP4 ADD SLOAD PUSH1 0x40 DUP1 MLOAD DUP4 DUP2 MSTORE PUSH1 0x20 DUP2 ADD DUP6 SWAP1 MSTORE PUSH1 0x1 PUSH1 0x1 PUSH1 0xA0 SHL SUB SWAP1 SWAP3 AND SWAP2 DUP7 SWAP2 PUSH32 0x8CDC8DC08E54A4E57F52077ECF1B4C508758513439CAE2AA325DCC85B922FCA8 SWAP2 ADD PUSH1 0x40 MLOAD DUP1 SWAP2 SUB SWAP1 LOG3 POP POP POP PUSH2 0x7D0 PUSH1 0x1 DUP1 SSTORE JUMP JUMPDEST POP JUMP JUMPDEST PUSH2 0x7DB PUSH2 0xBF5 JUMP JUMPDEST PUSH2 0x7E3 PUSH2 0xC83 JUMP JUMPDEST PUSH1 0x0 DUP2 DUP2 MSTORE PUSH1 0x2 PUSH1 0x20 MSTORE PUSH1 0x40 SWAP1 KECCAK256 PUSH1 0x3 DUP2 ADD SLOAD PUSH1 0xFF AND DUP1 ISZERO PUSH2 0x80F JUMPI POP PUSH1 0x3 DUP2 ADD SLOAD PUSH2 0x100 SWAP1 DIV PUSH1 0xFF AND ISZERO JUMPDEST DUP1 ISZERO PUSH2 0x826 JUMPI POP PUSH1 0x3 DUP2 ADD SLOAD PUSH3 0x10000 SWAP1 DIV PUSH1 0xFF AND ISZERO JUMPDEST PUSH2 0x86A JUMPI PUSH1 0x40 MLOAD PUSH3 0x461BCD PUSH1 0xE5 SHL DUP2 MSTORE PUSH1 0x20 PUSH1 0x4 DUP3 ADD MSTORE PUSH1 0x15 PUSH1 0x24 DUP3 ADD MSTORE PUSH21 0x457363726F773A20696E76616C6964207374617465 PUSH1 0x58 SHL PUSH1 0x44 DUP3 ADD MSTORE PUSH1 0x64 ADD PUSH2 0x4A2 JUMP JUMPDEST PUSH1 0x3 DUP2 ADD DUP1 SLOAD PUSH3 0xFF0000 NOT AND PUSH3 0x10000 OR SWAP1 SSTORE DUP1 SLOAD PUSH1 0x2 DUP3 ADD SLOAD PUSH2 0x8BD SWAP2 PUSH32 0x0 PUSH1 0x1 PUSH1 0x1 PUSH1 0xA0 SHL SUB SWAP1 DUP2 AND SWAP3 SWAP2 AND SWAP1 PUSH2 0xC1F JUMP JUMPDEST DUP1 SLOAD PUSH1 0x2 DUP3 ADD SLOAD PUSH1 0x40 MLOAD SWAP1 DUP2 MSTORE PUSH1 0x1 PUSH1 0x1 PUSH1 0xA0 SHL SUB SWAP1 SWAP2 AND SWAP1 DUP4 SWAP1 PUSH32 0xE89EC1881A76229445BCD179B8C4B24F9EDC7DDD87D07FB3B19C67AE9C6E27CC SWAP1 PUSH1 0x20 ADD PUSH1 0x40 MLOAD DUP1 SWAP2 SUB SWAP1 LOG3 POP PUSH2 0x7D0 PUSH1 0x1 DUP1 SSTORE JUMP JUMPDEST PUSH2 0x917 PUSH2 0xC83 JUMP JUMPDEST PUSH2 0x3E8 DUP2 PUSH1 0x1 PUSH1 0x1 PUSH1 0x60 SHL SUB AND GT ISZERO PUSH2 0x969 JUMPI PUSH1 0x40 MLOAD PUSH3 0x461BCD PUSH1 0xE5 SHL DUP2 MSTORE PUSH1 0x20 PUSH1 0x4 DUP3 ADD MSTORE PUSH1 0x14 PUSH1 0x24 DUP3 ADD MSTORE PUSH20 0x8AE6C6E4DEEE7440CCCACA40E8DEDE40D0D2CED PUSH1 0x63 SHL PUSH1 0x44 DUP3 ADD MSTORE PUSH1 0x64 ADD PUSH2 0x4A2 JUMP JUMPDEST PUSH1 0x1 PUSH1 0x1 PUSH1 0x60 SHL SUB AND PUSH1 0x1 PUSH1 0xA0 SHL MUL PUSH1 0x1 PUSH1 0x1 PUSH1 0xA0 SHL SUB SWAP1 SWAP2 AND OR PUSH1 0x5 SSTORE JUMP JUMPDEST PUSH2 0x991 PUSH2 0xC83 JUMP JUMPDEST PUSH2 0x99B PUSH1 0x0 PUSH2 0xCB0 JUMP JUMPDEST JUMP JUMPDEST PUSH2 0x9A5 PUSH2 0xC83 JUMP JUMPDEST PUSH1 0x4 DUP1 SLOAD PUSH1 0x1 PUSH1 0x1 PUSH1 0xA0 SHL SUB NOT AND PUSH1 0x1 PUSH1 0x1 PUSH1 0xA0 SHL SUB SWAP3 SWAP1 SWAP3 AND SWAP2 SWAP1 SWAP2 OR SWAP1 SSTORE JUMP JUMPDEST PUSH2 0x9CF PUSH2 0xC83 JUMP JUMPDEST PUSH1 0x1 PUSH1 0x1 PUSH1 0xA0 SHL SUB DUP2 AND PUSH2 0x9F9 JUMPI PUSH1 0x40 MLOAD PUSH4 0x1E4FBDF7 PUSH1 0xE0 SHL DUP2 MSTORE PUSH1 0x0 PUSH1 0x4 DUP3 ADD MSTORE PUSH1 0x24 ADD PUSH2 0x4A2 JUMP JUMPDEST PUSH2 0x7D0 DUP2 PUSH2 0xCB0 JUMP JUMPDEST PUSH1 0x0 DUP4 DUP2 MSTORE PUSH1 0x2 PUSH1 0x20 MSTORE PUSH1 0x40 SWAP1 KECCAK256 PUSH1 0x3 DUP2 ADD SLOAD PUSH1 0xFF AND ISZERO PUSH2 0xA5E JUMPI PUSH1 0x40 MLOAD PUSH3 0x461BCD PUSH1 0xE5 SHL DUP2 MSTORE PUSH1 0x20 PUSH1 0x4 DUP3 ADD MSTORE PUSH1 0x16 PUSH1 0x24 DUP3 ADD MSTORE PUSH22 0x115CD8DC9BDDCE88185B1C9958591E48199D5B991959 PUSH1 0x52 SHL PUSH1 0x44 DUP3 ADD MSTORE PUSH1 0x64 ADD PUSH2 0x4A2 JUMP JUMPDEST PUSH1 0x0 DUP3 GT PUSH2 0xAA4 JUMPI PUSH1 0x40 MLOAD PUSH3 0x461BCD PUSH1 0xE5 SHL DUP2 MSTORE PUSH1 0x20 PUSH1 0x4 DUP3 ADD MSTORE PUSH1 0x13 PUSH1 0x24 DUP3 ADD MSTORE PUSH19 0x115CD8DC9BDDCE881E995C9BC8185B5BDD5B9D PUSH1 0x6A SHL PUSH1 0x44 DUP3 ADD MSTORE PUSH1 0x64 ADD PUSH2 0x4A2 JUMP JUMPDEST PUSH1 0x1 PUSH1 0x1 PUSH1 0xA0 SHL SUB DUP4 AND PUSH2 0xAF2 JUMPI PUSH1 0x40 MLOAD PUSH3 0x461BCD PUSH1 0xE5 SHL DUP2 MSTORE PUSH1 0x20 PUSH1 0x4 DUP3 ADD MSTORE PUSH1 0x15 PUSH1 0x24 DUP3 ADD MSTORE PUSH21 0x22B9B1B937BB9D103D32B93790383937BB34B232B9 PUSH1 0x59 SHL PUSH1 0x44 DUP3 ADD MSTORE PUSH1 0x64 ADD PUSH2 0x4A2 JUMP JUMPDEST PUSH2 0xB27 PUSH1 0x1 PUSH1 0x1 PUSH1 0xA0 SHL SUB PUSH32 0x0 AND CALLER ADDRESS DUP6 PUSH2 0xD00 JUMP JUMPDEST DUP1 SLOAD PUSH1 0x1 PUSH1 0x1 PUSH1 0xA0 SHL SUB NOT SWAP1 DUP2 AND CALLER SWAP1 DUP2 OR DUP4 SSTORE PUSH1 0x1 DUP1 DUP5 ADD DUP1 SLOAD PUSH1 0x1 PUSH1 0x1 PUSH1 0xA0 SHL SUB DUP9 AND SWAP5 AND DUP5 OR SWAP1 SSTORE PUSH1 0x2 DUP5 ADD DUP6 SWAP1 SSTORE PUSH1 0x3 DUP5 ADD DUP1 SLOAD PUSH1 0xFF NOT AND SWAP1 SWAP2 OR SWAP1 SSTORE PUSH1 0x40 MLOAD DUP7 SWAP1 PUSH32 0x1736617F8B9029B421CCC471CA8A99395F5D8A1CB348BE9FCBFD64CCEEE7252F SWAP1 PUSH2 0xB9C SWAP1 DUP8 DUP2 MSTORE PUSH1 0x20 ADD SWAP1 JUMP JUMPDEST PUSH1 0x40 MLOAD DUP1 SWAP2 SUB SWAP1 LOG4 POP POP POP POP JUMP JUMPDEST PUSH2 0xBB2 PUSH2 0xC83 JUMP JUMPDEST PUSH1 0x0 DUP2 DUP2 MSTORE PUSH1 0x3 PUSH1 0x20 MSTORE PUSH1 0x40 DUP1 DUP3 KECCAK256 DUP1 SLOAD PUSH1 0xFF NOT AND PUSH1 0x1 OR SWAP1 SSTORE MLOAD DUP3 SWAP2 PUSH32 0x375B4005EEAE25D0E37D56E1B3841D3BB394B277EFA2548DE3293F5DCB7A3493 SWAP2 LOG2 POP JUMP JUMPDEST PUSH1 0x2 PUSH1 0x1 SLOAD SUB PUSH2 0xC18 JUMPI PUSH1 0x40 MLOAD PUSH4 0x3EE5AEB5 PUSH1 0xE0 SHL DUP2 MSTORE PUSH1 0x4 ADD PUSH1 0x40 MLOAD DUP1 SWAP2 SUB SWAP1 REVERT JUMPDEST PUSH1 0x2 PUSH1 0x1 SSTORE JUMP JUMPDEST PUSH1 0x40 MLOAD PUSH1 0x1 PUSH1 0x1 PUSH1 0xA0 SHL SUB DUP4 DUP2 AND PUSH1 0x24 DUP4 ADD MSTORE PUSH1 0x44 DUP3 ADD DUP4 SWAP1 MSTORE PUSH2 0xC7E SWAP2 DUP6 SWAP2 DUP3 AND SWAP1 PUSH4 0xA9059CBB SWAP1 PUSH1 0x64 ADD JUMPDEST PUSH1 0x40 MLOAD PUSH1 0x20 DUP2 DUP4 SUB SUB DUP2 MSTORE SWAP1 PUSH1 0x40 MSTORE SWAP2 POP PUSH1 0xE0 SHL PUSH1 0x20 DUP3 ADD DUP1 MLOAD PUSH1 0x1 PUSH1 0x1 PUSH1 0xE0 SHL SUB DUP4 DUP2 DUP4 AND OR DUP4 MSTORE POP POP POP POP PUSH2 0xD3F JUMP JUMPDEST POP POP POP JUMP JUMPDEST PUSH1 0x0 SLOAD PUSH1 0x1 PUSH1 0x1 PUSH1 0xA0 SHL SUB AND CALLER EQ PUSH2 0x99B JUMPI PUSH1 0x40 MLOAD PUSH4 0x118CDAA7 PUSH1 0xE0 SHL DUP2 MSTORE CALLER PUSH1 0x4 DUP3 ADD MSTORE PUSH1 0x24 ADD PUSH2 0x4A2 JUMP JUMPDEST PUSH1 0x0 DUP1 SLOAD PUSH1 0x1 PUSH1 0x1 PUSH1 0xA0 SHL SUB DUP4 DUP2 AND PUSH1 0x1 PUSH1 0x1 PUSH1 0xA0 SHL SUB NOT DUP4 AND DUP2 OR DUP5 SSTORE PUSH1 0x40 MLOAD SWAP2 SWAP1 SWAP3 AND SWAP3 DUP4 SWAP2 PUSH32 0x8BE0079C531659141344CD1FD0A4F28419497F9722A3DAAFE3B4186F6B6457E0 SWAP2 SWAP1 LOG3 POP POP JUMP JUMPDEST PUSH1 0x40 MLOAD PUSH1 0x1 PUSH1 0x1 PUSH1 0xA0 SHL SUB DUP5 DUP2 AND PUSH1 0x24 DUP4 ADD MSTORE DUP4 DUP2 AND PUSH1 0x44 DUP4 ADD MSTORE PUSH1 0x64 DUP3 ADD DUP4 SWAP1 MSTORE PUSH2 0xD39 SWAP2 DUP7 SWAP2 DUP3 AND SWAP1 PUSH4 0x23B872DD SWAP1 PUSH1 0x84 ADD PUSH2 0xC4C JUMP JUMPDEST POP POP POP POP JUMP JUMPDEST PUSH1 0x0 DUP1 PUSH1 0x20 PUSH1 0x0 DUP5 MLOAD PUSH1 0x20 DUP7 ADD PUSH1 0x0 DUP9 GAS CALL DUP1 PUSH2 0xD62 JUMPI PUSH1 0x40 MLOAD RETURNDATASIZE PUSH1 0x0 DUP3 RETURNDATACOPY RETURNDATASIZE DUP2 REVERT JUMPDEST POP POP PUSH1 0x0 MLOAD RETURNDATASIZE SWAP2 POP DUP2 ISZERO PUSH2 0xD7A JUMPI DUP1 PUSH1 0x1 EQ ISZERO PUSH2 0xD87 JUMP JUMPDEST PUSH1 0x1 PUSH1 0x1 PUSH1 0xA0 SHL SUB DUP5 AND EXTCODESIZE ISZERO JUMPDEST ISZERO PUSH2 0xD39 JUMPI PUSH1 0x40 MLOAD PUSH4 0x5274AFE7 PUSH1 0xE0 SHL DUP2 MSTORE PUSH1 0x1 PUSH1 0x1 PUSH1 0xA0 SHL SUB DUP6 AND PUSH1 0x4 DUP3 ADD MSTORE PUSH1 0x24 ADD PUSH2 0x4A2 JUMP JUMPDEST PUSH1 0x0 PUSH1 0x20 DUP3 DUP5 SUB SLT ISZERO PUSH2 0xDC2 JUMPI PUSH1 0x0 DUP1 REVERT JUMPDEST POP CALLDATALOAD SWAP2 SWAP1 POP JUMP JUMPDEST DUP1 CALLDATALOAD PUSH1 0x1 PUSH1 0x1 PUSH1 0xA0 SHL SUB DUP2 AND DUP2 EQ PUSH2 0xDE0 JUMPI PUSH1 0x0 DUP1 REVERT JUMPDEST SWAP2 SWAP1 POP JUMP JUMPDEST PUSH1 0x0 DUP1 PUSH1 0x40 DUP4 DUP6 SUB SLT ISZERO PUSH2 0xDF8 JUMPI PUSH1 0x0 DUP1 REVERT JUMPDEST PUSH2 0xE01 DUP4 PUSH2 0xDC9 JUMP JUMPDEST SWAP2 POP PUSH1 0x20 DUP4 ADD CALLDATALOAD PUSH1 0x1 PUSH1 0x1 PUSH1 0x60 SHL SUB DUP2 AND DUP2 EQ PUSH2 0xE1D JUMPI PUSH1 0x0 DUP1 REVERT JUMPDEST DUP1 SWAP2 POP POP SWAP3 POP SWAP3 SWAP1 POP JUMP JUMPDEST PUSH1 0x0 PUSH1 0x20 DUP3 DUP5 SUB SLT ISZERO PUSH2 0xE3A JUMPI PUSH1 0x0 DUP1 REVERT JUMPDEST PUSH2 0xE43 DUP3 PUSH2 0xDC9 JUMP JUMPDEST SWAP4 SWAP3 POP POP POP JUMP JUMPDEST PUSH1 0x0 DUP1 PUSH1 0x0 PUSH1 0x60 DUP5 DUP7 SUB SLT ISZERO PUSH2 0xE5F JUMPI PUSH1 0x0 DUP1 REVERT JUMPDEST DUP4 CALLDATALOAD SWAP3 POP PUSH2 0xE6F PUSH1 0x20 DUP6 ADD PUSH2 0xDC9 JUMP JUMPDEST SWAP2 POP PUSH1 0x40 DUP5 ADD CALLDATALOAD SWAP1 POP SWAP3 POP SWAP3 POP SWAP3 JUMP JUMPDEST PUSH4 0x4E487B71 PUSH1 0xE0 SHL PUSH1 0x0 MSTORE PUSH1 0x11 PUSH1 0x4 MSTORE PUSH1 0x24 PUSH1 0x0 REVERT JUMPDEST DUP1 DUP3 MUL DUP2 ISZERO DUP3 DUP3 DIV DUP5 EQ OR PUSH2 0xEAC JUMPI PUSH2 0xEAC PUSH2 0xE7F JUMP JUMPDEST SWAP3 SWAP2 POP POP JUMP JUMPDEST PUSH1 0x0 DUP3 PUSH2 0xECF JUMPI PUSH4 0x4E487B71 PUSH1 0xE0 SHL PUSH1 0x0 MSTORE PUSH1 0x12 PUSH1 0x4 MSTORE PUSH1 0x24 PUSH1 0x0 REVERT JUMPDEST POP DIV SWAP1 JUMP JUMPDEST DUP2 DUP2 SUB DUP2 DUP2 GT ISZERO PUSH2 0xEAC JUMPI PUSH2 0xEAC PUSH2 0xE7F JUMP INVALID LOG2 PUSH5 0x6970667358 0x22 SLT KECCAK256 SSTORE 0xBD 0xEC PUSH8 0x197363044ECA383C PUSH32 0xE9D364BBF355E260865F4BAE864FF3F70C84C964736F6C634300081800330000 "},"methodIdentifiers":{"confirmDelivery(uint256)":"fd84cb97","deliveryConfirmed(uint256)":"580788ad","deposits(uint256)":"b02c43d0","feeCollector()":"c415b95c","fundJob(uint256,address,uint256)":"f7fd0e4f","getDeposit(uint256)":"9f9fb968","isDeliveryConfirmed(uint256)":"37433cf1","orderBook()":"776af5ba","owner()":"8da5cb5b","platformFeeBps()":"22dcd13e","refund(uint256)":"278ecde1","releaseToProvider(uint256)":"1c8add89","renounceOwnership()":"715018a6","setFeeCollector(address,uint96)":"329dc103","setOrderBook(address)":"9a1598c8","transferOwnership(address)":"f2fde38b","usdc()":"3e413bee"}}}}}