{"contracts/Escrow.sol":{"Escrow":{"abi":[{"inputs":[{"internalType":"address","name":"initialOwner","type":"address"},{"internalType":"address","name":"usdcToken","type":"address"},{"internalType":"address","name":"feeCollector_","type":"address"}],"stateMutability":"nonpayable","type":"constructor"},{"inputs":[{"internalType":"address","name":"owner","type":"address"}],"name":"OwnableInvalidOwner","type":"error"},{"inputs":[{"internalType":"address","name":"account","type":"address"}],"name":"OwnableUnauthorizedAccount","type":"error"},{"inputs":[],"name":"ReentrancyGuardReentrantCall","type":"error"},{"inputs":[{"internalType":"address","name":"token","type":"address"}],"name":"SafeERC20FailedOperation","type":"error"},{"anonymous":false,"inputs":[{"indexed":true,"internalType":"uint256","name":"jobId","type":"uint256"}],"name":"DeliveryConfirmed","type":"event"},{"anonymous":false,"inputs":[{"indexed":true,"internalType":"uint256","name":"jobId","type":"uint256"},{"indexed":true,"internalType":"address","name":"poster","type":"address"},{"indexed":true,"internalType":"address","name":"provider","type":"address"},{"indexed":false,"internalType":"uint256","name":"amount","type":"uint256"}],"name":"EscrowFunded","type":"event"},{"anonymous":false,"inputs":[{"indexed":true,"internalType":"address","name":"previousOwner","type":"address"},{"indexed":true,"internalType":"address","name":"newOwner","type":"address"}],"name":"OwnershipTransferred","type":"event"},{"anonymous":false,"inputs":[{"indexed":true,"internalType":"uint256","name":"jobId","type":"uint256"},{"indexed":true,"internalType":"address","name":"poster","type":"address"},{"indexed":false,"internalType":"uint256","name":"amount","type":"uint256"}],"name":"PaymentRefunded","type":"event"},{"anonymous":false,"inputs":[{"indexed":true,"internalType":"uint256","name":"jobId","type":"uint256"},{"indexed":true,"internalType":"address","name":"provider","type":"address"},{"indexed":false,"internalType":"uint256","name":"payout","type":"uint256"},{"indexed":false,"internalType":"uint256","name":"fee","type":"uint256"}],"name":"PaymentReleased","type":"event"},{"inputs":[{"internalType":"uint256","name":"jobId","type":"uint256"}],"name":"confirmDelivery","outputs":[],"stateMutability":"nonpayable","type":"function"},{"inputs":[{"internalType":"uint256","name":"","type":"uint256"}],"name":"deliveryConfirmed","outputs":[{"internalType":"bool","name":"","type":"bool"}],"stateMutability":"view","type":"function"},{"inputs":[{"internalType":"uint256","name":"","type":"uint256"}],"name":"deposits","outputs":[{"internalType":"address","name":"poster","type":"address"},{"internalType":"address","name":"provider","type":"address"},{"internalType":"uint256","name":"amount","type":"uint256"},{"internalType":"bool","name":"funded","type":"bool"},{"internalType":"bool","name":"released","type":"bool"},{"internalType":"bool","name":"refunded","type":"bool"}],"stateMutability":"view","type":"function"},{"inputs":[],"name":"feeCollector","outputs":[{"internalType":"address","name":"","type":"address"}],"stateMutability":"view","type":"function"},{"inputs":[{"internalType":"uint256","name":"jobId","type":"uint256"},{"internalType":"address","name":"provider","type":"address"},{"internalType":"uint256","name":"amount","type":"uint256"}],"name":"fundJob","outputs":[],"stateMutability":"nonpayable","type":"function"},{"inputs":[{"internalType":"uint256","name":"jobId","type":"uint256"}],"name":"getDeposit","outputs":[{"components":[{"internalType":"address","name":"poster","type":"address"},{"internalType":"address","name":"provider","type":"address"},{"internalType":"uint256","name":"amount","type":"uint256"},{"internalType":"bool","name":"funded","type":"bool"},{"internalType":"bool","name":"released","type":"bool"},{"internalType":"bool","name":"refunded","type":"bool"}],"internalType":"struct Escrow.Deposit","name":"","type":"tuple"}],"stateMutability":"view","type":"function"},{"inputs":[{"internalType":"uint256","name":"jobId","type":"uint256"}],"name":"isDeliveryConfirmed","outputs":[{"internalType":"bool","name":"","type":"bool"}],"stateMutability":"view","type":"function"},{"inputs":[],"name":"orderBook","outputs":[{"internalType":"contract IOrderBook","name":"","type":"address"}],"stateMutability":"view","type":"function"},{"inputs":[],"name":"owner","outputs":[{"internalType":"address","name":"","type":"address"}],"stateMutability":"view","type":"function"},{"inputs":[],"name":"platformFeeBps","outputs":[{"internalType":"uint96","name":"","type":"uint96"}],"stateMutability":"view","type":"function"},{"inputs":[{"internalType":"uint256","name":"jobId","type":"uint256"}],"name":"refund","outputs":[],"stateMutability":"nonpayable","type":"function"},{"inputs":[{"internalType":"uint256","name":"jobId","type":"uint256"}],"name":"releaseToProvider","outputs":[],"stateMutability":"nonpayable","type":"function"},{"inputs":[],"name":"renounceOwnership","outputs":[],"stateMutability":"nonpayable","type":"function"},{"inputs":[],"name":"reputationToken","outputs":[{"internalType":"contract IReputationToken","name":"","type":"address"}],"stateMutability":"view","type":"function"},{"inputs":[{"internalType":"address","name":"collector","type":"address"},{"internalType":"uint96","name":"bps","type":"uint96"}],"name":"setFeeCollector","outputs":[],"stateMutability":"nonpayable","type":"function"},{"inputs":[{"internalType":"address","name":"ob","type":"address"}],"name":"setOrderBook","outputs":[],"stateMutability":"nonpayable","type":"function"},{"inputs":[{"internalType":"address","name":"rt","type":"address"}],"name":"setReputationToken","outputs":[],"stateMutability":"nonpayable","type":"function"},{"inputs":[{"internalType":"address","name":"newOwner","type":"address"}],"name":"transferOwnership","outputs":[],"stateMutability":"nonpayable","type":"function"},{"inputs":[],"name":"usdc","outputs":[{"internalType":"contract IERC20","name":"","type":"address"}],"stateMutability":"view","type":"function"}],"evm":{"bytecode":{"linkReferences":{},"object":"60a06040523480156200001157600080fd5b506040516200173938038062001739833981016040819052620000349162000100565b826001600160a01b0381166200006457604051631e4fbdf760e01b81526000600482015260240160405180910390fd5b6200006f8162000093565b50600180556001600160a01b0391821660805216601960a31b17600655506200014a565b600080546001600160a01b038381166001600160a01b0319831681178455604051919092169283917f8be0079c531659141344cd1fd0a4f28419497f9722a3daafe3b4186f6b6457e09190a35050565b80516001600160a01b0381168114620000fb57600080fd5b919050565b6000806000606084860312156200011657600080fd5b6200012184620000e3565b92506200013160208501620000e3565b91506200014160408501620000e3565b90509250925092565b6080516115b762000182600039600081816101fb015281816107cc0152818161080801528181610a2d0152610f8101526115b76000f3fe608060405234801561001057600080fd5b50600436106101215760003560e01c8063776af5ba116100ad578063b02c43d011610071578063b02c43d01461039f578063c415b95c14610437578063f2fde38b1461044a578063f7fd0e4f1461045d578063fd84cb971461047057600080fd5b8063776af5ba146102485780637f58a8d61461025b5780638da5cb5b1461026e5780639a1598c81461027f5780639f9fb9681461029257600080fd5b8063329dc103116100f4578063329dc103146101b057806337433cf1146101c35780633e413bee146101f6578063580788ad1461021d578063715018a61461024057600080fd5b80631c8add891461012657806322dcd13e1461013b578063275bbe9b14610172578063278ecde11461019d575b600080fd5b610139610134366004611233565b610483565b005b60065461015590600160a01b90046001600160601b031681565b6040516001600160601b0390911681526020015b60405180910390f35b600554610185906001600160a01b031681565b6040516001600160a01b039091168152602001610169565b6101396101ab366004611233565b610976565b6101396101be366004611261565b610b41565b6101e66101d1366004611233565b60009081526003602052604090205460ff1690565b6040519015158152602001610169565b6101857f000000000000000000000000000000000000000000000000000000000000000081565b6101e661022b366004611233565b60036020526000908152604090205460ff1681565b610139610bbb565b600454610185906001600160a01b031681565b6101396102693660046112a6565b610bcf565b6000546001600160a01b0316610185565b61013961028d3660046112a6565b610bf9565b6103446102a0366004611233565b6040805160c081018252600080825260208201819052918101829052606081018290526080810182905260a081019190915250600090815260026020818152604092839020835160c08101855281546001600160a01b0390811682526001830154169281019290925291820154928101929092526003015460ff8082161515606084015261010082048116151560808401526201000090910416151560a082015290565b604051610169919081516001600160a01b039081168252602080840151909116908201526040808301519082015260608083015115159082015260808083015115159082015260a09182015115159181019190915260c00190565b6103f96103ad366004611233565b600260208190526000918252604090912080546001820154928201546003909201546001600160a01b0391821693909116919060ff808216916101008104821691620100009091041686565b604080516001600160a01b039788168152969095166020870152938501929092521515606084015215156080830152151560a082015260c001610169565b600654610185906001600160a01b031681565b6101396104583660046112a6565b610c23565b61013961046b3660046112ca565b610c5e565b61013961047e366004611233565b61102d565b61048b611078565b6000818152600260205260409020600381015460ff166104e75760405162461bcd60e51b8152602060048201526012602482015271115cd8dc9bddce881b9bdd08199d5b99195960721b60448201526064015b60405180910390fd5b6003810154610100900460ff16156105415760405162461bcd60e51b815260206004820152601860248201527f457363726f773a20616c72656164792072656c6561736564000000000000000060448201526064016104de565b600381015462010000900460ff161561058f5760405162461bcd60e51b815260206004820152601060248201526f115cd8dc9bddce881c99599d5b99195960821b60448201526064016104de565b60008281526003602052604090205460ff166105ed5760405162461bcd60e51b815260206004820152601e60248201527f457363726f773a2064656c6976657279206e6f7420636f6e6669726d6564000060448201526064016104de565b80546001600160a01b0316331480610611575060018101546001600160a01b031633145b6106565760405162461bcd60e51b8152602060048201526016602482015275115cd8dc9bddce881b9bdd08185d5d1a1bdc9a5cd95960521b60448201526064016104de565b6004546001600160a01b031615610741576004805460405163bf22c45760e01b81529182018490526000916001600160a01b039091169063bf22c45790602401600060405180830381865afa1580156106b3573d6000803e3d6000fd5b505050506040513d6000823e601f3d908101601f191682016040526106db9190810190611431565b90508060c0015160ff1660021461073f5760405162461bcd60e51b815260206004820152602260248201527f457363726f773a206a6f62206e6f7420696e20636f6d706c6574656420737461604482015261746560f01b60648201526084016104de565b505b60038101805461ff00191661010017905560065460028201546000916127109161077c916001600160601b03600160a01b909104169061152f565b610786919061154c565b9050600081836002015461079a919061156e565b90506000821180156107b657506006546001600160a01b031615155b156107f5576006546107f5906001600160a01b037f000000000000000000000000000000000000000000000000000000000000000081169116846110a2565b6001830154610831906001600160a01b037f000000000000000000000000000000000000000000000000000000000000000081169116836110a2565b6004546001600160a01b03161561089f576004805460405163257c413b60e21b81529182018690526001600160a01b0316906395f104ec90602401600060405180830381600087803b15801561088657600080fd5b505af115801561089a573d6000803e3d6000fd5b505050505b6005546001600160a01b03161561091b5760055460018401546040516371ba2bdf60e11b81526001600160a01b0391821660048201526024810184905291169063e37457be90604401600060405180830381600087803b15801561090257600080fd5b505af1158015610916573d6000803e3d6000fd5b505050505b600183015460408051838152602081018590526001600160a01b039092169186917f8cdc8dc08e54a4e57f52077ecf1b4c508758513439cae2aa325dcc85b922fca8910160405180910390a350505061097360018055565b50565b61097e611078565b610986611106565b6000818152600260205260409020600381015460ff1680156109b257506003810154610100900460ff16155b80156109c95750600381015462010000900460ff16155b610a0d5760405162461bcd60e51b8152602060048201526015602482015274457363726f773a20696e76616c696420737461746560581b60448201526064016104de565b60038101805462ff000019166201000017905580546002820154610a60917f00000000000000000000000000000000000000000000000000000000000000006001600160a01b03908116929116906110a2565b6005546001600160a01b031615801590610a86575060018101546001600160a01b031615155b15610aef5760055460018201546040516316557e9f60e11b81526001600160a01b039182166004820152911690632caafd3e90602401600060405180830381600087803b158015610ad657600080fd5b505af1158015610aea573d6000803e3d6000fd5b505050505b805460028201546040519081526001600160a01b039091169083907fe89ec1881a76229445bcd179b8c4b24f9edc7ddd87d07fb3b19c67ae9c6e27cc9060200160405180910390a35061097360018055565b610b49611106565b6103e8816001600160601b03161115610b9b5760405162461bcd60e51b815260206004820152601460248201527308ae6c6e4deee7440cccaca40e8dede40d0d2ced60631b60448201526064016104de565b6001600160601b0316600160a01b026001600160a01b0390911617600655565b610bc3611106565b610bcd6000611133565b565b610bd7611106565b600580546001600160a01b0319166001600160a01b0392909216919091179055565b610c01611106565b600480546001600160a01b0319166001600160a01b0392909216919091179055565b610c2b611106565b6001600160a01b038116610c5557604051631e4fbdf760e01b8152600060048201526024016104de565b61097381611133565b6000838152600260205260409020600381015460ff1615610cba5760405162461bcd60e51b8152602060048201526016602482015275115cd8dc9bddce88185b1c9958591e48199d5b99195960521b60448201526064016104de565b60008211610d005760405162461bcd60e51b8152602060048201526013602482015272115cd8dc9bddce881e995c9bc8185b5bdd5b9d606a1b60448201526064016104de565b6001600160a01b038316610d4e5760405162461bcd60e51b815260206004820152601560248201527422b9b1b937bb9d103d32b93790383937bb34b232b960591b60448201526064016104de565b6004546001600160a01b0316610da65760405162461bcd60e51b815260206004820152601960248201527f457363726f773a204f72646572426f6f6b206e6f74207365740000000000000060448201526064016104de565b6004805460405163bf22c45760e01b81529182018690526000916001600160a01b039091169063bf22c45790602401600060405180830381865afa158015610df2573d6000803e3d6000fd5b505050506040513d6000823e601f3d908101601f19168201604052610e1a9190810190611431565b8051909150610e635760405162461bcd60e51b8152602060048201526015602482015274115cd8dc9bddce881a9bd8881b9bdd08199bdd5b99605a1b60448201526064016104de565b60208101516001600160a01b03163314610eb85760405162461bcd60e51b815260206004820152601660248201527522b9b1b937bb9d103737ba103537b1103837b9ba32b960511b60448201526064016104de565b8060c0015160ff16600114610f0f5760405162461bcd60e51b815260206004820152601860248201527f457363726f773a206a6f62206e6f742061737369676e6564000000000000000060448201526064016104de565b836001600160a01b031681604001516001600160a01b031614610f745760405162461bcd60e51b815260206004820152601960248201527f457363726f773a2070726f7669646572206d69736d617463680000000000000060448201526064016104de565b610fa96001600160a01b037f000000000000000000000000000000000000000000000000000000000000000016333086611183565b81546001600160a01b0319908116339081178455600180850180546001600160a01b0389169416841790556002850186905560038501805460ff1916909117905560405187907f1736617f8b9029b421ccc471ca8a99395f5d8a1cb348be9fcbfd64cceee7252f9061101e9088815260200190565b60405180910390a45050505050565b611035611106565b600081815260036020526040808220805460ff191660011790555182917f375b4005eeae25d0e37d56e1b3841d3bb394b277efa2548de3293f5dcb7a349391a250565b60026001540361109b57604051633ee5aeb560e01b815260040160405180910390fd5b6002600155565b6040516001600160a01b0383811660248301526044820183905261110191859182169063a9059cbb906064015b604051602081830303815290604052915060e01b6020820180516001600160e01b0383818316178352505050506111c2565b505050565b6000546001600160a01b03163314610bcd5760405163118cdaa760e01b81523360048201526024016104de565b600080546001600160a01b038381166001600160a01b0319831681178455604051919092169283917f8be0079c531659141344cd1fd0a4f28419497f9722a3daafe3b4186f6b6457e09190a35050565b6040516001600160a01b0384811660248301528381166044830152606482018390526111bc9186918216906323b872dd906084016110cf565b50505050565b600080602060008451602086016000885af1806111e5576040513d6000823e3d81fd5b50506000513d915081156111fd57806001141561120a565b6001600160a01b0384163b155b156111bc57604051635274afe760e01b81526001600160a01b03851660048201526024016104de565b60006020828403121561124557600080fd5b5035919050565b6001600160a01b038116811461097357600080fd5b6000806040838503121561127457600080fd5b823561127f8161124c565b915060208301356001600160601b038116811461129b57600080fd5b809150509250929050565b6000602082840312156112b857600080fd5b81356112c38161124c565b9392505050565b6000806000606084860312156112df57600080fd5b8335925060208401356112f18161124c565b929592945050506040919091013590565b634e487b7160e01b600052604160045260246000fd5b604051610140810167ffffffffffffffff8111828210171561133c5761133c611302565b60405290565b604051601f8201601f1916810167ffffffffffffffff8111828210171561136b5761136b611302565b604052919050565b805161137e8161124c565b919050565b600082601f83011261139457600080fd5b815167ffffffffffffffff8111156113ae576113ae611302565b60206113c2601f8301601f19168201611342565b82815285828487010111156113d657600080fd5b60005b838110156113f45785810183015182820184015282016113d9565b506000928101909101919091529392505050565b805167ffffffffffffffff8116811461137e57600080fd5b805160ff8116811461137e57600080fd5b60006020828403121561144357600080fd5b815167ffffffffffffffff8082111561145b57600080fd5b90830190610140828603121561147057600080fd5b611478611318565b8251815261148860208401611373565b602082015261149960408401611373565b60408201526060830151828111156114b057600080fd5b6114bc87828601611383565b606083015250608083015160808201526114d860a08401611408565b60a08201526114e960c08401611420565b60c082015260e0838101519082015261010080840151908201526101209283015192810192909252509392505050565b634e487b7160e01b600052601160045260246000fd5b808202811582820484141761154657611546611519565b92915050565b60008261156957634e487b7160e01b600052601260045260246000fd5b500490565b818103818111156115465761154661151956fea26469706673582212202b24db4cf4e511eac0afa1bab0b5afa4666d992e9a930a7434f701befc0a5ee064736f6c63430008180033","opcodes":"PUSH1 0xA0 PUSH1 0x40 MSTORE CALLVALUE DUP1 ISZERO PUSH3 0x11 JUMPI PUSH1 0x0 DUP1 REVERT JUMPDEST POP PUSH1 0x40 MLOAD PUSH3 0x1739 CODESIZE SUB DUP1 PUSH3 0x1739 DUP4 CODECOPY DUP2 ADD PUSH1 0x40 DUP2 SWAP1 MSTORE PUSH3 0x34 SWAP2 PUSH3 0x100 JUMP JUMPDEST DUP3 PUSH1 0x1 PUSH1 0x1 PUSH1 0xA0 SHL SUB DUP2 AND PUSH3 0x64 JUMPI PUSH1 0x40 MLOAD PUSH4 0x1E4FBDF7 PUSH1 0xE0 SHL DUP2 MSTORE PUSH1 0x0 PUSH1 0x4 DUP3 ADD MSTORE PUSH1 0x24 ADD PUSH1 0x40 MLOAD DUP1 SWAP2 SUB SWAP1 REVERT JUMPDEST PUSH3 0x6F DUP2 PUSH3 0x93 JUMP JUMPDEST POP PUSH1 0x1 DUP1 SSTORE PUSH1 0x1 PUSH1 0x1 PUSH1 0xA0 SHL SUB SWAP2 DUP3 AND PUSH1 0x80 MSTORE AND PUSH1 0x19 PUSH1 0xA3 SHL OR PUSH1 0x6 SSTORE POP PUSH3 0x14A JUMP JUMPDEST PUSH1 0x0 DUP1 SLOAD PUSH1 0x1 PUSH1 0x1 PUSH1 0xA0 SHL SUB DUP4 DUP2 AND PUSH1 0x1 PUSH1 0x1 PUSH1 0xA0 SHL SUB NOT DUP4 AND DUP2 OR DUP5 SSTORE PUSH1 0x40 MLOAD SWAP2 SWAP1 SWAP3 AND SWAP3 DUP4 SWAP2 PUSH32 0x8BE0079C531659141344CD1FD0A4F28419497F9722A3DAAFE3B4186F6B6457E0 SWAP2 SWAP1 LOG3 POP POP JUMP JUMPDEST DUP1 MLOAD PUSH1 0x1 PUSH1 0x1 PUSH1 0xA0 SHL SUB DUP2 AND DUP2 EQ PUSH3 0xFB JUMPI PUSH1 0x0 DUP1 REVERT JUMPDEST SWAP2 SWAP1 POP JUMP JUMPDEST PUSH1 0x0 DUP1 PUSH1 0x0 PUSH1 0x60 DUP5 DUP7 SUB SLT ISZERO PUSH3 0x116 JUMPI PUSH1 0x0 DUP1 REVERT JUMPDEST PUSH3 0x121 DUP5 PUSH3 0xE3 JUMP JUMPDEST SWAP3 POP PUSH3 0x131 PUSH1 0x20 DUP6 ADD PUSH3 0xE3 JUMP JUMPDEST SWAP2 POP PUSH3 0x141 PUSH1 0x40 DUP6 ADD PUSH3 0xE3 JUMP JUMPDEST SWAP1 POP SWAP3 POP SWAP3 POP SWAP3 JUMP JUMPDEST PUSH1 0x80 MLOAD PUSH2 0x15B7 PUSH3 0x182 PUSH1 0x0 CODECOPY PUSH1 0x0 DUP2 DUP2 PUSH2 0x1FB ADD MSTORE DUP2 DUP2 PUSH2 0x7CC ADD MSTORE DUP2 DUP2 PUSH2 0x808 ADD MSTORE DUP2 DUP2 PUSH2 0xA2D ADD MSTORE PUSH2 0xF81 ADD MSTORE PUSH2 0x15B7 PUSH1 0x0 RETURN INVALID PUSH1 0x80 PUSH1 0x40 MSTORE CALLVALUE DUP1 ISZERO PUSH2 0x10 JUMPI PUSH1 0x0 DUP1 REVERT JUMPDEST POP PUSH1 0x4 CALLDATASIZE LT PUSH2 0x121 JUMPI PUSH1 0x0 CALLDATALOAD PUSH1 0xE0 SHR DUP1 PUSH4 0x776AF5BA GT PUSH2 0xAD JUMPI DUP1 PUSH4 0xB02C43D0 GT PUSH2 0x71 JUMPI DUP1 PUSH4 0xB02C43D0 EQ PUSH2 0x39F JUMPI DUP1 PUSH4 0xC415B95C EQ PUSH2 0x437 JUMPI DUP1 PUSH4 0xF2FDE38B EQ PUSH2 0x44A JUMPI DUP1 PUSH4 0xF7FD0E4F EQ PUSH2 0x45D JUMPI DUP1 PUSH4 0xFD84CB97 EQ PUSH2 0x470 JUMPI PUSH1 0x0 DUP1 REVERT JUMPDEST DUP1 PUSH4 0x776AF5BA EQ PUSH2 0x248 JUMPI DUP1 PUSH4 0x7F58A8D6 EQ PUSH2 0x25B JUMPI DUP1 PUSH4 0x8DA5CB5B EQ PUSH2 0x26E JUMPI DUP1 PUSH4 0x9A1598C8 EQ PUSH2 0x27F JUMPI DUP1 PUSH4 0x9F9FB968 EQ PUSH2 0x292 JUMPI PUSH1 0x0 DUP1 REVERT JUMPDEST DUP1 PUSH4 0x329DC103 GT PUSH2 0xF4 JUMPI DUP1 PUSH4 0x329DC103 EQ PUSH2 0x1B0 JUMPI DUP1 PUSH4 0x37433CF1 EQ PUSH2 0x1C3 JUMPI DUP1 PUSH4 0x3E413BEE EQ PUSH2 0x1F6 JUMPI DUP1 PUSH4 0x580788AD EQ PUSH2 0x21D JUMPI DUP1 PUSH4 0x715018A6 EQ PUSH2 0x240 JUMPI PUSH1 0x0 DUP1 REVERT JUMPDEST DUP1 PUSH4 0x1C8ADD89 EQ PUSH2 0x126 JUMPI DUP1 PUSH4 0x22DCD13E EQ PUSH2 0x13B JUMPI DUP1 PUSH4 0x275BBE9B EQ PUSH2 0x172 JUMPI DUP1 PUSH4 0x278ECDE1 EQ PUSH2 0x19D JUMPI JUMPDEST PUSH1 0x0 DUP1 REVERT JUMPDEST PUSH2 0x139 PUSH2 0x134 CALLDATASIZE PUSH1 0x4 PUSH2 0x1233 JUMP JUMPDEST PUSH2 0x483 JUMP JUMPDEST STOP JUMPDEST PUSH1 0x6 SLOAD PUSH2 0x155 SWAP1 PUSH1 0x1 PUSH1 0xA0 SHL SWAP1 DIV PUSH1 0x1 PUSH1 0x1 PUSH1 0x60 SHL SUB AND DUP2 JUMP JUMPDEST PUSH1 0x40 MLOAD PUSH1 0x1 PUSH1 0x1 PUSH1 0x60 SHL SUB SWAP1 SWAP2 AND DUP2 MSTORE PUSH1 0x20 ADD JUMPDEST PUSH1 0x40 MLOAD DUP1 SWAP2 SUB SWAP1 RETURN JUMPDEST PUSH1 0x5 SLOAD PUSH2 0x185 SWAP1 PUSH1 0x1 PUSH1 0x1 PUSH1 0xA0 SHL SUB AND DUP2 JUMP JUMPDEST PUSH1 0x40 MLOAD PUSH1 0x1 PUSH1 0x1 PUSH1 0xA0 SHL SUB SWAP1 SWAP2 AND DUP2 MSTORE PUSH1 0x20 ADD PUSH2 0x169 JUMP JUMPDEST PUSH2 0x139 PUSH2 0x1AB CALLDATASIZE PUSH1 0x4 PUSH2 0x1233 JUMP JUMPDEST PUSH2 0x976 JUMP JUMPDEST PUSH2 0x139 PUSH2 0x1BE CALLDATASIZE PUSH1 0x4 PUSH2 0x1261 JUMP JUMPDEST PUSH2 0xB41 JUMP JUMPDEST PUSH2 0x1E6 PUSH2 0x1D1 CALLDATASIZE PUSH1 0x4 PUSH2 0x1233 JUMP JUMPDEST PUSH1 0x0 SWAP1 DUP2 MSTORE PUSH1 0x3 PUSH1 0x20 MSTORE PUSH1 0x40 SWAP1 KECCAK256 SLOAD PUSH1 0xFF AND SWAP1 JUMP JUMPDEST PUSH1 0x40 MLOAD SWAP1 ISZERO ISZERO DUP2 MSTORE PUSH1 0x20 ADD PUSH2 0x169 JUMP JUMPDEST PUSH2 0x185 PUSH32 0x0 DUP2 JUMP JUMPDEST PUSH2 0x1E6 PUSH2 0x22B CALLDATASIZE PUSH1 0x4 PUSH2 0x1233 JUMP JUMPDEST PUSH1 0x3 PUSH1 0x20 MSTORE PUSH1 0x0 SWAP1 DUP2 MSTORE PUSH1 0x40 SWAP1 KECCAK256 SLOAD PUSH1 0xFF AND DUP2 JUMP JUMPDEST PUSH2 0x139 PUSH2 0xBBB JUMP JUMPDEST PUSH1 0x4 SLOAD PUSH2 0x185 SWAP1 PUSH1 0x1 PUSH1 0x1 PUSH1 0xA0 SHL SUB AND DUP2 JUMP JUMPDEST PUSH2 0x139 PUSH2 0x269 CALLDATASIZE PUSH1 0x4 PUSH2 0x12A6 JUMP JUMPDEST PUSH2 0xBCF JUMP JUMPDEST PUSH1 0x0 SLOAD PUSH1 0x1 PUSH1 0x1 PUSH1 0xA0 SHL SUB AND PUSH2 0x185 JUMP JUMPDEST PUSH2 0x139 PUSH2 0x28D CALLDATASIZE PUSH1 0x4 PUSH2 0x12A6 JUMP JUMPDEST PUSH2 0xBF9 JUMP JUMPDEST PUSH2 0x344 PUSH2 0x2A0 CALLDATASIZE PUSH1 0x4 PUSH2 0x1233 JUMP JUMPDEST PUSH1 0x40 DUP1 MLOAD PUSH1 0xC0 DUP2 ADD DUP3 MSTORE PUSH1 0x0 DUP1 DUP3 MSTORE PUSH1 0x20 DUP3 ADD DUP2 SWAP1 MSTORE SWAP2 DUP2 ADD DUP3 SWAP1 MSTORE PUSH1 0x60 DUP2 ADD DUP3 SWAP1 MSTORE PUSH1 0x80 DUP2 ADD DUP3 SWAP1 MSTORE PUSH1 0xA0 DUP2 ADD SWAP2 SWAP1 SWAP2 MSTORE POP PUSH1 0x0 SWAP1 DUP2 MSTORE PUSH1 0x2 PUSH1 0x20 DUP2 DUP2 MSTORE PUSH1 0x40 SWAP3 DUP4 SWAP1 KECCAK256 DUP4 MLOAD PUSH1 0xC0 DUP2 ADD DUP6 MSTORE DUP2 SLOAD PUSH1 0x1 PUSH1 0x1 PUSH1 0xA0 SHL SUB SWAP1 DUP2 AND DUP3 MSTORE PUSH1 0x1 DUP4 ADD SLOAD AND SWAP3 DUP2 ADD SWAP3 SWAP1 SWAP3 MSTORE SWAP2 DUP3 ADD SLOAD SWAP3 DUP2 ADD SWAP3 SWAP1 SWAP3 MSTORE PUSH1 0x3 ADD SLOAD PUSH1 0xFF DUP1 DUP3 AND ISZERO ISZERO PUSH1 0x60 DUP5 ADD MSTORE PUSH2 0x100 DUP3 DIV DUP2 AND ISZERO ISZERO PUSH1 0x80 DUP5 ADD MSTORE PUSH3 0x10000 SWAP1 SWAP2 DIV AND ISZERO ISZERO PUSH1 0xA0 DUP3 ADD MSTORE SWAP1 JUMP JUMPDEST PUSH1 0x40 MLOAD PUSH2 0x169 SWAP2 SWAP1 DUP2 MLOAD PUSH1 0x1 PUSH1 0x1 PUSH1 0xA0 SHL SUB SWAP1 DUP2 AND DUP3 MSTORE PUSH1 0x20 DUP1 DUP5 ADD MLOAD SWAP1 SWAP2 AND SWAP1 DUP3 ADD MSTORE PUSH1 0x40 DUP1 DUP4 ADD MLOAD SWAP1 DUP3 ADD MSTORE PUSH1 0x60 DUP1 DUP4 ADD MLOAD ISZERO ISZERO SWAP1 DUP3 ADD MSTORE PUSH1 0x80 DUP1 DUP4 ADD MLOAD ISZERO ISZERO SWAP1 DUP3 ADD MSTORE PUSH1 0xA0 SWAP2 DUP3 ADD MLOAD ISZERO ISZERO SWAP2 DUP2 ADD SWAP2 SWAP1 SWAP2 MSTORE PUSH1 0xC0 ADD SWAP1 JUMP JUMPDEST PUSH2 0x3F9 PUSH2 0x3AD CALLDATASIZE PUSH1 0x4 PUSH2 0x1233 JUMP JUMPDEST PUSH1 0x2 PUSH1 0x20 DUP2 SWAP1 MSTORE PUSH1 0x0 SWAP2 DUP3 MSTORE PUSH1 0x40 SWAP1 SWAP2 KECCAK256 DUP1 SLOAD PUSH1 0x1 DUP3 ADD SLOAD SWAP3 DUP3 ADD SLOAD PUSH1 0x3 SWAP1 SWAP3 ADD SLOAD PUSH1 0x1 PUSH1 0x1 PUSH1 0xA0 SHL SUB SWAP2 DUP3 AND SWAP4 SWAP1 SWAP2 AND SWAP2 SWAP1 PUSH1 0xFF DUP1 DUP3 AND SWAP2 PUSH2 0x100 DUP2 DIV DUP3 AND SWAP2 PUSH3 0x10000 SWAP1 SWAP2 DIV AND DUP7 JUMP JUMPDEST PUSH1 0x40 DUP1 MLOAD PUSH1 0x1 PUSH1 0x1 PUSH1 0xA0 SHL SUB SWAP8 DUP9 AND DUP2 MSTORE SWAP7 SWAP1 SWAP6 AND PUSH1 0x20 DUP8 ADD MSTORE SWAP4 DUP6 ADD SWAP3 SWAP1 SWAP3 MSTORE ISZERO ISZERO PUSH1 0x60 DUP5 ADD MSTORE ISZERO ISZERO PUSH1 0x80 DUP4 ADD MSTORE ISZERO ISZERO PUSH1 0xA0 DUP3 ADD MSTORE PUSH1 0xC0 ADD PUSH2 0x169 JUMP JUMPDEST PUSH1 0x6 SLOAD PUSH2 0x185 SWAP1 PUSH1 0x1 PUSH1 0x1 PUSH1 0xA0 SHL SUB AND DUP2 JUMP JUMPDEST PUSH2 0x139 PUSH2 0x458 CALLDATASIZE PUSH1 0x4 PUSH2 0x12A6 JUMP JUMPDEST PUSH2 0xC23 JUMP JUMPDEST PUSH2 0x139 PUSH2 0x46B CALLDATASIZE PUSH1 0x4 PUSH2 0x12CA JUMP JUMPDEST PUSH2 0xC5E JUMP JUMPDEST PUSH2 0x139 PUSH2 0x47E CALLDATASIZE PUSH1 0x4 PUSH2 0x1233 JUMP JUMPDEST PUSH2 0x102D JUMP JUMPDEST PUSH2 0x48B PUSH2 0x1078 JUMP JUMPDEST PUSH1 0x0 DUP2 DUP2 MSTORE PUSH1 0x2 PUSH1 0x20 MSTORE PUSH1 0x40 SWAP1 KECCAK256 PUSH1 0x3 DUP2 ADD SLOAD PUSH1 0xFF AND PUSH2 0x4E7 JUMPI PUSH1 0x40 MLOAD PUSH3 0x461BCD PUSH1 0xE5 SHL DUP2 MSTORE PUSH1 0x20 PUSH1 0x4 DUP3 ADD MSTORE PUSH1 0x12 PUSH1 0x24 DUP3 ADD MSTORE PUSH18 0x115CD8DC9BDDCE881B9BDD08199D5B991959 PUSH1 0x72 SHL PUSH1 0x44 DUP3 ADD MSTORE PUSH1 0x64 ADD JUMPDEST PUSH1 0x40 MLOAD DUP1 SWAP2 SUB SWAP1 REVERT JUMPDEST PUSH1 0x3 DUP2 ADD SLOAD PUSH2 0x100 SWAP1 DIV PUSH1 0xFF AND ISZERO PUSH2 0x541 JUMPI PUSH1 0x40 MLOAD PUSH3 0x461BCD PUSH1 0xE5 SHL DUP2 MSTORE PUSH1 0x20 PUSH1 0x4 DUP3 ADD MSTORE PUSH1 0x18 PUSH1 0x24 DUP3 ADD MSTORE PUSH32 0x457363726F773A20616C72656164792072656C65617365640000000000000000 PUSH1 0x44 DUP3 ADD MSTORE PUSH1 0x64 ADD PUSH2 0x4DE JUMP JUMPDEST PUSH1 0x3 DUP2 ADD SLOAD PUSH3 0x10000 SWAP1 DIV PUSH1 0xFF AND ISZERO PUSH2 0x58F JUMPI PUSH1 0x40 MLOAD PUSH3 0x461BCD PUSH1 0xE5 SHL DUP2 MSTORE PUSH1 0x20 PUSH1 0x4 DUP3 ADD MSTORE PUSH1 0x10 PUSH1 0x24 DUP3 ADD MSTORE PUSH16 0x115CD8DC9BDDCE881C99599D5B991959 PUSH1 0x82 SHL PUSH1 0x44 DUP3 ADD MSTORE PUSH1 0x64 ADD PUSH2 0x4DE JUMP JUMPDEST PUSH1 0x0 DUP3 DUP2 MSTORE PUSH1 0x3 PUSH1 0x20 MSTORE PUSH1 0x40 SWAP1 KECCAK256 SLOAD PUSH1 0xFF AND PUSH2 0x5ED JUMPI PUSH1 0x40 MLOAD PUSH3 0x461BCD PUSH1 0xE5 SHL DUP2 MSTORE PUSH1 0x20 PUSH1 0x4 DUP3 ADD MSTORE PUSH1 0x1E PUSH1 0x24 DUP3 ADD MSTORE PUSH32 0x457363726F773A2064656C6976657279206E6F7420636F6E6669726D65640000 PUSH1 0x44 DUP3 ADD MSTORE PUSH1 0x64 ADD PUSH2 0x4DE JUMP JUMPDEST DUP1 SLOAD PUSH1 0x1 PUSH1 0x1 PUSH1 0xA0 SHL SUB AND CALLER EQ DUP1 PUSH2 0x611 JUMPI POP PUSH1 0x1 DUP2 ADD SLOAD PUSH1 0x1 PUSH1 0x1 PUSH1 0xA0 SHL SUB AND CALLER EQ JUMPDEST PUSH2 0x656 JUMPI PUSH1 0x40 MLOAD PUSH3 0x461BCD PUSH1 0xE5 SHL DUP2 MSTORE PUSH1 0x20 PUSH1 0x4 DUP3 ADD MSTORE PUSH1 0x16 PUSH1 0x24 DUP3 ADD MSTORE PUSH22 0x115CD8DC9BDDCE881B9BDD08185D5D1A1BDC9A5CD959 PUSH1 0x52 SHL PUSH1 0x44 DUP3 ADD MSTORE PUSH1 0x64 ADD PUSH2 0x4DE JUMP JUMPDEST PUSH1 0x4 SLOAD PUSH1 0x1 PUSH1 0x1 PUSH1 0xA0 SHL SUB AND ISZERO PUSH2 0x741 JUMPI PUSH1 0x4 DUP1 SLOAD PUSH1 0x40 MLOAD PUSH4 0xBF22C457 PUSH1 0xE0 SHL DUP2 MSTORE SWAP2 DUP3 ADD DUP5 SWAP1 MSTORE PUSH1 0x0 SWAP2 PUSH1 0x1 PUSH1 0x1 PUSH1 0xA0 SHL SUB SWAP1 SWAP2 AND SWAP1 PUSH4 0xBF22C457 SWAP1 PUSH1 0x24 ADD PUSH1 0x0 PUSH1 0x40 MLOAD DUP1 DUP4 SUB DUP2 DUP7 GAS STATICCALL ISZERO DUP1 ISZERO PUSH2 0x6B3 JUMPI RETURNDATASIZE PUSH1 0x0 DUP1 RETURNDATACOPY RETURNDATASIZE PUSH1 0x0 REVERT JUMPDEST POP POP POP POP PUSH1 0x40 MLOAD RETURNDATASIZE PUSH1 0x0 DUP3 RETURNDATACOPY PUSH1 0x1F RETURNDATASIZE SWAP1 DUP2 ADD PUSH1 0x1F NOT AND DUP3 ADD PUSH1 0x40 MSTORE PUSH2 0x6DB SWAP2 SWAP1 DUP2 ADD SWAP1 PUSH2 0x1431 JUMP JUMPDEST SWAP1 POP DUP1 PUSH1 0xC0 ADD MLOAD PUSH1 0xFF AND PUSH1 0x2 EQ PUSH2 0x73F JUMPI PUSH1 0x40 MLOAD PUSH3 0x461BCD PUSH1 0xE5 SHL DUP2 MSTORE PUSH1 0x20 PUSH1 0x4 DUP3 ADD MSTORE PUSH1 0x22 PUSH1 0x24 DUP3 ADD MSTORE PUSH32 0x457363726F773A206A6F62206E6F7420696E20636F6D706C6574656420737461 PUSH1 0x44 DUP3 ADD MSTORE PUSH2 0x7465 PUSH1 0xF0 SHL PUSH1 0x64 DUP3 ADD MSTORE PUSH1 0x84 ADD PUSH2 0x4DE JUMP JUMPDEST POP JUMPDEST PUSH1 0x3 DUP2 ADD DUP1 SLOAD PUSH2 0xFF00 NOT AND PUSH2 0x100 OR SWAP1 SSTORE PUSH1 0x6 SLOAD PUSH1 0x2 DUP3 ADD SLOAD PUSH1 0x0 SWAP2 PUSH2 0x2710 SWAP2 PUSH2 0x77C SWAP2 PUSH1 0x1 PUSH1 0x1 PUSH1 0x60 SHL SUB PUSH1 0x1 PUSH1 0xA0 SHL SWAP1 SWAP2 DIV AND SWAP1 PUSH2 0x152F JUMP JUMPDEST PUSH2 0x786 SWAP2 SWAP1 PUSH2 0x154C JUMP JUMPDEST SWAP1 POP PUSH1 0x0 DUP2 DUP4 PUSH1 0x2 ADD SLOAD PUSH2 0x79A SWAP2 SWAP1 PUSH2 0x156E JUMP JUMPDEST SWAP1 POP PUSH1 0x0 DUP3 GT DUP1 ISZERO PUSH2 0x7B6 JUMPI POP PUSH1 0x6 SLOAD PUSH1 0x1 PUSH1 0x1 PUSH1 0xA0 SHL SUB AND ISZERO ISZERO JUMPDEST ISZERO PUSH2 0x7F5 JUMPI PUSH1 0x6 SLOAD PUSH2 0x7F5 SWAP1 PUSH1 0x1 PUSH1 0x1 PUSH1 0xA0 SHL SUB PUSH32 0x0 DUP2 AND SWAP2 AND DUP5 PUSH2 0x10A2 JUMP JUMPDEST PUSH1 0x1 DUP4 ADD SLOAD PUSH2 0x831 SWAP1 PUSH1 0x1 PUSH1 0x1 PUSH1 0xA0 SHL SUB PUSH32 0x0 DUP2 AND SWAP2 AND DUP4 PUSH2 0x10A2 JUMP JUMPDEST PUSH1 0x4 SLOAD PUSH1 0x1 PUSH1 0x1 PUSH1 0xA0 SHL SUB AND ISZERO PUSH2 0x89F JUMPI PUSH1 0x4 DUP1 SLOAD PUSH1 0x40 MLOAD PUSH4 0x257C413B PUSH1 0xE2 SHL DUP2 MSTORE SWAP2 DUP3 ADD DUP7 SWAP1 MSTORE PUSH1 0x1 PUSH1 0x1 PUSH1 0xA0 SHL SUB AND SWAP1 PUSH4 0x95F104EC SWAP1 PUSH1 0x24 ADD PUSH1 0x0 PUSH1 0x40 MLOAD DUP1 DUP4 SUB DUP2 PUSH1 0x0 DUP8 DUP1 EXTCODESIZE ISZERO DUP1 ISZERO PUSH2 0x886 JUMPI PUSH1 0x0 DUP1 REVERT JUMPDEST POP GAS CALL ISZERO DUP1 ISZERO PUSH2 0x89A JUMPI RETURNDATASIZE PUSH1 0x0 DUP1 RETURNDATACOPY RETURNDATASIZE PUSH1 0x0 REVERT JUMPDEST POP POP POP POP JUMPDEST PUSH1 0x5 SLOAD PUSH1 0x1 PUSH1 0x1 PUSH1 0xA0 SHL SUB AND ISZERO PUSH2 0x91B JUMPI PUSH1 0x5 SLOAD PUSH1 0x1 DUP5 ADD SLOAD PUSH1 0x40 MLOAD PUSH4 0x71BA2BDF PUSH1 0xE1 SHL DUP2 MSTORE PUSH1 0x1 PUSH1 0x1 PUSH1 0xA0 SHL SUB SWAP2 DUP3 AND PUSH1 0x4 DUP3 ADD MSTORE PUSH1 0x24 DUP2 ADD DUP5 SWAP1 MSTORE SWAP2 AND SWAP1 PUSH4 0xE37457BE SWAP1 PUSH1 0x44 ADD PUSH1 0x0 PUSH1 0x40 MLOAD DUP1 DUP4 SUB DUP2 PUSH1 0x0 DUP8 DUP1 EXTCODESIZE ISZERO DUP1 ISZERO PUSH2 0x902 JUMPI PUSH1 0x0 DUP1 REVERT JUMPDEST POP GAS CALL ISZERO DUP1 ISZERO PUSH2 0x916 JUMPI RETURNDATASIZE PUSH1 0x0 DUP1 RETURNDATACOPY RETURNDATASIZE PUSH1 0x0 REVERT JUMPDEST POP POP POP POP JUMPDEST PUSH1 0x1 DUP4 ADD SLOAD PUSH1 0x40 DUP1 MLOAD DUP4 DUP2 MSTORE PUSH1 0x20 DUP2 ADD DUP6 SWAP1 MSTORE PUSH1 0x1 PUSH1 0x1 PUSH1 0xA0 SHL SUB SWAP1 SWAP3 AND SWAP2 DUP7 SWAP2 PUSH32 0x8CDC8DC08E54A4E57F52077ECF1B4C508758513439CAE2AA325DCC85B922FCA8 SWAP2 ADD PUSH1 0x40 MLOAD DUP1 SWAP2 SUB SWAP1 LOG3 POP POP POP PUSH2 0x973 PUSH1 0x1 DUP1 SSTORE JUMP JUMPDEST POP JUMP JUMPDEST PUSH2 0x97E PUSH2 0x1078 JUMP JUMPDEST PUSH2 0x986 PUSH2 0x1106 JUMP JUMPDEST PUSH1 0x0 DUP2 DUP2 MSTORE PUSH1 0x2 PUSH1 0x20 MSTORE PUSH1 0x40 SWAP1 KECCAK256 PUSH1 0x3 DUP2 ADD SLOAD PUSH1 0xFF AND DUP1 ISZERO PUSH2 0x9B2 JUMPI POP PUSH1 0x3 DUP2 ADD SLOAD PUSH2 0x100 SWAP1 DIV PUSH1 0xFF AND ISZERO JUMPDEST DUP1 ISZERO PUSH2 0x9C9 JUMPI POP PUSH1 0x3 DUP2 ADD SLOAD PUSH3 0x10000 SWAP1 DIV PUSH1 0xFF AND ISZERO JUMPDEST PUSH2 0xA0D JUMPI PUSH1 0x40 MLOAD PUSH3 0x461BCD PUSH1 0xE5 SHL DUP2 MSTORE PUSH1 0x20 PUSH1 0x4 DUP3 ADD MSTORE PUSH1 0x15 PUSH1 0x24 DUP3 ADD MSTORE PUSH21 0x457363726F773A20696E76616C6964207374617465 PUSH1 0x58 SHL PUSH1 0x44 DUP3 ADD MSTORE PUSH1 0x64 ADD PUSH2 0x4DE JUMP JUMPDEST PUSH1 0x3 DUP2 ADD DUP1 SLOAD PUSH3 0xFF0000 NOT AND PUSH3 0x10000 OR SWAP1 SSTORE DUP1 SLOAD PUSH1 0x2 DUP3 ADD SLOAD PUSH2 0xA60 SWAP2 PUSH32 0x0 PUSH1 0x1 PUSH1 0x1 PUSH1 0xA0 SHL SUB SWAP1 DUP2 AND SWAP3 SWAP2 AND SWAP1 PUSH2 0x10A2 JUMP JUMPDEST PUSH1 0x5 SLOAD PUSH1 0x1 PUSH1 0x1 PUSH1 0xA0 SHL SUB AND ISZERO DUP1 ISZERO SWAP1 PUSH2 0xA86 JUMPI POP PUSH1 0x1 DUP2 ADD SLOAD PUSH1 0x1 PUSH1 0x1 PUSH1 0xA0 SHL SUB AND ISZERO ISZERO JUMPDEST ISZERO PUSH2 0xAEF JUMPI PUSH1 0x5 SLOAD PUSH1 0x1 DUP3 ADD SLOAD PUSH1 0x40 MLOAD PUSH4 0x16557E9F PUSH1 0xE1 SHL DUP2 MSTORE PUSH1 0x1 PUSH1 0x1 PUSH1 0xA0 SHL SUB SWAP2 DUP3 AND PUSH1 0x4 DUP3 ADD MSTORE SWAP2 AND SWAP1 PUSH4 0x2CAAFD3E SWAP1 PUSH1 0x24 ADD PUSH1 0x0 PUSH1 0x40 MLOAD DUP1 DUP4 SUB DUP2 PUSH1 0x0 DUP8 DUP1 EXTCODESIZE ISZERO DUP1 ISZERO PUSH2 0xAD6 JUMPI PUSH1 0x0 DUP1 REVERT JUMPDEST POP GAS CALL ISZERO DUP1 ISZERO PUSH2 0xAEA JUMPI RETURNDATASIZE PUSH1 0x0 DUP1 RETURNDATACOPY RETURNDATASIZE PUSH1 0x0 REVERT JUMPDEST POP POP POP POP JUMPDEST DUP1 SLOAD PUSH1 0x2 DUP3 ADD SLOAD PUSH1 0x40 MLOAD SWAP1 DUP2 MSTORE PUSH1 0x1 PUSH1 0x1 PUSH1 0xA0 SHL SUB SWAP1 SWAP2 AND SWAP1 DUP4 SWAP1 PUSH32 0xE89EC1881A76229445BCD179B8C4B24F9EDC7DDD87D07FB3B19C67AE9C6E27CC SWAP1 PUSH1 0x20 ADD PUSH1 0x40 MLOAD DUP1 SWAP2 SUB SWAP1 LOG3 POP PUSH2 0x973 PUSH1 0x1 DUP1 SSTORE JUMP JUMPDEST PUSH2 0xB49 PUSH2 0x1106 JUMP JUMPDEST PUSH2 0x3E8 DUP2 PUSH1 0x1 PUSH1 0x1 PUSH1 0x60 SHL SUB AND GT ISZERO PUSH2 0xB9B JUMPI PUSH1 0x40 MLOAD PUSH3 0x461BCD PUSH1 0xE5 SHL DUP2 MSTORE PUSH1 0x20 PUSH1 0x4 DUP3 ADD MSTORE PUSH1 0x14 PUSH1 0x24 DUP3 ADD MSTORE PUSH20 0x8AE6C6E4DEEE7440CCCACA40E8DEDE40D0D2CED PUSH1 0x63 SHL PUSH1 0x44 DUP3 ADD MSTORE PUSH1 0x64 ADD PUSH2 0x4DE JUMP JUMPDEST PUSH1 0x1 PUSH1 0x1 PUSH1 0x60 SHL SUB AND PUSH1 0x1 PUSH1 0xA0 SHL MUL PUSH1 0x1 PUSH1 0x1 PUSH1 0xA0 SHL SUB SWAP1 SWAP2 AND OR PUSH1 0x6 SSTORE JUMP JUMPDEST PUSH2 0xBC3 PUSH2 0x1106 JUMP JUMPDEST PUSH2 0xBCD PUSH1 0x0 PUSH2 0x1133 JUMP JUMPDEST JUMP JUMPDEST PUSH2 0xBD7 PUSH2 0x1106 JUMP JUMPDEST PUSH1 0x5 DUP1 SLOAD PUSH1 0x1 PUSH1 0x1 PUSH1 0xA0 SHL SUB NOT AND PUSH1 0x1 PUSH1 0x1 PUSH1 0xA0 SHL SUB SWAP3 SWAP1 SWAP3 AND SWAP2 SWAP1 SWAP2 OR SWAP1 SSTORE JUMP JUMPDEST PUSH2 0xC01 PUSH2 0x1106 JUMP JUMPDEST PUSH1 0x4 DUP1 SLOAD PUSH1 0x1 PUSH1 0x1 PUSH1 0xA0 SHL SUB NOT AND PUSH1 0x1 PUSH1 0x1 PUSH1 0xA0 SHL SUB SWAP3 SWAP1 SWAP3 AND SWAP2 SWAP1 SWAP2 OR SWAP1 SSTORE JUMP JUMPDEST PUSH2 0xC2B PUSH2 0x1106 JUMP JUMPDEST PUSH1 0x1 PUSH1 0x1 PUSH1 0xA0 SHL SUB DUP2 AND PUSH2 0xC55 JUMPI PUSH1 0x40 MLOAD PUSH4 0x1E4FBDF7 PUSH1 0xE0 SHL DUP2 MSTORE PUSH1 0x0 PUSH1 0x4 DUP3 ADD MSTORE PUSH1 0x24 ADD PUSH2 0x4DE JUMP JUMPDEST PUSH2 0x973 DUP2 PUSH2 0x1133 JUMP JUMPDEST PUSH1 0x0 DUP4 DUP2 MSTORE PUSH1 0x2 PUSH1 0x20 MSTORE PUSH1 0x40 SWAP1 KECCAK256 PUSH1 0x3 DUP2 ADD SLOAD PUSH1 0xFF AND ISZERO PUSH2 0xCBA JUMPI PUSH1 0x40 MLOAD PUSH3 0x461BCD PUSH1 0xE5 SHL DUP2 MSTORE PUSH1 0x20 PUSH1 0x4 DUP3 ADD MSTORE PUSH1 0x16 PUSH1 0x24 DUP3 ADD MSTORE PUSH22 0x115CD8DC9BDDCE88185B1C9958591E48199D5B991959 PUSH1 0x52 SHL PUSH1 0x44 DUP3 ADD MSTORE PUSH1 0x64 ADD PUSH2 0x4DE JUMP JUMPDEST PUSH1 0x0 DUP3 GT PUSH2 0xD00 JUMPI PUSH1 0x40 MLOAD PUSH3 0x461BCD PUSH1 0xE5 SHL DUP2 MSTORE PUSH1 0x20 PUSH1 0x4 DUP3 ADD MSTORE PUSH1 0x13 PUSH1 0x24 DUP3 ADD MSTORE PUSH19 0x115CD8DC9BDDCE881E995C9BC8185B5BDD5B9D PUSH1 0x6A SHL PUSH1 0x44 DUP3 ADD MSTORE PUSH1 0x64 ADD PUSH2 0x4DE JUMP JUMPDEST PUSH1 0x1 PUSH1 0x1 PUSH1 0xA0 SHL SUB DUP4 AND PUSH2 0xD4E JUMPI PUSH1 0x40 MLOAD PUSH3 0x461BCD PUSH1 0xE5 SHL DUP2 MSTORE PUSH1 0x20 PUSH1 0x4 DUP3 ADD MSTORE PUSH1 0x15 PUSH1 0x24 DUP3 ADD MSTORE PUSH21 0x22B9B1B937BB9D103D32B93790383937BB34B232B9 PUSH1 0x59 SHL PUSH1 0x44 DUP3 ADD MSTORE PUSH1 0x64 ADD PUSH2 0x4DE JUMP JUMPDEST PUSH1 0x4 SLOAD PUSH1 0x1 PUSH1 0x1 PUSH1 0xA0 SHL SUB AND PUSH2 0xDA6 JUMPI PUSH1 0x40 MLOAD PUSH3 0x461BCD PUSH1 0xE5 SHL DUP2 MSTORE PUSH1 0x20 PUSH1 0x4 DUP3 ADD MSTORE PUSH1 0x19 PUSH1 0x24 DUP3 ADD MSTORE PUSH32 0x457363726F773A204F72646572426F6F6B206E6F742073657400000000000000 PUSH1 0x44 DUP3 ADD MSTORE PUSH1 0x64 ADD PUSH2 0x4DE JUMP JUMPDEST PUSH1 0x4 DUP1 SLOAD PUSH1 0x40 MLOAD PUSH4 0xBF22C457 PUSH1 0xE0 SHL DUP2 MSTORE SWAP2 DUP3 ADD DUP7 SWAP1 MSTORE PUSH1 0x0 SWAP2 PUSH1 0x1 PUSH1 0x1 PUSH1 0xA0 SHL SUB SWAP1 SWAP2 AND SWAP1 PUSH4 0xBF22C457 SWAP1 PUSH1 0x24 ADD PUSH1 0x0 PUSH1 0x40 MLOAD DUP1 DUP4 SUB DUP2 DUP7 GAS STATICCALL ISZERO DUP1 ISZERO PUSH2 0xDF2 JUMPI RETURNDATASIZE PUSH1 0x0 DUP1 RETURNDATACOPY RETURNDATASIZE PUSH1 0x0 REVERT JUMPDEST POP POP POP POP PUSH1 0x40 MLOAD RETURNDATASIZE PUSH1 0x0 DUP3 RETURNDATACOPY PUSH1 0x1F RETURNDATASIZE SWAP1 DUP2 ADD PUSH1 0x1F NOT AND DUP3 ADD PUSH1 0x40 MSTORE PUSH2 0xE1A SWAP2 SWAP1 DUP2 ADD SWAP1 PUSH2 0x1431 JUMP JUMPDEST DUP1 MLOAD SWAP1 SWAP2 POP PUSH2 0xE63 JUMPI PUSH1 0x40 MLOAD PUSH3 0x461BCD PUSH1 0xE5 SHL DUP2 MSTORE PUSH1 0x20 PUSH1 0x4 DUP3 ADD MSTORE PUSH1 0x15 PUSH1 0x24 DUP3 ADD MSTORE PUSH21 0x115CD8DC9BDDCE881A9BD8881B9BDD08199BDD5B99 PUSH1 0x5A SHL PUSH1 0x44 DUP3 ADD MSTORE PUSH1 0x64 ADD PUSH2 0x4DE JUMP JUMPDEST PUSH1 0x20 DUP2 ADD MLOAD PUSH1 0x1 PUSH1 0x1 PUSH1 0xA0 SHL SUB AND CALLER EQ PUSH2 0xEB8 JUMPI PUSH1 0x40 MLOAD PUSH3 0x461BCD PUSH1 0xE5 SHL DUP2 MSTORE PUSH1 0x20 PUSH1 0x4 DUP3 ADD MSTORE PUSH1 0x16 PUSH1 0x24 DUP3 ADD MSTORE PUSH22 0x22B9B1B937BB9D103737BA103537B1103837B9BA32B9 PUSH1 0x51 SHL PUSH1 0x44 DUP3 ADD MSTORE PUSH1 0x64 ADD PUSH2 0x4DE JUMP JUMPDEST DUP1 PUSH1 0xC0 ADD MLOAD PUSH1 0xFF AND PUSH1 0x1 EQ PUSH2 0xF0F JUMPI PUSH1 0x40 MLOAD PUSH3 0x461BCD PUSH1 0xE5 SHL DUP2 MSTORE PUSH1 0x20 PUSH1 0x4 DUP3 ADD MSTORE PUSH1 0x18 PUSH1 0x24 DUP3 ADD MSTORE PUSH32 0x457363726F773A206A6F62206E6F742061737369676E65640000000000000000 PUSH1 0x44 DUP3 ADD MSTORE PUSH1 0x64 ADD PUSH2 0x4DE JUMP JUMPDEST DUP4 PUSH1 0x1 PUSH1 0x1 PUSH1 0xA0 SHL SUB AND DUP2 PUSH1 0x40 ADD MLOAD PUSH1 0x1 PUSH1 0x1 PUSH1 0xA0 SHL SUB AND EQ PUSH2 0xF74 JUMPI PUSH1 0x40 MLOAD PUSH3 0x461BCD PUSH1 0xE5 SHL DUP2 MSTORE PUSH1 0x20 PUSH1 0x4 DUP3 ADD MSTORE PUSH1 0x19 PUSH1 0x24 DUP3 ADD MSTORE PUSH32 0x457363726F773A2070726F7669646572206D69736D6174636800000000000000 PUSH1 0x44 DUP3 ADD MSTORE PUSH1 0x64 ADD PUSH2 0x4DE JUMP JUMPDEST PUSH2 0xFA9 PUSH1 0x1 PUSH1 0x1 PUSH1 0xA0 SHL SUB PUSH32 0x0 AND CALLER ADDRESS DUP7 PUSH2 0x1183 JUMP JUMPDEST DUP2 SLOAD PUSH1 0x1 PUSH1 0x1 PUSH1 0xA0 SHL SUB NOT SWAP1 DUP2 AND CALLER SWAP1 DUP2 OR DUP5 SSTORE PUSH1 0x1 DUP1 DUP6 ADD DUP1 SLOAD PUSH1 0x1 PUSH1 0x1 PUSH1 0xA0 SHL SUB DUP10 AND SWAP5 AND DUP5 OR SWAP1 SSTORE PUSH1 0x2 DUP6 ADD DUP7 SWAP1 SSTORE PUSH1 0x3 DUP6 ADD DUP1 SLOAD PUSH1 0xFF NOT AND SWAP1 SWAP2 OR SWAP1 SSTORE PUSH1 0x40 MLOAD DUP8 SWAP1 PUSH32 0x1736617F8B9029B421CCC471CA8A99395F5D8A1CB348BE9FCBFD64CCEEE7252F SWAP1 PUSH2 0x101E SWAP1 DUP9 DUP2 MSTORE PUSH1 0x20 ADD SWAP1 JUMP JUMPDEST PUSH1 0x40 MLOAD DUP1 SWAP2 SUB SWAP1 LOG4 POP POP POP POP POP JUMP JUMPDEST PUSH2 0x1035 PUSH2 0x1106 JUMP JUMPDEST PUSH1 0x0 DUP2 DUP2 MSTORE PUSH1 0x3 PUSH1 0x20 MSTORE PUSH1 0x40 DUP1 DUP3 KECCAK256 DUP1 SLOAD PUSH1 0xFF NOT AND PUSH1 0x1 OR SWAP1 SSTORE MLOAD DUP3 SWAP2 PUSH32 0x375B4005EEAE25D0E37D56E1B3841D3BB394B277EFA2548DE3293F5DCB7A3493 SWAP2 LOG2 POP JUMP JUMPDEST PUSH1 0x2 PUSH1 0x1 SLOAD SUB PUSH2 0x109B JUMPI PUSH1 0x40 MLOAD PUSH4 0x3EE5AEB5 PUSH1 0xE0 SHL DUP2 MSTORE PUSH1 0x4 ADD PUSH1 0x40 MLOAD DUP1 SWAP2 SUB SWAP1 REVERT JUMPDEST PUSH1 0x2 PUSH1 0x1 SSTORE JUMP JUMPDEST PUSH1 0x40 MLOAD PUSH1 0x1 PUSH1 0x1 PUSH1 0xA0 SHL SUB DUP4 DUP2 AND PUSH1 0x24 DUP4 ADD MSTORE PUSH1 0x44 DUP3 ADD DUP4 SWAP1 MSTORE PUSH2 0x1101 SWAP2 DUP6 SWAP2 DUP3 AND SWAP1 PUSH4 0xA9059CBB SWAP1 PUSH1 0x64 ADD JUMPDEST PUSH1 0x40 MLOAD PUSH1 0x20 DUP2 DUP4 SUB SUB DUP2 MSTORE SWAP1 PUSH1 0x40 MSTORE SWAP2 POP PUSH1 0xE0 SHL PUSH1 0x20 DUP3 ADD DUP1 MLOAD PUSH1 0x1 PUSH1 0x1 PUSH1 0xE0 SHL SUB DUP4 DUP2 DUP4 AND OR DUP4 MSTORE POP POP POP POP PUSH2 0x11C2 JUMP JUMPDEST POP POP POP JUMP JUMPDEST PUSH1 0x0 SLOAD PUSH1 0x1 PUSH1 0x1 PUSH1 0xA0 SHL SUB AND CALLER EQ PUSH2 0xBCD JUMPI PUSH1 0x40 MLOAD PUSH4 0x118CDAA7 PUSH1 0xE0 SHL DUP2 MSTORE CALLER PUSH1 0x4 DUP3 ADD MSTORE PUSH1 0x24 ADD PUSH2 0x4DE JUMP JUMPDEST PUSH1 0x0 DUP1 SLOAD PUSH1 0x1 PUSH1 0x1 PUSH1 0xA0 SHL SUB DUP4 DUP2 AND PUSH1 0x1 PUSH1 0x1 PUSH1 0xA0 SHL SUB NOT DUP4 AND DUP2 OR DUP5 SSTORE PUSH1 0x40 MLOAD SWAP2 SWAP1 SWAP3 AND SWAP3 DUP4 SWAP2 PUSH32 0x8BE0079C531659141344CD1FD0A4F28419497F9722A3DAAFE3B4186F6B6457E0 SWAP2 SWAP1 LOG3 POP POP JUMP JUMPDEST PUSH1 0x40 MLOAD PUSH1 0x1 PUSH1 0x1 PUSH1 0xA0 SHL SUB DUP5 DUP2 AND PUSH1 0x24 DUP4 ADD MSTORE DUP4 DUP2 AND PUSH1 0x44 DUP4 ADD MSTORE PUSH1 0x64 DUP3 ADD DUP4 SWAP1 MSTORE PUSH2 0x11BC SWAP2 DUP7 SWAP2 DUP3 AND SWAP1 PUSH4 0x23B872DD SWAP1 PUSH1 0x84 ADD PUSH2 0x10CF JUMP JUMPDEST POP POP POP POP JUMP JUMPDEST PUSH1 0x0 DUP1 PUSH1 0x20 PUSH1 0x0 DUP5 MLOAD PUSH1 0x20 DUP7 ADD PUSH1 0x0 DUP9 GAS CALL DUP1 PUSH2 0x11E5 JUMPI PUSH1 0x40 MLOAD RETURNDATASIZE PUSH1 0x0 DUP3 RETURNDATACOPY RETURNDATASIZE DUP2 REVERT JUMPDEST POP POP PUSH1 0x0 MLOAD RETURNDATASIZE SWAP2 POP DUP2 ISZERO PUSH2 0x11FD JUMPI DUP1 PUSH1 0x1 EQ ISZERO PUSH2 0x120A JUMP JUMPDEST PUSH1 0x1 PUSH1 0x1 PUSH1 0xA0 SHL SUB DUP5 AND EXTCODESIZE ISZERO JUMPDEST ISZERO PUSH2 0x11BC JUMPI PUSH1 0x40 MLOAD PUSH4 0x5274AFE7 PUSH1 0xE0 SHL DUP2 MSTORE PUSH1 0x1 PUSH1 0x1 PUSH1 0xA0 SHL SUB DUP6 AND PUSH1 0x4 DUP3 ADD MSTORE PUSH1 0x24 ADD PUSH2 0x4DE JUMP JUMPDEST PUSH1 0x0 PUSH1 0x20 DUP3 DUP5 SUB SLT ISZERO PUSH2 0x1245 JUMPI PUSH1 0x0 DUP1 REVERT JUMPDEST POP CALLDATALOAD SWAP2 SWAP1 POP JUMP JUMPDEST PUSH1 0x1 PUSH1 0x1 PUSH1 0xA0 SHL SUB DUP2 AND DUP2 EQ PUSH2 0x973 JUMPI PUSH1 0x0 DUP1 REVERT JUMPDEST PUSH1 0x0 DUP1 PUSH1 0x40 DUP4 DUP6 SUB SLT ISZERO PUSH2 0x1274 JUMPI PUSH1 0x0 DUP1 REVERT JUMPDEST DUP3 CALLDATALOAD PUSH2 0x127F DUP2 PUSH2 0x124C JUMP JUMPDEST SWAP2 POP PUSH1 0x20 DUP4 ADD CALLDATALOAD PUSH1 0x1 PUSH1 0x1 PUSH1 0x60 SHL SUB DUP2 AND DUP2 EQ PUSH2 0x129B JUMPI PUSH1 0x0 DUP1 REVERT JUMPDEST DUP1 SWAP2 POP POP SWAP3 POP SWAP3 SWAP1 POP JUMP JUMPDEST PUSH1 0x0 PUSH1 0x20 DUP3 DUP5 SUB SLT ISZERO PUSH2 0x12B8 JUMPI PUSH1 0x0 DUP1 REVERT JUMPDEST DUP2 CALLDATALOAD PUSH2 0x12C3 DUP2 PUSH2 0x124C JUMP JUMPDEST SWAP4 SWAP3 POP POP POP JUMP JUMPDEST PUSH1 0x0 DUP1 PUSH1 0x0 PUSH1 0x60 DUP5 DUP7 SUB SLT ISZERO PUSH2 0x12DF JUMPI PUSH1 0x0 DUP1 REVERT JUMPDEST DUP4 CALLDATALOAD SWAP3 POP PUSH1 0x20 DUP5 ADD CALLDATALOAD PUSH2 0x12F1 DUP2 PUSH2 0x124C JUMP JUMPDEST SWAP3 SWAP6 SWAP3 SWAP5 POP POP POP PUSH1 0x40 SWAP2 SWAP1 SWAP2 ADD CALLDATALOAD SWAP1 JUMP JUMPDEST PUSH4 0x4E487B71 PUSH1 0xE0 SHL PUSH1 0x0 MSTORE PUSH1 0x41 PUSH1 0x4 MSTORE PUSH1 0x24 PUSH1 0x0 REVERT JUMPDEST PUSH1 0x40 MLOAD PUSH2 0x140 DUP2 ADD PUSH8 0xFFFFFFFFFFFFFFFF DUP2 GT DUP3 DUP3 LT OR ISZERO PUSH2 0x133C JUMPI PUSH2 0x133C PUSH2 0x1302 JUMP JUMPDEST PUSH1 0x40 MSTORE SWAP1 JUMP JUMPDEST PUSH1 0x40 MLOAD PUSH1 0x1F DUP3 ADD PUSH1 0x1F NOT AND DUP2 ADD PUSH8 0xFFFFFFFFFFFFFFFF DUP2 GT DUP3 DUP3 LT OR ISZERO PUSH2 0x136B JUMPI PUSH2 0x136B PUSH2 0x1302 JUMP JUMPDEST PUSH1 0x40 MSTORE SWAP2 SWAP1 POP JUMP JUMPDEST DUP1 MLOAD PUSH2 0x137E DUP2 PUSH2 0x124C JUMP JUMPDEST SWAP2 SWAP1 POP JUMP JUMPDEST PUSH1 0x0 DUP3 PUSH1 0x1F DUP4 ADD SLT PUSH2 0x1394 JUMPI PUSH1 0x0 DUP1 REVERT JUMPDEST DUP2 MLOAD PUSH8 0xFFFFFFFFFFFFFFFF DUP2 GT ISZERO PUSH2 0x13AE JUMPI PUSH2 0x13AE PUSH2 0x1302 JUMP JUMPDEST PUSH1 0x20 PUSH2 0x13C2 PUSH1 0x1F DUP4 ADD PUSH1 0x1F NOT AND DUP3 ADD PUSH2 0x1342 JUMP JUMPDEST DUP3 DUP2 MSTORE DUP6 DUP3 DUP5 DUP8 ADD ADD GT ISZERO PUSH2 0x13D6 JUMPI PUSH1 0x0 DUP1 REVERT JUMPDEST PUSH1 0x0 JUMPDEST DUP4 DUP2 LT ISZERO PUSH2 0x13F4 JUMPI DUP6 DUP2 ADD DUP4 ADD MLOAD DUP3 DUP3 ADD DUP5 ADD MSTORE DUP3 ADD PUSH2 0x13D9 JUMP JUMPDEST POP PUSH1 0x0 SWAP3 DUP2 ADD SWAP1 SWAP2 ADD SWAP2 SWAP1 SWAP2 MSTORE SWAP4 SWAP3 POP POP POP JUMP JUMPDEST DUP1 MLOAD PUSH8 0xFFFFFFFFFFFFFFFF DUP2 AND DUP2 EQ PUSH2 0x137E JUMPI PUSH1 0x0 DUP1 REVERT JUMPDEST DUP1 MLOAD PUSH1 0xFF DUP2 AND DUP2 EQ PUSH2 0x137E JUMPI PUSH1 0x0 DUP1 REVERT JUMPDEST PUSH1 0x0 PUSH1 0x20 DUP3 DUP5 SUB SLT ISZERO PUSH2 0x1443 JUMPI PUSH1 0x0 DUP1 REVERT JUMPDEST DUP2 MLOAD PUSH8 0xFFFFFFFFFFFFFFFF DUP1 DUP3 GT ISZERO PUSH2 0x145B JUMPI PUSH1 0x0 DUP1 REVERT JUMPDEST SWAP1 DUP4 ADD SWAP1 PUSH2 0x140 DUP3 DUP7 SUB SLT ISZERO PUSH2 0x1470 JUMPI PUSH1 0x0 DUP1 REVERT JUMPDEST PUSH2 0x1478 PUSH2 0x1318 JUMP JUMPDEST DUP3 MLOAD DUP2 MSTORE PUSH2 0x1488 PUSH1 0x20 DUP5 ADD PUSH2 0x1373 JUMP JUMPDEST PUSH1 0x20 DUP3 ADD MSTORE PUSH2 0x1499 PUSH1 0x40 DUP5 ADD PUSH2 0x1373 JUMP JUMPDEST PUSH1 0x40 DUP3 ADD MSTORE PUSH1 0x60 DUP4 ADD MLOAD DUP3 DUP2 GT ISZERO PUSH2 0x14B0 JUMPI PUSH1 0x0 DUP1 REVERT JUMPDEST PUSH2 0x14BC DUP8 DUP3 DUP7 ADD PUSH2 0x1383 JUMP JUMPDEST PUSH1 0x60 DUP4 ADD MSTORE POP PUSH1 0x80 DUP4 ADD MLOAD PUSH1 0x80 DUP3 ADD MSTORE PUSH2 0x14D8 PUSH1 0xA0 DUP5 ADD PUSH2 0x1408 JUMP JUMPDEST PUSH1 0xA0 DUP3 ADD MSTORE PUSH2 0x14E9 PUSH1 0xC0 DUP5 ADD PUSH2 0x1420 JUMP JUMPDEST PUSH1 0xC0 DUP3 ADD MSTORE PUSH1 0xE0 DUP4 DUP2 ADD MLOAD SWAP1 DUP3 ADD MSTORE PUSH2 0x100 DUP1 DUP5 ADD MLOAD SWAP1 DUP3 ADD MSTORE PUSH2 0x120 SWAP3 DUP4 ADD MLOAD SWAP3 DUP2 ADD SWAP3 SWAP1 SWAP3 MSTORE POP SWAP4 SWAP3 POP POP POP JUMP JUMPDEST PUSH4 0x4E487B71 PUSH1 0xE0 SHL PUSH1 0x0 MSTORE PUSH1 0x11 PUSH1 0x4 MSTORE PUSH1 0x24 PUSH1 0x0 REVERT JUMPDEST DUP1 DUP3 MUL DUP2 ISZERO DUP3 DUP3 DIV DUP5 EQ OR PUSH2 0x1546 JUMPI PUSH2 0x1546 PUSH2 0x1519 JUMP JUMPDEST SWAP3 SWAP2 POP POP JUMP JUMPDEST PUSH1 0x0 DUP3 PUSH2 0x1569 JUMPI PUSH4 0x4E487B71 PUSH1 0xE0 SHL PUSH1 0x0 MSTORE PUSH1 0x12 PUSH1 0x4 MSTORE PUSH1 0x24 PUSH1 0x0 REVERT JUMPDEST POP DIV SWAP1 JUMP JUMPDEST DUP2 DUP2 SUB DUP2 DUP2 GT ISZERO PUSH2 0x1546 JUMPI PUSH2 0x1546 PUSH2 0x1519 JUMP INVALID LOG2 PUSH5 0x6970667358 0x22 SLT KECCAK256 0x2B 0x24 0xDB 0x4C DELEGATECALL 0xE5 GT 0xEA 0xC0 0xAF LOG1 0xBA 0xB0 0xB5 0xAF LOG4 PUSH7 0x6D992E9A930A74 CALLVALUE 0xF7 ADD 0xBE 0xFC EXP MCOPY 0xE0 PUSH5 0x736F6C6343 STOP ADDMOD XOR STOP CALLER "},"methodIdentifiers":{"confirmDelivery(uint256)":"fd84cb97","deliveryConfirmed(uint256)":"580788ad","deposits(uint256)":"b02c43d0","feeCollector()":"c415b95c","fundJob(uint256,address,uint256)":"f7fd0e4f","getDeposit(uint256)":"9f9fb968","isDeliveryConfirmed(uint256)":"37433cf1","orderBook()":"776af5ba","owner()":"8da5cb5b","platformFeeBps()":"22dcd13e","refund(uint256)":"278ecde1","releaseToProvider(uint256)":"1c8add89","renounceOwnership()":"715018a6","reputationToken()":"275bbe9b","setFeeCollector(address,uint96)":"329dc103","setOrderBook(address)":"9a1598c8","setReputationToken(address)":"7f58a8d6","transferOwnership(address)":"f2fde38b","usdc()":"3e413bee"}}}}}